{
  "_format": "hh-sol-artifact-1",
  "contractName": "BnA",
  "sourceName": "contracts/test/BnA.sol",
  "abi": [
    {
      "inputs": [
        {
          "internalType": "address[]",
          "name": "tokens",
          "type": "address[]"
        },
        {
          "internalType": "address[]",
          "name": "owners",
          "type": "address[]"
        },
        {
          "internalType": "address[]",
          "name": "spenders",
          "type": "address[]"
        }
      ],
      "name": "getBnA",
      "outputs": [
        {
          "internalType": "uint256[]",
          "name": "rets",
          "type": "uint256[]"
        },
        {
          "internalType": "uint256",
          "name": "blockNumber",
          "type": "uint256"
        }
      ],
      "stateMutability": "view",
      "type": "function"
    }
  ],
  "bytecode": "0x608060405234801561001057600080fd5b50610747806100206000396000f3fe608060405234801561001057600080fd5b506004361061002b5760003560e01c8063a8d2510414610030575b600080fd5b61004361003e3660046104bf565b61005a565b604051610051929190610559565b60405180910390f35b606060006100698360016105d0565b61007386896105e8565b61007d91906105e8565b67ffffffffffffffff81111561009557610095610625565b6040519080825280602002602001820160405280156100be578160200160208202803683370190505b5091506000805b888110156104635760008a8a838181106100e1576100e1610654565b90506020020160208101906100f69190610683565b905060005b888110156104505760008a8a8381811061011757610117610654565b905060200201602081019061012c9190610683565b90507fffffffffffffffffffffffff111111111111111111111111111111111111111273ffffffffffffffffffffffffffffffffffffffff8416016101bd578073ffffffffffffffffffffffffffffffffffffffff163187868151811061019557610195610654565b60209081029190910101526101ab8860016105d0565b6101b590866105d0565b945050610440565b6040517f70a0823100000000000000000000000000000000000000000000000000000000815273ffffffffffffffffffffffffffffffffffffffff82811660048301528416906370a0823190602401602060405180830381865afa925050508015610263575060408051601f3d9081017fffffffffffffffffffffffffffffffffffffffffffffffffffffffffffffffe0168201909252610260918101906106c0565b60015b61029d573d808015610291576040519150601f19603f3d011682016040523d82523d6000602084013e610296565b606091505b50506102be565b808887815181106102b0576102b0610654565b602002602001018181525050505b846102c8816106d9565b95505060005b8881101561043d578373ffffffffffffffffffffffffffffffffffffffff1663dd62ed3e838c8c8581811061030557610305610654565b905060200201602081019061031a9190610683565b6040517fffffffff0000000000000000000000000000000000000000000000000000000060e085901b16815273ffffffffffffffffffffffffffffffffffffffff928316600482015291166024820152604401602060405180830381865afa9250505080156103c4575060408051601f3d9081017fffffffffffffffffffffffffffffffffffffffffffffffffffffffffffffffe01682019092526103c1918101906106c0565b60015b6103fe573d8080156103f2576040519150601f19603f3d011682016040523d82523d6000602084013e6103f7565b606091505b505061041f565b8089888151811061041157610411610654565b602002602001018181525050505b85610429816106d9565b96505080610436906106d9565b90506102ce565b50505b610449816106d9565b90506100fb565b50508061045c906106d9565b90506100c5565b5043915050965096945050505050565b60008083601f84011261048557600080fd5b50813567ffffffffffffffff81111561049d57600080fd5b6020830191508360208260051b85010111156104b857600080fd5b9250929050565b600080600080600080606087890312156104d857600080fd5b863567ffffffffffffffff808211156104f057600080fd5b6104fc8a838b01610473565b9098509650602089013591508082111561051557600080fd5b6105218a838b01610473565b9096509450604089013591508082111561053a57600080fd5b5061054789828a01610473565b979a9699509497509295939492505050565b604080825283519082018190526000906020906060840190828701845b8281101561059257815184529284019290840190600101610576565b50505092019290925292915050565b7f4e487b7100000000000000000000000000000000000000000000000000000000600052601160045260246000fd5b600082198211156105e3576105e36105a1565b500190565b6000817fffffffffffffffffffffffffffffffffffffffffffffffffffffffffffffffff0483118215151615610620576106206105a1565b500290565b7f4e487b7100000000000000000000000000000000000000000000000000000000600052604160045260246000fd5b7f4e487b7100000000000000000000000000000000000000000000000000000000600052603260045260246000fd5b60006020828403121561069557600080fd5b813573ffffffffffffffffffffffffffffffffffffffff811681146106b957600080fd5b9392505050565b6000602082840312156106d257600080fd5b5051919050565b60007fffffffffffffffffffffffffffffffffffffffffffffffffffffffffffffffff820361070a5761070a6105a1565b506001019056fea264697066735822122000ddd5aa0754dd6c7bcedac950a049de8be9702a8e727f8c040a0ab7a587122564736f6c634300080d0033",
  "linkReferences": {},
  "deployedLinkReferences": {}
}