{
  "_format": "hh-sol-artifact-1",
  "contractName": "FetcherV2Mock",
  "sourceName": "contracts/support/FetcherV2Mock.sol",
  "abi": [
    {
      "anonymous": false,
      "inputs": [
        {
          "indexed": true,
          "internalType": "bytes32",
          "name": "ORACLE",
          "type": "bytes32"
        },
        {
          "indexed": false,
          "internalType": "uint256",
          "name": "proofBlock",
          "type": "uint256"
        },
        {
          "indexed": false,
          "internalType": "uint256",
          "name": "dataTime",
          "type": "uint256"
        },
        {
          "indexed": false,
          "internalType": "uint256",
          "name": "basePriceCumulative",
          "type": "uint256"
        }
      ],
      "name": "Submit",
      "type": "event"
    },
    {
      "inputs": [
        {
          "internalType": "uint256",
          "name": "ORACLE",
          "type": "uint256"
        }
      ],
      "name": "clear",
      "outputs": [],
      "stateMutability": "nonpayable",
      "type": "function"
    },
    {
      "inputs": [
        {
          "internalType": "uint256",
          "name": "ORACLE",
          "type": "uint256"
        }
      ],
      "name": "ensureStateIntegrity",
      "outputs": [],
      "stateMutability": "view",
      "type": "function"
    },
    {
      "inputs": [
        {
          "internalType": "uint256",
          "name": "ORACLE",
          "type": "uint256"
        }
      ],
      "name": "fetch",
      "outputs": [
        {
          "internalType": "uint256",
          "name": "twap",
          "type": "uint256"
        },
        {
          "internalType": "uint256",
          "name": "spot",
          "type": "uint256"
        }
      ],
      "stateMutability": "view",
      "type": "function"
    },
    {
      "inputs": [
        {
          "internalType": "uint256",
          "name": "ORACLE",
          "type": "uint256"
        },
        {
          "components": [
            {
              "internalType": "bytes",
              "name": "block",
              "type": "bytes"
            },
            {
              "internalType": "bytes",
              "name": "accountProofNodesRlp",
              "type": "bytes"
            },
            {
              "internalType": "bytes",
              "name": "reserveAndTimestampProofNodesRlp",
              "type": "bytes"
            },
            {
              "internalType": "bytes",
              "name": "priceAccumulatorProofNodesRlp",
              "type": "bytes"
            }
          ],
          "internalType": "struct FetcherV2.ProofData",
          "name": "proofData",
          "type": "tuple"
        }
      ],
      "name": "submit",
      "outputs": [],
      "stateMutability": "nonpayable",
      "type": "function"
    },
    {
      "inputs": [
        {
          "internalType": "uint256",
          "name": "ORACLE",
          "type": "uint256"
        },
        {
          "internalType": "uint256",
          "name": "basePriceCumulative",
          "type": "uint256"
        },
        {
          "internalType": "uint256",
          "name": "proofBlock",
          "type": "uint256"
        },
        {
          "internalType": "uint256",
          "name": "dataTime",
          "type": "uint256"
        }
      ],
      "name": "submitPrice",
      "outputs": [],
      "stateMutability": "nonpayable",
      "type": "function"
    }
  ],
  "bytecode": "0x608060405234801561001057600080fd5b506126b6806100206000396000f3fe608060405234801561001057600080fd5b50600436106100675760003560e01c8063c0fe1af811610050578063c0fe1af8146100ad578063dc9609be146100c0578063e2c1ba1c146100d357600080fd5b8063209ae6a81461006c5780637a33e3b014610081575b600080fd5b61007f61007a3660046121cd565b6100e6565b005b61009461008f3660046121cd565b610167565b6040805192835260208301919091520160405180910390f35b61007f6100bb3660046121cd565b61043b565b61007f6100ce3660046121e6565b61047e565b61007f6100e1366004612218565b610758565b60008181526020819052604090205460ff1615610164576040517f08c379a000000000000000000000000000000000000000000000000000000000815260206004820152601a60248201527f4665746368657256323a2053544154455f494e5445475249545900000000000060448201526064015b60405180910390fd5b50565b600081815260208190526040812054819060c084901c90610100900467ffffffffffffffff164361019e63ffffffff841683612295565b1015610206576040517f08c379a000000000000000000000000000000000000000000000000000000000815260206004820152600360248201527f4f4c440000000000000000000000000000000000000000000000000000000000604482015260640161015b565b4361021b637fffffff600185901c1683612295565b1115610283576040517f08c379a000000000000000000000000000000000000000000000000000000000815260206004820152600360248201527f4e45570000000000000000000000000000000000000000000000000000000000604482015260640161015b565b8460ff81901c6000806102968484610c15565b60008b81526020819052604090205491935063ffffffff169150690100000000000000000090046fffffffffffffffffffffffffffffffff16818110610338576040517f08c379a000000000000000000000000000000000000000000000000000000000815260206004820152600360248201527f4e4f570000000000000000000000000000000000000000000000000000000000604482015260640161015b565b601061034482846122a8565b60008c81526020819052604090206001015461036090866122a8565b61036a91906122ea565b901b98506000808673ffffffffffffffffffffffffffffffffffffffff16630902f1ac6040518163ffffffff1660e01b8152600401606060405180830381865afa1580156103bc573d6000803e3d6000fd5b505050506040513d601f19601f820116820180604052508101906103e0919061231c565b506dffffffffffffffffffffffffffff1691506dffffffffffffffffffffffffffff1691508560000361040f57905b61042b7001000000000000000000000000000000008284610e58565b9950505050505050505050915091565b610444816100e6565b600090815260208190526040812080547fffffffffffffff0000000000000000000000000000000000000000000000000016815560010155565b60c084901c61049363ffffffff8216436122a8565b8310156104fc576040517f08c379a000000000000000000000000000000000000000000000000000000000815260206004820152600960248201527f4f4c445f50524f4f460000000000000000000000000000000000000000000000604482015260640161015b565b610510637fffffff600183901c16436122a8565b831115610579576040517f08c379a000000000000000000000000000000000000000000000000000000000815260206004820152600960248201527f4e45575f50524f4f460000000000000000000000000000000000000000000000604482015260640161015b565b600085815260208190526040902080547fffffffffffffffffffffffffffffffffffffffffffffff0000000000000000ff1661010067ffffffffffffffff8616021790819055690100000000000000000090046fffffffffffffffffffffffffffffffff16821015610647576040517f08c379a000000000000000000000000000000000000000000000000000000000815260206004820152600860248201527f4f4c445f44415441000000000000000000000000000000000000000000000000604482015260640161015b565b600085815260208190526040902054690100000000000000000090046fffffffffffffffffffffffffffffffff1682111561075157600085815260208190526040902080547fffffffffffffff00000000000000000000000000000000ffffffffffffffffff1669010000000000000000006fffffffffffffffffffffffffffffffff85160217815560010154841161073c576040517f08c379a000000000000000000000000000000000000000000000000000000000815260206004820152600d60248201527f494e56414c49445f505249434500000000000000000000000000000000000000604482015260640161015b565b60008581526020819052604090206001018490555b5050505050565b81610762816100e6565b600081815260208190526040812080547fffffffffffffffffffffffffffffffffffffffffffffffffffffffffffffff00166001179055806107a48585610fef565b909250905060c085901c6107be63ffffffff8216436122a8565b821015610827576040517f08c379a000000000000000000000000000000000000000000000000000000000815260206004820152600960248201527f4f4c445f50524f4f460000000000000000000000000000000000000000000000604482015260640161015b565b61083b637fffffff600183901c16436122a8565b8211156108a4576040517f08c379a000000000000000000000000000000000000000000000000000000000815260206004820152600960248201527f4e45575f50524f4f460000000000000000000000000000000000000000000000604482015260640161015b565b5060008581526020818152604080832080547fffffffffffffffffffffffffffffffffffffffffffffff0000000000000000ff1661010067ffffffffffffffff87160217905580516008928101929092526109ad916109a89161097b91879161092491015b6040516020818303038152906040528051906020012061116c565b61097661097161093760408d018d61236c565b8080601f01602080910402602001604051908101604052809392919081815260200183838082843760009201919091525061097b92505050565b6111a1565b6112b7565b60408051808201825260008082526020918201528151808301909252825182529182019181019190915290565b6116de565b60008781526020819052604090205490915060e082901c90690100000000000000000090046fffffffffffffffffffffffffffffffff1681811115610a4e576040517f08c379a000000000000000000000000000000000000000000000000000000000815260206004820152600860248201527f4f4c445f44415441000000000000000000000000000000000000000000000000604482015260640161015b565b808203610aa2576040805185815260006020820181905281830152905189917fb0e292d4b4fe2ac9a9a5725b633044a008f2f62f8fcaaf711b7abfc4b4b93a7e919081900360600190a25050505050610bdd565b50600087815260208190526040812080547fffffffffffffff00000000000000000000000000000000ffffffffffffffffff1669010000000000000000006fffffffffffffffffffffffffffffffff85160217905560ff88901c9060018214610b2c5760408051600a60208201520160405160208183030381529060405280519060200120610b4f565b604080516009602082015201604051602081830303815290604052805190602001205b90506000610b7c6109a861097b89610b668661116c565b6109766109718f8060600190610937919061236c565b60008b8152602081815260409182902060010183905581518981529081018790529081018290529091508a907fb0e292d4b4fe2ac9a9a5725b633044a008f2f62f8fcaaf711b7abfc4b4b93a7e9060600160405180910390a2505050505050505b600090815260208190526040902080547fffffffffffffffffffffffffffffffffffffffffffffffffffffffffffffff001690555050565b600080610c2061172c565b905082600114610c9e578373ffffffffffffffffffffffffffffffffffffffff16635a3d54936040518163ffffffff1660e01b8152600401602060405180830381865afa158015610c75573d6000803e3d6000fd5b505050506040513d601f19601f82011682018060405250810190610c9991906123d1565b610d0d565b8373ffffffffffffffffffffffffffffffffffffffff16635909c0d56040518163ffffffff1660e01b8152600401602060405180830381865afa158015610ce9573d6000803e3d6000fd5b505050506040513d601f19601f82011682018060405250810190610d0d91906123d1565b915060008060008673ffffffffffffffffffffffffffffffffffffffff16630902f1ac6040518163ffffffff1660e01b8152600401606060405180830381865afa158015610d5f573d6000803e3d6000fd5b505050506040513d601f19601f82011682018060405250810190610d83919061231c565b9250925092508363ffffffff168163ffffffff1614610e4e576000610da882866123ea565b9050600087600114610df357610dee6e010000000000000000000000000000866dffffffffffffffffffffffffffff16866dffffffffffffffffffffffffffff16610e58565b610e2d565b610e2d6e010000000000000000000000000000856dffffffffffffffffffffffffffff16876dffffffffffffffffffffffffffff16610e58565b9050610e3f63ffffffff831682612407565b610e499088612295565b965050505b5050509250929050565b600080807fffffffffffffffffffffffffffffffffffffffffffffffffffffffffffffffff85870985870292508281108382030391505080600003610eaf5760008411610ea457600080fd5b508290049050610fe8565b808411610ebb57600080fd5b600084868809808403938111909203919050600085610eda81836122a8565b16958690049593849004936000819003046001019050610efa8184612407565b909317926000610f0b876003612407565b6002189050610f1a8188612407565b610f259060026122a8565b610f2f9082612407565b9050610f3b8188612407565b610f469060026122a8565b610f509082612407565b9050610f5c8188612407565b610f679060026122a8565b610f719082612407565b9050610f7d8188612407565b610f889060026122a8565b610f929082612407565b9050610f9e8188612407565b610fa99060026122a8565b610fb39082612407565b9050610fbf8188612407565b610fca9060026122a8565b610fd49082612407565b9050610fe08186612407565b955050505050505b9392505050565b6000808061103a611000858061236c565b8080601f01602080910402602001604051908101604052809392919081815260200183838082843760009201919091525061174292505050565b93509091505081406000036110ab576040517f08c379a000000000000000000000000000000000000000000000000000000000815260206004820152600d60248201527f626c6f636b68617368203d203000000000000000000000000000000000000000604482015260640161015b565b6040517fffffffffffffffffffffffffffffffffffffffff000000000000000000000000606087901b1660208201526000906111029083906110ef90603401610909565b61097661097161093760208b018b61236c565b9050600061113a6109718360408051808201825260008082526020918201528151808301909252825182529182019181019190915290565b905061115f816002815181106111525761115261241e565b60200260200101516116de565b94505050505b9250929050565b604080516021808252606082810190935260208201818036833701905050905081602182015261119b81611878565b92915050565b60606111ac82611a5f565b6111b557600080fd5b60006111c083611a9a565b905060008167ffffffffffffffff8111156111dd576111dd61244d565b60405190808252806020026020018201604052801561122257816020015b60408051808201909152600080825260208201528152602001906001900390816111fb5790505b50905060006112348560200151611b1f565b85602001516112439190612295565b90506000805b848110156112ac5761125a83611b9a565b91506040518060400160405280838152602001848152508482815181106112835761128361241e565b60209081029190910101526112988284612295565b9250806112a48161247c565b915050611249565b509195945050505050565b606060008060606112db604051806040016040528060008152602001600081525090565b855160000361132b577f56e81f171bcc55a6ff8345e692c0f86e5b48e01b996cadc001622fb5e363b421881461131057600080fd5b50506040805160008152602081019091529250610fe8915050565b60005b86518110156116d2578015801561136d57506113698782815181106113555761135561241e565b602002602001015160208101519051902090565b8914155b1561137757600080fd5b80158015906113a757506113a38782815181106113965761139661241e565b6020026020010151611c43565b8414155b156113b157600080fd5b6113d38782815181106113c6576113c661241e565b60200260200101516111a1565b9250825160020361157d576000606061140d611408866000815181106113fb576113fb61241e565b6020026020010151611c9d565b611d1b565b9092509050600061141f888c84611db6565b905061142b8189612295565b9750815181101561148d5760018a5161144491906122a8565b84101561145057600080fd5b60005b6040519080825280601f01601f19166020018201604052801561147d576020820181803683370190505b5098505050505050505050610fe8565b82156114f25760018a516114a191906122a8565b8410156114ad57600080fd5b8a518810156114bd576000611453565b856001815181106114d0576114d061241e565b602002602001015194506114e385611c9d565b98505050505050505050610fe8565b60018a5161150091906122a8565b840361150b57600080fd5b61152e866001815181106115215761152161241e565b6020026020010151611a5f565b61155c57611555866001815181106115485761154861241e565b6020026020010151611e71565b9650611575565b611572866001815181106113555761135561241e565b96505b5050506116c0565b82516011036116c057875185146116855760008886815181106115a2576115a261241e565b016020015160f81c90506115b7600187612295565b955060108160ff16106115c957600080fd5b6115ee848260ff16815181106115e1576115e161241e565b6020026020010151611e89565b15611629576001885161160191906122a8565b821461160c57600080fd5b50506040805160008152602081019091529450610fe89350505050565b611641848260ff16815181106115215761152161241e565b6116645761165d848260ff16815181106115485761154861241e565b945061167f565b61167c848260ff16815181106113555761135561241e565b94505b506116c0565b6001875161169391906122a8565b811461169e57600080fd5b6116b4836010815181106113fb576113fb61241e565b95505050505050610fe8565b806116ca8161247c565b91505061132e565b50505050509392505050565b8051600090158015906116f357508151602110155b6116fc57600080fd5b60008061170884611eac565b8151919350915060208210156117245760208290036101000a90045b949350505050565b600061173d640100000000426124b4565b905090565b60008060006117c5565b7f08c379a0000000000000000000000000000000000000000000000000000000006000526020600452816024528060445250806044016000fd5b600080825160001a60808110600181146117a55780156117b1576117be565b849350600192506117be565b6001850193506080820392505b5050915091565b83516020850194607b8101906101e0016117de81611786565b0190506117ea81611786565b91508181016117f881611786565b01905061180481611786565b01905061181081611786565b9150825160088502610100031c965086409350858a20955085841461185a5761185a60147f626c6f636b4861736820213d20726c704861736800000000000000000000000061174c565b84519850805160088302610100031c97505050505050509193909250565b606080825160000361188a5792915050565b600080611898600086611ef3565b60f81c905060018114806118af57508060ff166003145b1561196f576001855160026118c49190612407565b6118ce91906122a8565b67ffffffffffffffff8111156118e6576118e661244d565b6040519080825280601f01601f191660200182016040528015611910576020820181803683370190505b5092506000611920600187611ef3565b905080846000815181106119365761193661241e565b60200101907effffffffffffffffffffffffffffffffffffffffffffffffffffffffffffff1916908160001a90535060019250506119d3565b60028551600261197f9190612407565b61198991906122a8565b67ffffffffffffffff8111156119a1576119a161244d565b6040519080825280601f01601f1916602001820160405280156119cb576020820181803683370190505b509250600091505b60ff82165b8351811015611a5557611a026119f160ff8516836122a8565b6119fc906002612295565b87611ef3565b848281518110611a1457611a1461241e565b60200101907effffffffffffffffffffffffffffffffffffffffffffffffffffffffffffff1916908160001a90535080611a4d8161247c565b9150506119d8565b5091949350505050565b80516000908103611a7257506000919050565b6020820151805160001a9060c0821015611a90575060009392505050565b5060019392505050565b80516000908103611aad57506000919050565b600080611abd8460200151611b1f565b8460200151611acc9190612295565b9050600084600001518560200151611ae49190612295565b90505b80821015611b1657611af882611b9a565b611b029083612295565b915082611b0e8161247c565b935050611ae7565b50909392505050565b8051600090811a6080811015611b385750600092915050565b60b8811080611b53575060c08110801590611b53575060f881105b15611b615750600192915050565b60c0811015611b8e57611b76600160b86124c8565b611b839060ff16826122a8565b610fe8906001612295565b611b76600160f86124c8565b80516000908190811a6080811015611bb55760019150611c3c565b60b8811015611bdb57611bc96080826122a8565b611bd4906001612295565b9150611c3c565b60c0811015611c085760b78103600185019450806020036101000a85510460018201810193505050611c3c565b60f8811015611c1c57611bc960c0826122a8565b60f78103600185019450806020036101000a855104600182018101935050505b5092915050565b6000602082600001511015611c605760208201518251902061119b565b602082015182519020604051602001611c7b91815260200190565b604051602081830303815290604052805190602001209050919050565b919050565b8051606090611cab57600080fd5b600080611cb784611eac565b9150915060008167ffffffffffffffff811115611cd657611cd661244d565b6040519080825280601f01601f191660200182016040528015611d00576020820181803683370190505b50905060208101611d12848285611f74565b50949350505050565b600060606000835111611d2d57600080fd5b6000600484600081518110611d4457611d4461241e565b60209101015160f81c901c600f1690506000818103611d695750600092506002611da0565b81600103611d7d5750600092506001611da0565b81600203611d915750600192506002611da0565b81600303610067575060019250825b83611dab8683611ff7565b935093505050915091565b6000805b8351611dc68683612295565b108015611dd35750825181105b1561172457828181518110611dea57611dea61241e565b01602001517fff000000000000000000000000000000000000000000000000000000000000001684611e1c8784612295565b81518110611e2c57611e2c61241e565b01602001517fff000000000000000000000000000000000000000000000000000000000000001614611e5f579050610fe8565b80611e698161247c565b915050611dba565b6000806000611e7f84611eac565b9020949350505050565b8051600090600114611e9d57506000919050565b50602001515160001a60801490565b6000806000611ebe8460200151611b1f565b90506000818560200151611ed29190612295565b90506000828660000151611ee691906122a8565b9196919550909350505050565b6000611f006002846124b4565b15611f3a57601082611f136002866122ea565b81518110611f2357611f2361241e565b0160200151611f35919060f81c6124e1565b611f6a565b601082611f486002866122ea565b81518110611f5857611f5861241e565b0160200151611f6a919060f81c612503565b60f81b9392505050565b80600003611f8157505050565b60208110611fb95782518252611f98602084612295565b9250611fa5602083612295565b9150611fb26020826122a8565b9050611f81565b8015611ff25760006001611fce8360206122a8565b611fda90610100612645565b611fe491906122a8565b845184518216911916178352505b505050565b6060600083511161200757600080fd5b6000835160026120179190612407565b90508083111561202657600080fd5b61203083826122a8565b90508067ffffffffffffffff81111561204b5761204b61244d565b6040519080825280601f01601f191660200182016040528015612075576020820181803683370190505b5091506000835b6120868386612295565b8110156121b4576120986002826124b4565b60000361211c576004866120ad6002846122ea565b815181106120bd576120bd61241e565b602001015160f81c60f81b60f81c60ff16901c600f1660f81b8483815181106120e8576120e861241e565b60200101907effffffffffffffffffffffffffffffffffffffffffffffffffffffffffffff1916908160001a905350612195565b60008661212a6002846122ea565b8151811061213a5761213a61241e565b602001015160f81c60f81b60f81c60ff16901c600f1660f81b8483815181106121655761216561241e565b60200101907effffffffffffffffffffffffffffffffffffffffffffffffffffffffffffff1916908160001a9053505b6121a0600183612295565b91506121ad600182612295565b905061207c565b50825181146121c5576121c5612651565b505092915050565b6000602082840312156121df57600080fd5b5035919050565b600080600080608085870312156121fc57600080fd5b5050823594602084013594506040840135936060013592509050565b6000806040838503121561222b57600080fd5b82359150602083013567ffffffffffffffff81111561224957600080fd5b83016080818603121561225b57600080fd5b809150509250929050565b7f4e487b7100000000000000000000000000000000000000000000000000000000600052601160045260246000fd5b8082018082111561119b5761119b612266565b8181038181111561119b5761119b612266565b7f4e487b7100000000000000000000000000000000000000000000000000000000600052601260045260246000fd5b6000826122f9576122f96122bb565b500490565b80516dffffffffffffffffffffffffffff81168114611c9857600080fd5b60008060006060848603121561233157600080fd5b61233a846122fe565b9250612348602085016122fe565b9150604084015163ffffffff8116811461236157600080fd5b809150509250925092565b60008083357fffffffffffffffffffffffffffffffffffffffffffffffffffffffffffffffe18436030181126123a157600080fd5b83018035915067ffffffffffffffff8211156123bc57600080fd5b60200191503681900382131561116557600080fd5b6000602082840312156123e357600080fd5b5051919050565b63ffffffff828116828216039080821115611c3c57611c3c612266565b808202811582820484141761119b5761119b612266565b7f4e487b7100000000000000000000000000000000000000000000000000000000600052603260045260246000fd5b7f4e487b7100000000000000000000000000000000000000000000000000000000600052604160045260246000fd5b60007fffffffffffffffffffffffffffffffffffffffffffffffffffffffffffffffff82036124ad576124ad612266565b5060010190565b6000826124c3576124c36122bb565b500690565b60ff828116828216039081111561119b5761119b612266565b600060ff8316806124f4576124f46122bb565b8060ff84160691505092915050565b600060ff831680612516576125166122bb565b8060ff84160491505092915050565b600181815b8085111561257e57817fffffffffffffffffffffffffffffffffffffffffffffffffffffffffffffffff0482111561256457612564612266565b8085161561257157918102915b93841c939080029061252a565b509250929050565b6000826125955750600161119b565b816125a25750600061119b565b81600181146125b857600281146125c2576125de565b600191505061119b565b60ff8411156125d3576125d3612266565b50506001821b61119b565b5060208310610133831016604e8410600b8410161715612601575081810a61119b565b61260b8383612525565b807fffffffffffffffffffffffffffffffffffffffffffffffffffffffffffffffff0482111561263d5761263d612266565b029392505050565b6000610fe88383612586565b7f4e487b7100000000000000000000000000000000000000000000000000000000600052600160045260246000fdfea2646970667358221220203cee056adc18af9cae84cc1218cb63f102855b9dcf8f3e3de01b1b2c208f4764736f6c63430008140033",
  "linkReferences": {},
  "deployedLinkReferences": {}
}