{
  "_format": "hh-sol-artifact-1",
  "contractName": "PairDetails",
  "sourceName": "contracts/test/PairDetails.sol",
  "abi": [
    {
      "inputs": [
        {
          "internalType": "address[]",
          "name": "pairs",
          "type": "address[]"
        },
        {
          "internalType": "uint256",
          "name": "flags",
          "type": "uint256"
        }
      ],
      "name": "query",
      "outputs": [
        {
          "components": [
            {
              "internalType": "string",
              "name": "symbol",
              "type": "string"
            },
            {
              "internalType": "string",
              "name": "name",
              "type": "string"
            },
            {
              "internalType": "uint256",
              "name": "decimals",
              "type": "uint256"
            },
            {
              "internalType": "address",
              "name": "factory",
              "type": "address"
            },
            {
              "internalType": "uint256",
              "name": "totalSupply",
              "type": "uint256"
            },
            {
              "components": [
                {
                  "internalType": "address",
                  "name": "adr",
                  "type": "address"
                },
                {
                  "internalType": "string",
                  "name": "symbol",
                  "type": "string"
                },
                {
                  "internalType": "string",
                  "name": "name",
                  "type": "string"
                },
                {
                  "internalType": "uint256",
                  "name": "decimals",
                  "type": "uint256"
                },
                {
                  "internalType": "uint256",
                  "name": "totalSupply",
                  "type": "uint256"
                },
                {
                  "internalType": "uint256",
                  "name": "reserve",
                  "type": "uint256"
                }
              ],
              "internalType": "struct PairDetails.Token",
              "name": "token0",
              "type": "tuple"
            },
            {
              "components": [
                {
                  "internalType": "address",
                  "name": "adr",
                  "type": "address"
                },
                {
                  "internalType": "string",
                  "name": "symbol",
                  "type": "string"
                },
                {
                  "internalType": "string",
                  "name": "name",
                  "type": "string"
                },
                {
                  "internalType": "uint256",
                  "name": "decimals",
                  "type": "uint256"
                },
                {
                  "internalType": "uint256",
                  "name": "totalSupply",
                  "type": "uint256"
                },
                {
                  "internalType": "uint256",
                  "name": "reserve",
                  "type": "uint256"
                }
              ],
              "internalType": "struct PairDetails.Token",
              "name": "token1",
              "type": "tuple"
            }
          ],
          "internalType": "struct PairDetails.PairDetail[]",
          "name": "details",
          "type": "tuple[]"
        }
      ],
      "stateMutability": "view",
      "type": "function"
    }
  ],
  "bytecode": "0x608060405234801561001057600080fd5b50611347806100206000396000f3fe608060405234801561001057600080fd5b506004361061002b5760003560e01c8063de0c9b4914610030575b600080fd5b61004361003e366004610e01565b610059565b6040516100509190610f63565b60405180910390f35b60608267ffffffffffffffff81111561007457610074611074565b6040519080825280602002602001820160405280156100ad57816020015b61009a610d15565b8152602001906001900390816100925790505b50905060005b83811015610d0d5760008585838181106100cf576100cf6110a3565b90506020020160208101906100e491906110f7565b90507f10000000000000000000000000000000000000000000000000000000000000008416156101be578073ffffffffffffffffffffffffffffffffffffffff166395d89b416040518163ffffffff1660e01b8152600401600060405180830381865afa158015610159573d6000803e3d6000fd5b505050506040513d6000823e601f3d9081017fffffffffffffffffffffffffffffffffffffffffffffffffffffffffffffffe016820160405261019f919081019061111b565b8383815181106101b1576101b16110a3565b6020908102919091010151525b7f0100000000000000000000000000000000000000000000000000000000000000841615610299578073ffffffffffffffffffffffffffffffffffffffff166306fdde036040518163ffffffff1660e01b8152600401600060405180830381865afa158015610231573d6000803e3d6000fd5b505050506040513d6000823e601f3d9081017fffffffffffffffffffffffffffffffffffffffffffffffffffffffffffffffe0168201604052610277919081019061111b565b838381518110610289576102896110a3565b6020026020010151602001819052505b7e10000000000000000000000000000000000000000000000000000000000000841615610355578073ffffffffffffffffffffffffffffffffffffffff1663313ce5676040518163ffffffff1660e01b8152600401602060405180830381865afa15801561030b573d6000803e3d6000fd5b505050506040513d601f19601f8201168201806040525081019061032f91906111e6565b60ff16838381518110610344576103446110a3565b602002602001015160400181815250505b7d01000000000000000000000000000000000000000000000000000000000084161561040d578073ffffffffffffffffffffffffffffffffffffffff166318160ddd6040518163ffffffff1660e01b8152600401602060405180830381865afa1580156103c6573d6000803e3d6000fd5b505050506040513d601f19601f820116820180604052508101906103ea9190611209565b8383815181106103fc576103fc6110a3565b602002602001015160800181815250505b6000868684818110610421576104216110a3565b905060200201602081019061043691906110f7565b90507e0100000000000000000000000000000000000000000000000000000000000085161561051f578073ffffffffffffffffffffffffffffffffffffffff1663c45a01556040518163ffffffff1660e01b8152600401602060405180830381865afa1580156104aa573d6000803e3d6000fd5b505050506040513d601f19601f820116820180604052508101906104ce9190611222565b8484815181106104e0576104e06110a3565b60200260200101516060019073ffffffffffffffffffffffffffffffffffffffff16908173ffffffffffffffffffffffffffffffffffffffff16815250505b7d100000000000000000000000000000000000000000000000000000000000851615610626578073ffffffffffffffffffffffffffffffffffffffff16630902f1ac6040518163ffffffff1660e01b8152600401606060405180830381865afa158015610590573d6000803e3d6000fd5b505050506040513d601f19601f820116820180604052508101906105b49190611262565b826dffffffffffffffffffffffffffff169250816dffffffffffffffffffffffffffff169150508585815181106105ed576105ed6110a3565b602002602001015160a0015160a00186868151811061060e5761060e6110a3565b602090810291909101015160c0015160a00191909152525b60008173ffffffffffffffffffffffffffffffffffffffff16630dfe16816040518163ffffffff1660e01b8152600401602060405180830381865afa158015610673573d6000803e3d6000fd5b505050506040513d601f19601f820116820180604052508101906106979190611222565b8585815181106106a9576106a96110a3565b602002602001015160a001516000019073ffffffffffffffffffffffffffffffffffffffff16908173ffffffffffffffffffffffffffffffffffffffff16815250905060008273ffffffffffffffffffffffffffffffffffffffff1663d21220a76040518163ffffffff1660e01b8152600401602060405180830381865afa158015610739573d6000803e3d6000fd5b505050506040513d601f19601f8201168201806040525081019061075d9190611222565b86868151811061076f5761076f6110a3565b602090810291909101015160c0015173ffffffffffffffffffffffffffffffffffffffff9091169081905290506001871615610912578173ffffffffffffffffffffffffffffffffffffffff166395d89b416040518163ffffffff1660e01b8152600401600060405180830381865afa1580156107f0573d6000803e3d6000fd5b505050506040513d6000823e601f3d9081017fffffffffffffffffffffffffffffffffffffffffffffffffffffffffffffffe0168201604052610836919081019061111b565b868681518110610848576108486110a3565b602002602001015160a00151602001819052508073ffffffffffffffffffffffffffffffffffffffff166395d89b416040518163ffffffff1660e01b8152600401600060405180830381865afa1580156108a6573d6000803e3d6000fd5b505050506040513d6000823e601f3d9081017fffffffffffffffffffffffffffffffffffffffffffffffffffffffffffffffe01682016040526108ec919081019061111b565b8686815181106108fe576108fe6110a3565b602002602001015160c00151602001819052505b6010871615610a88578173ffffffffffffffffffffffffffffffffffffffff166306fdde036040518163ffffffff1660e01b8152600401600060405180830381865afa158015610966573d6000803e3d6000fd5b505050506040513d6000823e601f3d9081017fffffffffffffffffffffffffffffffffffffffffffffffffffffffffffffffe01682016040526109ac919081019061111b565b8686815181106109be576109be6110a3565b602002602001015160a00151604001819052508073ffffffffffffffffffffffffffffffffffffffff166306fdde036040518163ffffffff1660e01b8152600401600060405180830381865afa158015610a1c573d6000803e3d6000fd5b505050506040513d6000823e601f3d9081017fffffffffffffffffffffffffffffffffffffffffffffffffffffffffffffffe0168201604052610a62919081019061111b565b868681518110610a7457610a746110a3565b602002602001015160c00151604001819052505b610100871615610bc3578173ffffffffffffffffffffffffffffffffffffffff1663313ce5676040518163ffffffff1660e01b8152600401602060405180830381865afa158015610add573d6000803e3d6000fd5b505050506040513d601f19601f82011682018060405250810190610b0191906111e6565b60ff16868681518110610b1657610b166110a3565b602002602001015160a0015160600181815250508073ffffffffffffffffffffffffffffffffffffffff1663313ce5676040518163ffffffff1660e01b8152600401602060405180830381865afa158015610b75573d6000803e3d6000fd5b505050506040513d601f19601f82011682018060405250810190610b9991906111e6565b60ff16868681518110610bae57610bae6110a3565b602002602001015160c0015160600181815250505b611000871615610cf8578173ffffffffffffffffffffffffffffffffffffffff166318160ddd6040518163ffffffff1660e01b8152600401602060405180830381865afa158015610c18573d6000803e3d6000fd5b505050506040513d601f19601f82011682018060405250810190610c3c9190611209565b868681518110610c4e57610c4e6110a3565b602002602001015160a0015160800181815250508073ffffffffffffffffffffffffffffffffffffffff166318160ddd6040518163ffffffff1660e01b8152600401602060405180830381865afa158015610cad573d6000803e3d6000fd5b505050506040513d601f19601f82011682018060405250810190610cd19190611209565b868681518110610ce357610ce36110a3565b602002602001015160c0015160800181815250505b5050505080610d06906112b2565b90506100b3565b509392505050565b6040518060e00160405280606081526020016060815260200160008152602001600073ffffffffffffffffffffffffffffffffffffffff16815260200160008152602001610da86040518060c00160405280600073ffffffffffffffffffffffffffffffffffffffff16815260200160608152602001606081526020016000815260200160008152602001600081525090565b8152602001610dfc6040518060c00160405280600073ffffffffffffffffffffffffffffffffffffffff16815260200160608152602001606081526020016000815260200160008152602001600081525090565b905290565b600080600060408486031215610e1657600080fd5b833567ffffffffffffffff80821115610e2e57600080fd5b818601915086601f830112610e4257600080fd5b813581811115610e5157600080fd5b8760208260051b8501011115610e6657600080fd5b6020928301989097509590910135949350505050565b60005b83811015610e97578181015183820152602001610e7f565b50506000910152565b60008151808452610eb8816020860160208601610e7c565b601f017fffffffffffffffffffffffffffffffffffffffffffffffffffffffffffffffe0169290920160200192915050565b73ffffffffffffffffffffffffffffffffffffffff81511682526000602082015160c06020850152610f1f60c0850182610ea0565b905060408301518482036040860152610f388282610ea0565b915050606083015160608501526080830151608085015260a083015160a08501528091505092915050565b60006020808301818452808551808352604092508286019150828160051b87010184880160005b83811015611066577fffffffffffffffffffffffffffffffffffffffffffffffffffffffffffffffc0898403018552815160e08151818652610fce82870182610ea0565b915050888201518582038a870152610fe68282610ea0565b9150508782015188860152606073ffffffffffffffffffffffffffffffffffffffff81840151168187015250608080830151818701525060a080830151868303828801526110348382610eea565b9250505060c080830151925085820381870152506110528183610eea565b968901969450505090860190600101610f8a565b509098975050505050505050565b7f4e487b7100000000000000000000000000000000000000000000000000000000600052604160045260246000fd5b7f4e487b7100000000000000000000000000000000000000000000000000000000600052603260045260246000fd5b73ffffffffffffffffffffffffffffffffffffffff811681146110f457600080fd5b50565b60006020828403121561110957600080fd5b8135611114816110d2565b9392505050565b60006020828403121561112d57600080fd5b815167ffffffffffffffff8082111561114557600080fd5b818401915084601f83011261115957600080fd5b81518181111561116b5761116b611074565b604051601f82017fffffffffffffffffffffffffffffffffffffffffffffffffffffffffffffffe0908116603f011681019083821181831017156111b1576111b1611074565b816040528281528760208487010111156111ca57600080fd5b6111db836020830160208801610e7c565b979650505050505050565b6000602082840312156111f857600080fd5b815160ff8116811461111457600080fd5b60006020828403121561121b57600080fd5b5051919050565b60006020828403121561123457600080fd5b8151611114816110d2565b80516dffffffffffffffffffffffffffff8116811461125d57600080fd5b919050565b60008060006060848603121561127757600080fd5b6112808461123f565b925061128e6020850161123f565b9150604084015163ffffffff811681146112a757600080fd5b809150509250925092565b60007fffffffffffffffffffffffffffffffffffffffffffffffffffffffffffffffff820361130a577f4e487b7100000000000000000000000000000000000000000000000000000000600052601160045260246000fd5b506001019056fea2646970667358221220f4c99913907f37889ebd34d69f462e8303b867519a3be392b8cf0701b4d80e7b64736f6c63430008140033",
  "linkReferences": {},
  "deployedLinkReferences": {}
}