{
  "_format": "hh-sol-artifact-1",
  "contractName": "PairDetailsV3",
  "sourceName": "contracts/PairDetailsV3.sol",
  "abi": [
    {
      "inputs": [
        {
          "internalType": "address[]",
          "name": "pairs",
          "type": "address[]"
        },
        {
          "internalType": "uint256",
          "name": "flags",
          "type": "uint256"
        }
      ],
      "name": "query",
      "outputs": [
        {
          "components": [
            {
              "internalType": "address",
              "name": "factory",
              "type": "address"
            },
            {
              "components": [
                {
                  "internalType": "address",
                  "name": "adr",
                  "type": "address"
                },
                {
                  "internalType": "string",
                  "name": "symbol",
                  "type": "string"
                },
                {
                  "internalType": "string",
                  "name": "name",
                  "type": "string"
                },
                {
                  "internalType": "uint256",
                  "name": "decimals",
                  "type": "uint256"
                },
                {
                  "internalType": "uint256",
                  "name": "totalSupply",
                  "type": "uint256"
                },
                {
                  "internalType": "uint256",
                  "name": "reserve",
                  "type": "uint256"
                }
              ],
              "internalType": "struct PairDetailsV3.Token",
              "name": "token0",
              "type": "tuple"
            },
            {
              "components": [
                {
                  "internalType": "address",
                  "name": "adr",
                  "type": "address"
                },
                {
                  "internalType": "string",
                  "name": "symbol",
                  "type": "string"
                },
                {
                  "internalType": "string",
                  "name": "name",
                  "type": "string"
                },
                {
                  "internalType": "uint256",
                  "name": "decimals",
                  "type": "uint256"
                },
                {
                  "internalType": "uint256",
                  "name": "totalSupply",
                  "type": "uint256"
                },
                {
                  "internalType": "uint256",
                  "name": "reserve",
                  "type": "uint256"
                }
              ],
              "internalType": "struct PairDetailsV3.Token",
              "name": "token1",
              "type": "tuple"
            }
          ],
          "internalType": "struct PairDetailsV3.PairDetail[]",
          "name": "details",
          "type": "tuple[]"
        }
      ],
      "stateMutability": "view",
      "type": "function"
    }
  ],
  "bytecode": "0x608060405234801561001057600080fd5b50610fda806100206000396000f3fe608060405234801561001057600080fd5b506004361061002b5760003560e01c8063de0c9b4914610030575b600080fd5b61004361003e366004610b47565b610059565b6040516100509190610cb5565b60405180910390f35b60608267ffffffffffffffff81111561007457610074610d7a565b6040519080825280602002602001820160405280156100ad57816020015b61009a610a77565b8152602001906001900390816100925790505b50905060005b83811015610a6f5760008585838181106100cf576100cf610da9565b90506020020160208101906100e49190610dfd565b90507d0100000000000000000000000000000000000000000000000000000000008416156101b3578073ffffffffffffffffffffffffffffffffffffffff1663c45a01556040518163ffffffff1660e01b8152600401602060405180830381865afa158015610157573d6000803e3d6000fd5b505050506040513d601f19601f8201168201806040525081019061017b9190610e21565b83838151811061018d5761018d610da9565b602090810291909101015173ffffffffffffffffffffffffffffffffffffffff90911690525b60008173ffffffffffffffffffffffffffffffffffffffff16630dfe16816040518163ffffffff1660e01b8152600401602060405180830381865afa158015610200573d6000803e3d6000fd5b505050506040513d601f19601f820116820180604052508101906102249190610e21565b84848151811061023657610236610da9565b6020026020010151602001516000019073ffffffffffffffffffffffffffffffffffffffff16908173ffffffffffffffffffffffffffffffffffffffff16815250905060008273ffffffffffffffffffffffffffffffffffffffff1663d21220a76040518163ffffffff1660e01b8152600401602060405180830381865afa1580156102c6573d6000803e3d6000fd5b505050506040513d601f19601f820116820180604052508101906102ea9190610e21565b8585815181106102fc576102fc610da9565b60209081029190910101516040015173ffffffffffffffffffffffffffffffffffffffff91821690819052915082166370a0823189898781811061034257610342610da9565b90506020020160208101906103579190610dfd565b6040517fffffffff0000000000000000000000000000000000000000000000000000000060e084901b16815273ffffffffffffffffffffffffffffffffffffffff9091166004820152602401602060405180830381865afa1580156103c0573d6000803e3d6000fd5b505050506040513d601f19601f820116820180604052508101906103e49190610e3e565b8585815181106103f6576103f6610da9565b60200260200101516020015160a00181815250508073ffffffffffffffffffffffffffffffffffffffff166370a0823189898781811061043857610438610da9565b905060200201602081019061044d9190610dfd565b6040517fffffffff0000000000000000000000000000000000000000000000000000000060e084901b16815273ffffffffffffffffffffffffffffffffffffffff9091166004820152602401602060405180830381865afa1580156104b6573d6000803e3d6000fd5b505050506040513d601f19601f820116820180604052508101906104da9190610e3e565b8585815181106104ec576104ec610da9565b60209081029190910101516040015160a001526001861615610675578173ffffffffffffffffffffffffffffffffffffffff166395d89b416040518163ffffffff1660e01b8152600401600060405180830381865afa158015610553573d6000803e3d6000fd5b505050506040513d6000823e601f3d9081017fffffffffffffffffffffffffffffffffffffffffffffffffffffffffffffffe01682016040526105999190810190610e57565b8585815181106105ab576105ab610da9565b602002602001015160200151602001819052508073ffffffffffffffffffffffffffffffffffffffff166395d89b416040518163ffffffff1660e01b8152600401600060405180830381865afa158015610609573d6000803e3d6000fd5b505050506040513d6000823e601f3d9081017fffffffffffffffffffffffffffffffffffffffffffffffffffffffffffffffe016820160405261064f9190810190610e57565b85858151811061066157610661610da9565b602002602001015160400151602001819052505b60108616156107eb578173ffffffffffffffffffffffffffffffffffffffff166306fdde036040518163ffffffff1660e01b8152600401600060405180830381865afa1580156106c9573d6000803e3d6000fd5b505050506040513d6000823e601f3d9081017fffffffffffffffffffffffffffffffffffffffffffffffffffffffffffffffe016820160405261070f9190810190610e57565b85858151811061072157610721610da9565b602002602001015160200151604001819052508073ffffffffffffffffffffffffffffffffffffffff166306fdde036040518163ffffffff1660e01b8152600401600060405180830381865afa15801561077f573d6000803e3d6000fd5b505050506040513d6000823e601f3d9081017fffffffffffffffffffffffffffffffffffffffffffffffffffffffffffffffe01682016040526107c59190810190610e57565b8585815181106107d7576107d7610da9565b602002602001015160400151604001819052505b610100861615610926578173ffffffffffffffffffffffffffffffffffffffff1663313ce5676040518163ffffffff1660e01b8152600401602060405180830381865afa158015610840573d6000803e3d6000fd5b505050506040513d601f19601f820116820180604052508101906108649190610f22565b60ff1685858151811061087957610879610da9565b60200260200101516020015160600181815250508073ffffffffffffffffffffffffffffffffffffffff1663313ce5676040518163ffffffff1660e01b8152600401602060405180830381865afa1580156108d8573d6000803e3d6000fd5b505050506040513d601f19601f820116820180604052508101906108fc9190610f22565b60ff1685858151811061091157610911610da9565b60200260200101516040015160600181815250505b611000861615610a5b578173ffffffffffffffffffffffffffffffffffffffff166318160ddd6040518163ffffffff1660e01b8152600401602060405180830381865afa15801561097b573d6000803e3d6000fd5b505050506040513d601f19601f8201168201806040525081019061099f9190610e3e565b8585815181106109b1576109b1610da9565b60200260200101516020015160800181815250508073ffffffffffffffffffffffffffffffffffffffff166318160ddd6040518163ffffffff1660e01b8152600401602060405180830381865afa158015610a10573d6000803e3d6000fd5b505050506040513d601f19601f82011682018060405250810190610a349190610e3e565b858581518110610a4657610a46610da9565b60200260200101516040015160800181815250505b50505080610a6890610f45565b90506100b3565b509392505050565b6040518060600160405280600073ffffffffffffffffffffffffffffffffffffffff168152602001610aee6040518060c00160405280600073ffffffffffffffffffffffffffffffffffffffff16815260200160608152602001606081526020016000815260200160008152602001600081525090565b8152602001610b426040518060c00160405280600073ffffffffffffffffffffffffffffffffffffffff16815260200160608152602001606081526020016000815260200160008152602001600081525090565b905290565b600080600060408486031215610b5c57600080fd5b833567ffffffffffffffff80821115610b7457600080fd5b818601915086601f830112610b8857600080fd5b813581811115610b9757600080fd5b8760208260051b8501011115610bac57600080fd5b6020928301989097509590910135949350505050565b60005b83811015610bdd578181015183820152602001610bc5565b83811115610bec576000848401525b50505050565b60008151808452610c0a816020860160208601610bc2565b601f017fffffffffffffffffffffffffffffffffffffffffffffffffffffffffffffffe0169290920160200192915050565b73ffffffffffffffffffffffffffffffffffffffff81511682526000602082015160c06020850152610c7160c0850182610bf2565b905060408301518482036040860152610c8a8282610bf2565b915050606083015160608501526080830151608085015260a083015160a08501528091505092915050565b60006020808301818452808551808352604092508286019150828160051b87010184880160005b83811015610d6c577fffffffffffffffffffffffffffffffffffffffffffffffffffffffffffffffc08984030185528151606073ffffffffffffffffffffffffffffffffffffffff825116855288820151818a870152610d3e82870182610c3c565b91505087820151915084810388860152610d588183610c3c565b968901969450505090860190600101610cdc565b509098975050505050505050565b7f4e487b7100000000000000000000000000000000000000000000000000000000600052604160045260246000fd5b7f4e487b7100000000000000000000000000000000000000000000000000000000600052603260045260246000fd5b73ffffffffffffffffffffffffffffffffffffffff81168114610dfa57600080fd5b50565b600060208284031215610e0f57600080fd5b8135610e1a81610dd8565b9392505050565b600060208284031215610e3357600080fd5b8151610e1a81610dd8565b600060208284031215610e5057600080fd5b5051919050565b600060208284031215610e6957600080fd5b815167ffffffffffffffff80821115610e8157600080fd5b818401915084601f830112610e9557600080fd5b815181811115610ea757610ea7610d7a565b604051601f82017fffffffffffffffffffffffffffffffffffffffffffffffffffffffffffffffe0908116603f01168101908382118183101715610eed57610eed610d7a565b81604052828152876020848701011115610f0657600080fd5b610f17836020830160208801610bc2565b979650505050505050565b600060208284031215610f3457600080fd5b815160ff81168114610e1a57600080fd5b60007fffffffffffffffffffffffffffffffffffffffffffffffffffffffffffffffff8203610f9d577f4e487b7100000000000000000000000000000000000000000000000000000000600052601160045260246000fd5b506001019056fea264697066735822122049683e936cf2d447fa2bf359076759254a3ae4f188f1729563c74ac1f1e2894f64736f6c634300080d0033",
  "linkReferences": {},
  "deployedLinkReferences": {}
}