{
  "_format": "hh-sol-artifact-1",
  "contractName": "View",
  "sourceName": "contracts/support/View.sol",
  "abi": [
    {
      "inputs": [
        {
          "internalType": "address",
          "name": "token",
          "type": "address"
        },
        {
          "internalType": "address",
          "name": "feeTo",
          "type": "address"
        },
        {
          "internalType": "uint256",
          "name": "feeRate",
          "type": "uint256"
        }
      ],
      "stateMutability": "nonpayable",
      "type": "constructor"
    },
    {
      "inputs": [],
      "name": "T",
      "type": "error"
    },
    {
      "anonymous": false,
      "inputs": [
        {
          "indexed": true,
          "internalType": "address",
          "name": "payer",
          "type": "address"
        },
        {
          "indexed": true,
          "internalType": "address",
          "name": "recipient",
          "type": "address"
        },
        {
          "indexed": true,
          "internalType": "uint256",
          "name": "sideMax",
          "type": "uint256"
        },
        {
          "indexed": false,
          "internalType": "uint256",
          "name": "sideIn",
          "type": "uint256"
        },
        {
          "indexed": false,
          "internalType": "uint256",
          "name": "sideOut",
          "type": "uint256"
        },
        {
          "indexed": false,
          "internalType": "uint256",
          "name": "maturity",
          "type": "uint256"
        },
        {
          "indexed": false,
          "internalType": "uint256",
          "name": "amountIn",
          "type": "uint256"
        },
        {
          "indexed": false,
          "internalType": "uint256",
          "name": "amountOut",
          "type": "uint256"
        },
        {
          "indexed": false,
          "internalType": "uint256",
          "name": "price",
          "type": "uint256"
        }
      ],
      "name": "Swap",
      "type": "event"
    },
    {
      "inputs": [
        {
          "internalType": "address",
          "name": "TOKEN",
          "type": "address"
        },
        {
          "internalType": "uint256",
          "name": "FEE_RATE",
          "type": "uint256"
        },
        {
          "internalType": "uint256",
          "name": "twap",
          "type": "uint256"
        },
        {
          "internalType": "uint256",
          "name": "spot",
          "type": "uint256"
        }
      ],
      "name": "compute",
      "outputs": [
        {
          "components": [
            {
              "components": [
                {
                  "internalType": "address",
                  "name": "FETCHER",
                  "type": "address"
                },
                {
                  "internalType": "bytes32",
                  "name": "ORACLE",
                  "type": "bytes32"
                },
                {
                  "internalType": "address",
                  "name": "TOKEN_R",
                  "type": "address"
                },
                {
                  "internalType": "uint256",
                  "name": "K",
                  "type": "uint256"
                },
                {
                  "internalType": "uint256",
                  "name": "MARK",
                  "type": "uint256"
                },
                {
                  "internalType": "uint256",
                  "name": "INTEREST_HL",
                  "type": "uint256"
                },
                {
                  "internalType": "uint256",
                  "name": "PREMIUM_HL",
                  "type": "uint256"
                },
                {
                  "internalType": "uint256",
                  "name": "MATURITY",
                  "type": "uint256"
                },
                {
                  "internalType": "uint256",
                  "name": "MATURITY_VEST",
                  "type": "uint256"
                },
                {
                  "internalType": "uint256",
                  "name": "MATURITY_RATE",
                  "type": "uint256"
                },
                {
                  "internalType": "uint256",
                  "name": "OPEN_RATE",
                  "type": "uint256"
                }
              ],
              "internalType": "struct Config",
              "name": "config",
              "type": "tuple"
            },
            {
              "components": [
                {
                  "internalType": "uint256",
                  "name": "R",
                  "type": "uint256"
                },
                {
                  "internalType": "uint256",
                  "name": "a",
                  "type": "uint256"
                },
                {
                  "internalType": "uint256",
                  "name": "b",
                  "type": "uint256"
                }
              ],
              "internalType": "struct State",
              "name": "state",
              "type": "tuple"
            },
            {
              "internalType": "uint256",
              "name": "sA",
              "type": "uint256"
            },
            {
              "internalType": "uint256",
              "name": "sB",
              "type": "uint256"
            },
            {
              "internalType": "uint256",
              "name": "sC",
              "type": "uint256"
            },
            {
              "internalType": "uint256",
              "name": "rA",
              "type": "uint256"
            },
            {
              "internalType": "uint256",
              "name": "rB",
              "type": "uint256"
            },
            {
              "internalType": "uint256",
              "name": "rC",
              "type": "uint256"
            },
            {
              "internalType": "uint256",
              "name": "twap",
              "type": "uint256"
            },
            {
              "internalType": "uint256",
              "name": "spot",
              "type": "uint256"
            }
          ],
          "internalType": "struct View.StateView",
          "name": "stateView",
          "type": "tuple"
        }
      ],
      "stateMutability": "nonpayable",
      "type": "function"
    },
    {
      "inputs": [],
      "name": "ensureStateIntegrity",
      "outputs": [],
      "stateMutability": "view",
      "type": "function"
    },
    {
      "inputs": [
        {
          "internalType": "uint256",
          "name": "ORACLE",
          "type": "uint256"
        }
      ],
      "name": "fetch",
      "outputs": [
        {
          "internalType": "uint256",
          "name": "twap",
          "type": "uint256"
        },
        {
          "internalType": "uint256",
          "name": "spot",
          "type": "uint256"
        }
      ],
      "stateMutability": "view",
      "type": "function"
    },
    {
      "inputs": [],
      "name": "getStates",
      "outputs": [
        {
          "internalType": "uint256",
          "name": "R",
          "type": "uint256"
        },
        {
          "internalType": "uint256",
          "name": "a",
          "type": "uint256"
        },
        {
          "internalType": "uint256",
          "name": "b",
          "type": "uint256"
        },
        {
          "internalType": "uint32",
          "name": "i",
          "type": "uint32"
        },
        {
          "internalType": "uint32",
          "name": "f",
          "type": "uint32"
        }
      ],
      "stateMutability": "view",
      "type": "function"
    },
    {
      "inputs": [
        {
          "components": [
            {
              "internalType": "uint256",
              "name": "R",
              "type": "uint256"
            },
            {
              "internalType": "uint256",
              "name": "a",
              "type": "uint256"
            },
            {
              "internalType": "uint256",
              "name": "b",
              "type": "uint256"
            }
          ],
          "internalType": "struct State",
          "name": "state",
          "type": "tuple"
        },
        {
          "components": [
            {
              "internalType": "address",
              "name": "utr",
              "type": "address"
            },
            {
              "internalType": "bytes",
              "name": "payer",
              "type": "bytes"
            },
            {
              "internalType": "address",
              "name": "recipient",
              "type": "address"
            }
          ],
          "internalType": "struct Payment",
          "name": "payment",
          "type": "tuple"
        }
      ],
      "name": "init",
      "outputs": [],
      "stateMutability": "nonpayable",
      "type": "function"
    },
    {
      "inputs": [],
      "name": "loadConfig",
      "outputs": [
        {
          "components": [
            {
              "internalType": "address",
              "name": "FETCHER",
              "type": "address"
            },
            {
              "internalType": "bytes32",
              "name": "ORACLE",
              "type": "bytes32"
            },
            {
              "internalType": "address",
              "name": "TOKEN_R",
              "type": "address"
            },
            {
              "internalType": "uint256",
              "name": "K",
              "type": "uint256"
            },
            {
              "internalType": "uint256",
              "name": "MARK",
              "type": "uint256"
            },
            {
              "internalType": "uint256",
              "name": "INTEREST_HL",
              "type": "uint256"
            },
            {
              "internalType": "uint256",
              "name": "PREMIUM_HL",
              "type": "uint256"
            },
            {
              "internalType": "uint256",
              "name": "MATURITY",
              "type": "uint256"
            },
            {
              "internalType": "uint256",
              "name": "MATURITY_VEST",
              "type": "uint256"
            },
            {
              "internalType": "uint256",
              "name": "MATURITY_RATE",
              "type": "uint256"
            },
            {
              "internalType": "uint256",
              "name": "OPEN_RATE",
              "type": "uint256"
            }
          ],
          "internalType": "struct Config",
          "name": "config",
          "type": "tuple"
        }
      ],
      "stateMutability": "pure",
      "type": "function"
    },
    {
      "inputs": [
        {
          "internalType": "address",
          "name": "",
          "type": "address"
        },
        {
          "internalType": "address",
          "name": "",
          "type": "address"
        },
        {
          "internalType": "uint256[]",
          "name": "",
          "type": "uint256[]"
        },
        {
          "internalType": "uint256[]",
          "name": "",
          "type": "uint256[]"
        },
        {
          "internalType": "bytes",
          "name": "",
          "type": "bytes"
        }
      ],
      "name": "onERC1155BatchReceived",
      "outputs": [
        {
          "internalType": "bytes4",
          "name": "",
          "type": "bytes4"
        }
      ],
      "stateMutability": "nonpayable",
      "type": "function"
    },
    {
      "inputs": [
        {
          "internalType": "address",
          "name": "",
          "type": "address"
        },
        {
          "internalType": "address",
          "name": "",
          "type": "address"
        },
        {
          "internalType": "uint256",
          "name": "",
          "type": "uint256"
        },
        {
          "internalType": "uint256",
          "name": "",
          "type": "uint256"
        },
        {
          "internalType": "bytes",
          "name": "",
          "type": "bytes"
        }
      ],
      "name": "onERC1155Received",
      "outputs": [
        {
          "internalType": "bytes4",
          "name": "",
          "type": "bytes4"
        }
      ],
      "stateMutability": "nonpayable",
      "type": "function"
    },
    {
      "inputs": [
        {
          "internalType": "bytes4",
          "name": "interfaceId",
          "type": "bytes4"
        }
      ],
      "name": "supportsInterface",
      "outputs": [
        {
          "internalType": "bool",
          "name": "",
          "type": "bool"
        }
      ],
      "stateMutability": "view",
      "type": "function"
    },
    {
      "inputs": [
        {
          "components": [
            {
              "internalType": "uint256",
              "name": "sideIn",
              "type": "uint256"
            },
            {
              "internalType": "uint256",
              "name": "sideOut",
              "type": "uint256"
            },
            {
              "internalType": "address",
              "name": "helper",
              "type": "address"
            },
            {
              "internalType": "bytes",
              "name": "payload",
              "type": "bytes"
            }
          ],
          "internalType": "struct Param",
          "name": "param",
          "type": "tuple"
        },
        {
          "components": [
            {
              "internalType": "address",
              "name": "utr",
              "type": "address"
            },
            {
              "internalType": "bytes",
              "name": "payer",
              "type": "bytes"
            },
            {
              "internalType": "address",
              "name": "recipient",
              "type": "address"
            }
          ],
          "internalType": "struct Payment",
          "name": "payment",
          "type": "tuple"
        }
      ],
      "name": "swap",
      "outputs": [
        {
          "internalType": "uint256",
          "name": "amountIn",
          "type": "uint256"
        },
        {
          "internalType": "uint256",
          "name": "amountOut",
          "type": "uint256"
        },
        {
          "internalType": "uint256",
          "name": "price",
          "type": "uint256"
        }
      ],
      "stateMutability": "nonpayable",
      "type": "function"
    }
  ],
  "bytecode": "0x60e06040523480156200001157600080fd5b50604051620058933803806200589383398101604081905262000034916200012b565b828282826001600160a01b038116620000945760405162461bcd60e51b815260206004820152601660248201527f506f6f6c426173653a205a45524f5f414444524553530000000000000000000060448201526064015b60405180910390fd5b6001600160a01b039081166080528216620000f25760405162461bcd60e51b815260206004820152601760248201527f506f6f6c4c6f6769633a205a45524f5f4144445245535300000000000000000060448201526064016200008b565b6001600160a01b0390911660a05260c052506200016c92505050565b80516001600160a01b03811681146200012657600080fd5b919050565b6000806000606084860312156200014157600080fd5b6200014c846200010e565b92506200015c602085016200010e565b9150604084015190509250925092565b60805160a05160c05161569c620001f76000396000818161208a01526120b2015260006120fc0152600081816107970152818161085a0152818161091b01528181610a4901528181610b6b01528181610c2a01528181610cd601528181610d9501528181610ed80152818161180c015281816118da0152818161193a0152613b5c015261569c6000f3fe608060405234801561001057600080fd5b50600436106100be5760003560e01c8063d8ab827411610076578063eb7e50dd1161005b578063eb7e50dd1461020d578063ed57620414610215578063f23a6e611461023557600080fd5b8063d8ab8274146101bf578063dc1a6f33146101f857600080fd5b80632b2f2913116100a75780632b2f2913146101005780637a33e3b01461012e578063bc197c811461015657600080fd5b806301ffc9a7146100c357806322d65951146100eb575b600080fd5b6100d66100d1366004614878565b61026d565b60405190151581526020015b60405180910390f35b6100f3610306565b6040516100e2919061495a565b61011361010e366004614b75565b6103d5565b604080519384526020840192909252908201526060016100e2565b61014161013c366004614c2e565b611004565b604080519283526020830191909152016100e2565b61018e610164366004614cd6565b7fbc197c810000000000000000000000000000000000000000000000000000000095945050505050565b6040517fffffffff0000000000000000000000000000000000000000000000000000000090911681526020016100e2565b6101c7611181565b6040805195865260208601949094529284019190915263ffffffff908116606084015216608082015260a0016100e2565b61020b610206366004614d84565b611277565b005b61020b611a3c565b610228610223366004614df1565b611abf565b6040516100e29190614e2c565b61018e610243366004614ec1565b7ff23a6e610000000000000000000000000000000000000000000000000000000095945050505050565b60007fffffffff0000000000000000000000000000000000000000000000000000000082167f4e2312e000000000000000000000000000000000000000000000000000000000148061030057507f01ffc9a7000000000000000000000000000000000000000000000000000000007fffffffff000000000000000000000000000000000000000000000000000000008316145b92915050565b610392604051806101600160405280600073ffffffffffffffffffffffffffffffffffffffff16815260200160008019168152602001600073ffffffffffffffffffffffffffffffffffffffff16815260200160008152602001600081526020016000815260200160008152602001600081526020016000815260200160008152602001600081525090565b6060602036038035808203915060405192506020810183016040528083526020830181838237505050808060200190518101906103cf9190614f3a565b91505090565b60008060006103e2611a3c565b600180547fffffffffffffffffffffffffffffffffffffffffffffffffffffffff00000000811663ffffffff90911617811790556000610420610306565b9050600061042e8288611c7c565b8051602082015160408301518a519298509096509450909150600090610745576020870151511561072e578660200151516014036104f55761047587602001516000612930565b604080850151815173ffffffffffffffffffffffffffffffffffffffff808516602083015230938201939093526014606082015291166080820152600060a082015290915060c001604080517fffffffffffffffffffffffffffffffffffffffffffffffffffffffffffffffe081840301815291905260208801526104f8565b50325b60408084015190517f70a0823100000000000000000000000000000000000000000000000000000000815230600482015260009173ffffffffffffffffffffffffffffffffffffffff16906370a0823190602401602060405180830381865afa158015610569573d6000803e3d6000fd5b505050506040513d601f19601f8201168201806040525081019061058d9190614fdb565b6105979088615023565b885160208a01516040517f715ef7f900000000000000000000000000000000000000000000000000000000815292935073ffffffffffffffffffffffffffffffffffffffff9091169163715ef7f9916105f4918b906004016150a4565b600060405180830381600087803b15801561060e57600080fd5b505af1158015610622573d6000803e3d6000fd5b50505060408086015190517f70a0823100000000000000000000000000000000000000000000000000000000815230600482015273ffffffffffffffffffffffffffffffffffffffff90911691506370a0823190602401602060405180830381865afa158015610696573d6000803e3d6000fd5b505050506040513d601f19601f820116820180604052508101906106ba9190614fdb565b811115610728576040517f08c379a000000000000000000000000000000000000000000000000000000000815260206004820152601e60248201527f506f6f6c426173653a20494e53554646494349454e545f5041594d454e54000060448201526064015b60405180910390fd5b50610e1a565b61073e83604001513330896129c0565b5033610e1a565b875160009060a01b301790506000808960200151511115610ca1576040517efdd58e000000000000000000000000000000000000000000000000000000008152306004820152602481018390526000907f000000000000000000000000000000000000000000000000000000000000000073ffffffffffffffffffffffffffffffffffffffff169062fdd58e90604401602060405180830381865afa1580156107f2573d6000803e3d6000fd5b505050506040513d601f19601f820116820180604052508101906108169190614fdb565b905080156108cc576040517ff5298aca00000000000000000000000000000000000000000000000000000000815230600482015260248101849052604481018290527f000000000000000000000000000000000000000000000000000000000000000073ffffffffffffffffffffffffffffffffffffffff169063f5298aca90606401600060405180830381600087803b1580156108b357600080fd5b505af11580156108c7573d6000803e3d6000fd5b505050505b896020015151601403610987576108e88a602001516000612930565b6040805173ffffffffffffffffffffffffffffffffffffffff8381166020830152309282019290925261048360608201527f0000000000000000000000000000000000000000000000000000000000000000909116608082015260a0810185905290945060c001604080517fffffffffffffffffffffffffffffffffffffffffffffffffffffffffffffffe081840301815291905260208b015261098b565b3293505b895160208b01516040517f715ef7f900000000000000000000000000000000000000000000000000000000815273ffffffffffffffffffffffffffffffffffffffff9092169163715ef7f9916109e5918d906004016150a4565b600060405180830381600087803b1580156109ff57600080fd5b505af1158015610a13573d6000803e3d6000fd5b50506040517efdd58e000000000000000000000000000000000000000000000000000000008152306004820152602481018690527f000000000000000000000000000000000000000000000000000000000000000073ffffffffffffffffffffffffffffffffffffffff16925062fdd58e9150604401602060405180830381865afa158015610aa6573d6000803e3d6000fd5b505050506040513d601f19601f82011682018060405250810190610aca9190614fdb565b905080891115610b36576040517f08c379a000000000000000000000000000000000000000000000000000000000815260206004820152601e60248201527f506f6f6c426173653a20494e53554646494349454e545f5041594d454e540000604482015260640161071f565b6040517fcb263dc6000000000000000000000000000000000000000000000000000000008152306004820152602481018490527f000000000000000000000000000000000000000000000000000000000000000073ffffffffffffffffffffffffffffffffffffffff169063cb263dc690604401602060405180830381865afa158015610bc7573d6000803e3d6000fd5b505050506040513d601f19601f82011682018060405250810190610beb9190614fdb565b6040517ff5298aca00000000000000000000000000000000000000000000000000000000815230600482015260248101859052604481018390529092507f000000000000000000000000000000000000000000000000000000000000000073ffffffffffffffffffffffffffffffffffffffff169063f5298aca90606401600060405180830381600087803b158015610c8357600080fd5b505af1158015610c97573d6000803e3d6000fd5b5050505050610e0a565b6040517fcb263dc6000000000000000000000000000000000000000000000000000000008152336004820152602481018390527f000000000000000000000000000000000000000000000000000000000000000073ffffffffffffffffffffffffffffffffffffffff169063cb263dc690604401602060405180830381865afa158015610d32573d6000803e3d6000fd5b505050506040513d601f19601f82011682018060405250810190610d569190614fdb565b6040517ff5298aca00000000000000000000000000000000000000000000000000000000815233600482015260248101849052604481018a90529091507f000000000000000000000000000000000000000000000000000000000000000073ffffffffffffffffffffffffffffffffffffffff169063f5298aca90606401600060405180830381600087803b158015610dee57600080fd5b505af1158015610e02573d6000803e3d6000fd5b505050503392505b610e15858289612b5f565b965050505b6020880151600090610e3e57610e398460400151896040015188612be7565b610f36565b602089015160009060a01b301790508460e001514263ffffffff16610e639190615023565b60408a81015190517f3c8cb4ef00000000000000000000000000000000000000000000000000000000815273ffffffffffffffffffffffffffffffffffffffff918216600482015260248101849052604481018a905263ffffffff8316606482015260a06084820152600060a48201529193507f00000000000000000000000000000000000000000000000000000000000000001690633c8cb4ef9060c401600060405180830381600087803b158015610f1c57600080fd5b505af1158015610f30573d6000803e3d6000fd5b50505050505b610f4889600001518a60200151612d7d565b6040808a01518b516020808e0151845192835290820152918201849052606082018a90526080820189905260a0820188905273ffffffffffffffffffffffffffffffffffffffff90811691908516907f2ad8739d64c070ab4ae9d9c0743d56550b22c3c8c96e7a6045fac37b5b8e89e39060c00160405180910390a45050600180547fffffffffffffffffffffffffffffffffffffffffffffffffffffffff00000000811663fffffffe90911617905550929591945092509050565b600080600083905060008173ffffffffffffffffffffffffffffffffffffffff16633850c7bd6040518163ffffffff1660e01b815260040160e060405180830381865afa158015611059573d6000803e3d6000fd5b505050506040513d601f19601f8201168201806040525081019061107d91906150e8565b505050505050905060006110958360c088901c612d93565b50905060006110a382613057565b73ffffffffffffffffffffffffffffffffffffffff16905060208373ffffffffffffffffffffffffffffffffffffffff16901b73ffffffffffffffffffffffffffffffffffffffff169450602081901b95507f8000000000000000000000000000000000000000000000000000000000000000871660000361117857611149857fffffffffffffffffffffffffffffffffffffffffffffffffffffffffffffffff6151b1565b9450611175867fffffffffffffffffffffffffffffffffffffffffffffffffffffffffffffffff6151b1565b95505b50505050915091565b600080600080600080611192610306565b60408082015190517f70a0823100000000000000000000000000000000000000000000000000000000815230600482015291925073ffffffffffffffffffffffffffffffffffffffff16906370a0823190602401602060405180830381865afa158015611203573d6000803e3d6000fd5b505050506040513d601f19601f820116820180604052508101906112279190614fdb565b60005460015491987bffffffffffffffffffffffffffffffffffffffffffffffffffffffff64010000000080840482169a50840416975063ffffffff909116955063fffffffe9091169350915050565b60005463ffffffff16156112e7576040517f08c379a000000000000000000000000000000000000000000000000000000000815260206004820152601d60248201527f506f6f6c426173653a20414c52454144595f494e495449414c495a4544000000604482015260640161071f565b81516020830151604084015182158015906113025750600082115b801561130e5750600081115b611374576040517f08c379a000000000000000000000000000000000000000000000000000000000815260206004820152601460248201527f506f6f6c426173653a205a45524f5f504152414d000000000000000000000000604482015260640161071f565b600183901c821115801561138c5750600183901c8111155b6113f2576040517f08c379a000000000000000000000000000000000000000000000000000000000815260206004820152601760248201527f506f6f6c426173653a20494e56414c49445f504152414d000000000000000000604482015260640161071f565b4263ffffffff81166401000000007bffffffffffffffffffffffffffffffffffffffffffffffffffffffff858116820292909217600090815563fffffffe9093169184160217600155611443610306565b6020860151519091501561171c5760408082015190517f70a0823100000000000000000000000000000000000000000000000000000000815230600482015260009173ffffffffffffffffffffffffffffffffffffffff16906370a0823190602401602060405180830381865afa1580156114c2573d6000803e3d6000fd5b505050506040513d601f19601f820116820180604052508101906114e69190614fdb565b6114f09086615023565b905085602001515160140361158d57600061151087602001516000612930565b604080850151815173ffffffffffffffffffffffffffffffffffffffff808516602083015230938201939093526014606082015291166080820152600060a082015290915060c001604080517fffffffffffffffffffffffffffffffffffffffffffffffffffffffffffffffe08184030181529190526020880152505b855160208701516040517f715ef7f900000000000000000000000000000000000000000000000000000000815273ffffffffffffffffffffffffffffffffffffffff9092169163715ef7f9916115e79189906004016150a4565b600060405180830381600087803b15801561160157600080fd5b505af1158015611615573d6000803e3d6000fd5b50505060408084015190517f70a0823100000000000000000000000000000000000000000000000000000000815230600482015273ffffffffffffffffffffffffffffffffffffffff90911691506370a0823190602401602060405180830381865afa158015611689573d6000803e3d6000fd5b505050506040513d601f19601f820116820180604052508101906116ad9190614fdb565b811115611716576040517f08c379a000000000000000000000000000000000000000000000000000000000815260206004820152601e60248201527f506f6f6c426173653a20494e53554646494349454e545f5041594d454e540000604482015260640161071f565b5061172c565b61172c81604001513330876129c0565b307410000000000000000000000000000000000000000081179074200000000000000000000000000000000000000000811790743000000000000000000000000000000000000000001760006117836003896151b1565b905060008560e00151426117979190615023565b60408b81015190517f3c8cb4ef00000000000000000000000000000000000000000000000000000000815273ffffffffffffffffffffffffffffffffffffffff9182166004820152602481018890526044810185905263ffffffff8316606482015260a06084820152600060a48201529192507f00000000000000000000000000000000000000000000000000000000000000001690633c8cb4ef9060c401600060405180830381600087803b15801561185057600080fd5b505af1158015611864573d6000803e3d6000fd5b5050505060408a81015190517f3c8cb4ef00000000000000000000000000000000000000000000000000000000815273ffffffffffffffffffffffffffffffffffffffff9182166004820152602481018690526044810184905263ffffffff8316606482015260a06084820152600060a48201527f000000000000000000000000000000000000000000000000000000000000000090911690633c8cb4ef9060c401600060405180830381600087803b15801561192057600080fd5b505af1158015611934573d6000803e3d6000fd5b505050507f000000000000000000000000000000000000000000000000000000000000000073ffffffffffffffffffffffffffffffffffffffff16633c8cb4ef8b6040015185600186901b8d61198a91906151c5565b6040517fffffffff0000000000000000000000000000000000000000000000000000000060e086901b16815273ffffffffffffffffffffffffffffffffffffffff90931660048401526024830191909152604482015263ffffffff8416606482015260a06084820152600060a482015260c401600060405180830381600087803b158015611a1757600080fd5b505af1158015611a2b573d6000803e3d6000fd5b505050505050505050505050505050565b6001805463ffffffff81169116158015611a565750600081115b611abc576040517f08c379a000000000000000000000000000000000000000000000000000000000815260206004820152601960248201527f506f6f6c426173653a2053544154455f494e5445475249545900000000000000604482015260640161071f565b50565b611ac7614779565b6000611ad1610306565b905060006040518060600160405280611aed84604001516133be565b81526000547bffffffffffffffffffffffffffffffffffffffffffffffffffffffff64010000000091829004811660208401526001549190910416604090910152905084158015611b3c575083155b15611b585781516020830151611b529190613450565b90955093505b600080611b6e611b688589613517565b84613546565b91509150600080611b88611b82878a613517565b86613546565b915091506000611b9f8b88886000015188886135a0565b88519197509550909150611bb8908c90899086866135a0565b91885293509150611bc9858461384c565b60a0890152611bd8848361384c565b60c0890152611c1384611beb87846151c5565b611bf591906151c5565b87518490611c049087906151c5565b611c0e91906151c5565b61384c565b60e08901528551811015611c25578086525b611c308c601061385b565b6040890152611c408c602061385b565b6060890152611c508c603061385b565b608089015250505050610100840195909552610120830193909352815260208101919091529392505050565b611ca060405180606001604052806000815260200160008152602001600081525090565b81516020830151808203611d10576040517f08c379a000000000000000000000000000000000000000000000000000000000815260206004820152601460248201527f506f6f6c4c6f6769633a2053414d455f53494445000000000000000000000000604482015260640161071f565b811580611d1d5750601082145b80611d285750602082145b80611d335750603082145b611d99576040517f08c379a000000000000000000000000000000000000000000000000000000000815260206004820152601a60248201527f506f6f6c4c6f6769633a20494e56414c49445f534944455f494e000000000000604482015260640161071f565b801580611da65750601081145b80611db15750602081145b80611dbc5750603081145b611e22576040517f08c379a000000000000000000000000000000000000000000000000000000000815260206004820152601b60248201527f506f6f6c4c6f6769633a20494e56414c49445f534944455f4f55540000000000604482015260640161071f565b60006040518060600160405280611e3c88604001516133be565b8152600080547bffffffffffffffffffffffffffffffffffffffffffffffffffffffff640100000000918290048116602085015260015491909104166040909201919091529091508080611e92898588886138f2565b60408b0152865160a08d015193965091945092508390038290039015611f525760005463ffffffff9081164203168015611f50576000611ed6828d60a001516139ca565b90506000611eee8683680100000000000000006139f7565b90506000611f068684680100000000000000006139f7565b90508082018688011115611f4c57600080547fffffffffffffffffffffffffffffffffffffffffffffffffffffffff00000000164263ffffffff16179055909550935084845b5050505b505b60008a60c00151118015611f665750818314155b1561208857845160015463fffffffe908116429091160363ffffffff1680156120855760008085871115611fae5750848603611fa58487838203613a55565b87039150611fc4565b50858503611fbf8488838203613a55565b860391505b6000611fd58f60c0015184846139f7565b9050611fe2600182612d7d565b90506000611ff085836139ca565b90506120068482680100000000000000006139f7565b808503941461208057878911156120325761202484898b8903613a55565b880197508389039850612049565b61203f848a8a8903613a55565b8901985083880397505b6001805463ffffffff8082168801167fffffffffffffffffffffffffffffffffffffffffffffffffffffffff000000009091161790555b505050505b50505b7f00000000000000000000000000000000000000000000000000000000000000001561212b5760007f00000000000000000000000000000000000000000000000000000000000000008284868960000151030303816120e9576120e9615182565b0490508015612129576121218b604001517f000000000000000000000000000000000000000000000000000000000000000083612be7565b855181900386525b505b50600182101561213a57600191505b6001811015612147575060015b6000886040015173ffffffffffffffffffffffffffffffffffffffff1663dc0192e8604051806080016040528087815260200188600001518152602001868152602001858152508b606001516040518363ffffffff1660e01b81526004016121b09291906151d8565b606060405180830381865afa1580156121cd573d6000803e3d6000fd5b505050506040513d601f19601f820116820180604052508101906121f19190615218565b90507bffffffffffffffffffffffffffffffffffffffffffffffffffffffff80168160200151111561227f576040517f08c379a000000000000000000000000000000000000000000000000000000000815260206004820152601c60248201527f506f6f6c4c6f6769633a205354415445315f4f564552464c4f575f4100000000604482015260640161071f565b60408101517bffffffffffffffffffffffffffffffffffffffffffffffffffffffff1015612309576040517f08c379a000000000000000000000000000000000000000000000000000000000815260206004820152601c60248201527f506f6f6c4c6f6769633a205354415445315f4f564552464c4f575f4200000000604482015260640161071f565b6000806123168684613546565b9092509050886123ab578482101580156123305750838110155b612396576040517f08c379a000000000000000000000000000000000000000000000000000000000815260206004820152601b60248201527f506f6f6c4c6f6769633a20494e56414c49445f5354415445315f520000000000604482015260640161071f565b865183516123a491906151c5565b8a52612669565b825187511015612417576040517f08c379a000000000000000000000000000000000000000000000000000000000815260206004820152601c60248201527f506f6f6c4c6f6769633a20494e56414c49445f5354415445315f4e5200000000604482015260640161071f565b60006124228a613b25565b905060108a036124b15784821015612496576040517f08c379a000000000000000000000000000000000000000000000000000000000815260206004820152601b60248201527f506f6f6c4c6f6769633a20494e56414c49445f5354415445315f410000000000604482015260640161071f565b6124aa816124a485896151c5565b886139f7565b8b526125f8565b8583101561251b576040517f08c379a000000000000000000000000000000000000000000000000000000000815260206004820152601c60248201527f506f6f6c4c6f6769633a20494e56414c49445f5354415445315f4e4100000000604482015260640161071f565b60208a03612537576124aa8161253184886151c5565b876139f7565b848210156125a1576040517f08c379a000000000000000000000000000000000000000000000000000000000815260206004820152601c60248201527f506f6f6c4c6f6769633a20494e56414c49445f5354415445315f4e4200000000604482015260640161071f565b600085878a600001516125b491906151c5565b6125be91906151c5565b90506000838587600001516125d391906151c5565b6125dd91906151c5565b90506125f3836125ed83856151c5565b846139f7565b8d5250505b8a5181036103e81115612667576040517f08c379a000000000000000000000000000000000000000000000000000000000815260206004820152601960248201527f506f6f6c4c6f6769633a204d494e494d554d5f535550504c5900000000000000604482015260640161071f565b505b87612686578251875161267c91906151c5565b60208b01526128ce565b60308803612761576000848689600001516126a191906151c5565b6126ab91906151c5565b90506000828486600001516126c091906151c5565b6126ca91906151c5565b90506103e8811015612738576040517f08c379a000000000000000000000000000000000000000000000000000000000815260206004820152601c60248201527f506f6f6c4c6f6769633a204d494e494d554d5f524553455256455f4300000000604482015260640161071f565b6127546127448b613b25565b61274e84846151c5565b84613a55565b60208d0152506128ce9050565b601088036127fb576103e88210156127d5576040517f08c379a000000000000000000000000000000000000000000000000000000000815260206004820152601c60248201527f506f6f6c4c6f6769633a204d494e494d554d5f524553455256455f4100000000604482015260640161071f565b6127f16127e189613b25565b6127eb87856151c5565b87613a55565b60208b0152612889565b6103e8811015612867576040517f08c379a000000000000000000000000000000000000000000000000000000000815260206004820152601c60248201527f506f6f6c4c6f6769633a204d494e494d554d5f524553455256455f4200000000604482015260640161071f565b61288361287389613b25565b61287d86846151c5565b86613a55565b60208b01525b7001000000000000000000000000000000008c6101400151146128ce576128cb8a600001517001000000000000000000000000000000008e6101400151613a55565b8a525b505060208101516000805463ffffffff9081166401000000007bffffffffffffffffffffffffffffffffffffffffffffffffffffffff948516810291909117909255604090930151600180549094169216021790555094979650505050505050565b600061293d826014615023565b835110156129a7576040517f08c379a000000000000000000000000000000000000000000000000000000000815260206004820152601560248201527f746f416464726573735f6f75744f66426f756e64730000000000000000000000604482015260640161071f565b5001602001516c01000000000000000000000000900490565b6040805173ffffffffffffffffffffffffffffffffffffffff85811660248301528481166044830152606480830185905283518084039091018152608490920183526020820180517bffffffffffffffffffffffffffffffffffffffffffffffffffffffff167f23b872dd000000000000000000000000000000000000000000000000000000001790529151600092839290881691612a5f9190615254565b6000604051808303816000865af19150503d8060008114612a9c576040519150601f19603f3d011682016040523d82523d6000602084013e612aa1565b606091505b5091509150818015612acb575080511580612acb575080806020019051810190612acb9190615270565b612b57576040517f08c379a000000000000000000000000000000000000000000000000000000000815260206004820152603160248201527f5472616e7366657248656c7065723a3a7472616e7366657246726f6d3a20747260448201527f616e7366657246726f6d206661696c6564000000000000000000000000000000606482015260840161071f565b505050505050565b6000428311612b6f575080612be0565b60e0840151428403908110612b88576000915050612be0565b6000818660e00151039050856101000151811015612bba5785610100015181850281612bb657612bb6615182565b0493505b612bdb84876101200151700100000000000000000000000000000000613a55565b925050505b9392505050565b6040805173ffffffffffffffffffffffffffffffffffffffff8481166024830152604480830185905283518084039091018152606490920183526020820180517bffffffffffffffffffffffffffffffffffffffffffffffffffffffff167fa9059cbb000000000000000000000000000000000000000000000000000000001790529151600092839290871691612c7e9190615254565b6000604051808303816000865af19150503d8060008114612cbb576040519150601f19603f3d011682016040523d82523d6000602084013e612cc0565b606091505b5091509150818015612cea575080511580612cea575080806020019051810190612cea9190615270565b612d76576040517f08c379a000000000000000000000000000000000000000000000000000000000815260206004820152602d60248201527f5472616e7366657248656c7065723a3a736166655472616e736665723a20747260448201527f616e73666572206661696c656400000000000000000000000000000000000000606482015260840161071f565b5050505050565b6000818311612d8c5781612be0565b5090919050565b6000808263ffffffff16600003612e06576040517f08c379a000000000000000000000000000000000000000000000000000000000815260206004820152600260248201527f4250000000000000000000000000000000000000000000000000000000000000604482015260640161071f565b6040805160028082526060820183526000926020830190803683370190505090508381600081518110612e3b57612e3b61528b565b602002602001019063ffffffff16908163ffffffff1681525050600081600181518110612e6a57612e6a61528b565b602002602001019063ffffffff16908163ffffffff16815250506000808673ffffffffffffffffffffffffffffffffffffffff1663883bdbfd846040518263ffffffff1660e01b8152600401612ec091906152ba565b600060405180830381865afa158015612edd573d6000803e3d6000fd5b505050506040513d6000823e601f3d9081017fffffffffffffffffffffffffffffffffffffffffffffffffffffffffffffffe0168201604052612f239190810190615368565b91509150600082600081518110612f3c57612f3c61528b565b602002602001015183600181518110612f5757612f5761528b565b6020026020010151612f69919061542a565b9050600082600081518110612f8057612f8061528b565b602002602001015183600181518110612f9b57612f9b61528b565b6020026020010151612fad919061546f565b9050612fbf63ffffffff8916836154a3565b965060008260060b128015612fe55750612fdf63ffffffff891683615517565b60060b15155b15612ff85786612ff481615539565b9750505b600061301e73ffffffffffffffffffffffffffffffffffffffff63ffffffff8b16615596565b905061304877ffffffffffffffffffffffffffffffffffffffff00000000602084901b16826155d9565b96505050505050509250929050565b60008060008360020b1261306e578260020b613076565b8260020b6000035b9050620d89e88111156130b5576040517f2bc80f3a00000000000000000000000000000000000000000000000000000000815260040160405180910390fd5b6000816001166000036130d9577001000000000000000000000000000000006130eb565b6ffffcb933bd6fad37aa2d162d1a5940015b70ffffffffffffffffffffffffffffffffff169050600282161561311f576ffff97272373d413259a46990580e213a0260801c5b600482161561313e576ffff2e50f5f656932ef12357cf3c7fdcc0260801c5b600882161561315d576fffe5caca7e10e4e61c3624eaa0941cd00260801c5b601082161561317c576fffcb9843d60f6159c9db58835c9266440260801c5b602082161561319b576fff973b41fa98c081472e6896dfb254c00260801c5b60408216156131ba576fff2ea16466c96a3843ec78b326b528610260801c5b60808216156131d9576ffe5dee046a99a2a811c461f1969c30530260801c5b6101008216156131f9576ffcbe86c7900a88aedcffc83b479aa3a40260801c5b610200821615613219576ff987a7253ac413176f2b074cf7815e540260801c5b610400821615613239576ff3392b0822b70005940c7a398e4b70f30260801c5b610800821615613259576fe7159475a2c29b7443b29c7fa6e889d90260801c5b611000821615613279576fd097f3bdfd2022b8845ad8f792aa58250260801c5b612000821615613299576fa9f746462d870fdf8a65dc1f90e061e50260801c5b6140008216156132b9576f70d869a156d2a1b890bb3df62baf32f70260801c5b6180008216156132d9576f31be135f97d08fd981231505542fcfa60260801c5b620100008216156132fa576f09aa508b5b7a84e1c677de54f3e99bc90260801c5b6202000082161561331a576e5d6af8dedb81196699c329225ee6040260801c5b62040000821615613339576d2216e584f5fa1ea926041bedfe980260801c5b62080000821615613356576b048a170391f7dc42444e8fa20260801c5b60008460020b131561339557807fffffffffffffffffffffffffffffffffffffffffffffffffffffffffffffffff8161339157613391615182565b0490505b6401000000008106156133a95760016133ac565b60005b60ff16602082901c0192505050919050565b6040517f70a0823100000000000000000000000000000000000000000000000000000000815230600482015260009073ffffffffffffffffffffffffffffffffffffffff8316906370a08231906024015b602060405180830381865afa15801561342c573d6000803e3d6000fd5b505050506040513d601f19601f820116820180604052508101906103009190614fdb565b60008073ffffffffffffffffffffffffffffffffffffffff84166134805761347783611004565b91509150613510565b6040517f7a33e3b00000000000000000000000000000000000000000000000000000000081526004810184905273ffffffffffffffffffffffffffffffffffffffff851690637a33e3b09060240160408051808303816000875af11580156134ec573d6000803e3d6000fd5b505050506040513d601f19601f820116820180604052508101906134779190615610565b9250929050565b6000612be061353c700100000000000000000000000000000000848660800151613a55565b8460600151613ba0565b60008061355c8484602001518560000151613c27565b915061359761358b857fffffffffffffffffffffffffffffffffffffffffffffffffffffffffffffffff6151b1565b60408501518551613c27565b90509250929050565b6000808080846135b087896151c5565b6135ba91906151c5565b60a08901519091501561366557600080546135db9063ffffffff1642615634565b63ffffffff16905080156136635760006135f9828b60a001516139ca565b9050680100000000000000008110156136615760006136228983680100000000000000006139f7565b9050600061363a8984680100000000000000006139f7565b90506136468183615023565b6136508a8c615023565b111561365e57909850965087875b50505b505b505b60008860c001511180156136795750848614155b156137d6576001546000906136989063fffffffe908116904216615634565b63ffffffff16905080156137d457600080878911156136e2576136bb888a6151c5565b90506136d18a896136cc84836151c5565b613a55565b6136db908a6151c5565b915061370a565b6136ec89896151c5565b90506136fd8a8a6136cc84836151c5565b61370790896151c5565b91505b600061371b8c60c0015184846139f7565b9050613728600182612d7d565b9050600061373685836139ca565b9050680100000000000000008110156137cf5761375d8482680100000000000000006139f7565b61376790856151c5565b935083156137cf57898b11156137a557613788848b8d8f6136cc91906151c5565b613792908b615023565b995061379e848c6151c5565b9a506137cf565b6137b6848c8c8f6136cc91906151c5565b6137c0908c615023565b9a506137cc848b6151c5565b99505b505050505b505b88156138205760008982876137eb8a8c6151c5565b6137f591906151c5565b6137ff91906151c5565b61380991906151b1565b9050801561381e5761381b81896151c5565b97505b505b600186101561382e57600195505b600185101561383c57600194505b5094979396509194509192505050565b6000818310612d8c5781612be0565b6040517fbd85b0390000000000000000000000000000000000000000000000000000000081523060a083901b17600482015260009073ffffffffffffffffffffffffffffffffffffffff84169063bd85b03990602401602060405180830381865afa1580156138ce573d6000803e3d6000fd5b505050506040513d601f19601f82011682018060405250810190612be09190614fdb565b6000806000806000806139108a600001518b6020015160001c613450565b915091508082111561391e57905b601087148061392d5750602088145b156139555761393f8a82945084613517565b955061394b868a613546565b90955093506139bd565b60208714806139645750601088145b156139765761393f8a83945084613517565b6139838a83945084613517565b955061398f868a613546565b90955093508484118815036139bd576139ab8a82945084613517565b95506139b7868a613546565b90955093505b5050945094509450949050565b6000806139ec6139de84604087901b6151b1565b6139e790615651565b613c90565b600f0b949350505050565b6000613a04848484613a55565b905060008280613a1657613a16615182565b8486091115612be0577fffffffffffffffffffffffffffffffffffffffffffffffffffffffffffffffff8110613a4b57600080fd5b6001019392505050565b600080807fffffffffffffffffffffffffffffffffffffffffffffffffffffffffffffffff85870985870292508281108382030391505080600003613aac5760008411613aa157600080fd5b508290049050612be0565b808411613ab857600080fd5b6000848688096000868103871696879004966002600389028118808a02820302808a02820302808a02820302808a02820302808a02820302808a02909103029181900381900460010186841190950394909402919094039290920491909117919091029150509392505050565b6040517fbd85b0390000000000000000000000000000000000000000000000000000000081523060a083901b1760048201526000907f000000000000000000000000000000000000000000000000000000000000000073ffffffffffffffffffffffffffffffffffffffff169063bd85b0399060240161340f565b6000808260011611613bc357700100000000000000000000000000000000613bc5565b825b9050600182901c91505b811561030057613bf18384700100000000000000000000000000000000613a55565b92506001821615613c1b57613c188184700100000000000000000000000000000000613a55565b90505b600182901c9150613bcf565b6000613c458385700100000000000000000000000000000000613a55565b9050600182901c811115612be0576000613c7584600287901b700100000000000000000000000000000000613a55565b90506000613c84848584613a55565b9050612bdb81856151c5565b60006840000000000000000082600f0b12613caa57600080fd5b7fffffffffffffffffffffffffffffffffffffffffffffffc0000000000000000082600f0b1215613cdd57506000919050565b6f8000000000000000000000000000000060006780000000000000008416600f0b1315613d1b5770016a09e667f3bcc908b2fb1366ea957d3e0260801c5b60008367400000000000000016600f0b1315613d48577001306fe0a31b7152de8d5a46305c85edec0260801c5b60008367200000000000000016600f0b1315613d75577001172b83c7d517adcdf7c8c50eb14a791f0260801c5b60008367100000000000000016600f0b1315613da25770010b5586cf9890f6298b92b71842a983630260801c5b60008367080000000000000016600f0b1315613dcf577001059b0d31585743ae7c548eb68ca417fd0260801c5b60008367040000000000000016600f0b1315613dfc57700102c9a3e778060ee6f7caca4f7a29bde80260801c5b60008367020000000000000016600f0b1315613e295770010163da9fb33356d84a66ae336dcdfa3f0260801c5b60008367010000000000000016600f0b1315613e5657700100b1afa5abcbed6129ab13ec11dc95430260801c5b600083668000000000000016600f0b1315613e825770010058c86da1c09ea1ff19d294cf2f679b0260801c5b600083664000000000000016600f0b1315613eae577001002c605e2e8cec506d21bfc89a23a00f0260801c5b600083662000000000000016600f0b1315613eda57700100162f3904051fa128bca9c55c31e5df0260801c5b600083661000000000000016600f0b1315613f06577001000b175effdc76ba38e31671ca9397250260801c5b600083660800000000000016600f0b1315613f3257700100058ba01fb9f96d6cacd4b180917c3d0260801c5b600083660400000000000016600f0b1315613f5e5770010002c5cc37da9491d0985c348c68e7b30260801c5b600083660200000000000016600f0b1315613f8a577001000162e525ee054754457d59952920260260801c5b600083660100000000000016600f0b1315613fb65770010000b17255775c040618bf4a4ade83fc0260801c5b6000836580000000000016600f0b1315613fe1577001000058b91b5bc9ae2eed81e9b7d4cfab0260801c5b6000836540000000000016600f0b131561400c57700100002c5c89d5ec6ca4d7c8acc017b7c90260801c5b6000836520000000000016600f0b13156140375770010000162e43f4f831060e02d839a9d16d0260801c5b6000836510000000000016600f0b131561406257700100000b1721bcfc99d9f890ea069117630260801c5b6000836508000000000016600f0b131561408d5770010000058b90cf1e6d97f9ca14dbcc16280260801c5b6000836504000000000016600f0b13156140b8577001000002c5c863b73f016468f6bac5ca2b0260801c5b6000836502000000000016600f0b13156140e357700100000162e430e5a18f6119e3c02282a50260801c5b6000836501000000000016600f0b131561410e577001000000b1721835514b86e6d96efd1bfe0260801c5b60008364800000000016600f0b131561413857700100000058b90c0b48c6be5df846c5b2ef0260801c5b60008364400000000016600f0b13156141625770010000002c5c8601cc6b9e94213c72737a0260801c5b60008364200000000016600f0b131561418c577001000000162e42fff037df38aa2b219f060260801c5b60008364100000000016600f0b13156141b65770010000000b17217fba9c739aa5819f44f90260801c5b60008364080000000016600f0b13156141e0577001000000058b90bfcdee5acd3c1cedc8230260801c5b60008364040000000016600f0b131561420a57700100000002c5c85fe31f35a6a30da1be500260801c5b60008364020000000016600f0b13156142345770010000000162e42ff0999ce3541b9fffcf0260801c5b60008364010000000016600f0b131561425e57700100000000b17217f80f4ef5aadda455540260801c5b600083638000000016600f0b13156142875770010000000058b90bfbf8479bd5a81b51ad0260801c5b600083634000000016600f0b13156142b0577001000000002c5c85fdf84bd62ae30a74cc0260801c5b600083632000000016600f0b13156142d957700100000000162e42fefb2fed257559bdaa0260801c5b600083631000000016600f0b1315614302577001000000000b17217f7d5a7716bba4a9ae0260801c5b600083630800000016600f0b131561432b57700100000000058b90bfbe9ddbac5e109cce0260801c5b600083630400000016600f0b13156143545770010000000002c5c85fdf4b15de6f17eb0d0260801c5b600083630200000016600f0b131561437d577001000000000162e42fefa494f1478fde050260801c5b600083630100000016600f0b13156143a65770010000000000b17217f7d20cf927c8e94c0260801c5b6000836280000016600f0b13156143ce577001000000000058b90bfbe8f71cb4e4b33d0260801c5b6000836240000016600f0b13156143f657700100000000002c5c85fdf477b662b269450260801c5b6000836220000016600f0b131561441e5770010000000000162e42fefa3ae53369388c0260801c5b6000836210000016600f0b131561444657700100000000000b17217f7d1d351a389d400260801c5b6000836208000016600f0b131561446e5770010000000000058b90bfbe8e8b2d3d4ede0260801c5b6000836204000016600f0b1315614496577001000000000002c5c85fdf4741bea6e77e0260801c5b6000836202000016600f0b13156144be57700100000000000162e42fefa39fe95583c20260801c5b6000836201000016600f0b13156144e6577001000000000000b17217f7d1cfb72b45e10260801c5b60008361800016600f0b131561450d57700100000000000058b90bfbe8e7cc35c3f00260801c5b60008361400016600f0b13156145345770010000000000002c5c85fdf473e242ea380260801c5b60008361200016600f0b131561455b577001000000000000162e42fefa39f02b772c0260801c5b60008361100016600f0b13156145825770010000000000000b17217f7d1cf7d83c1a0260801c5b60008361080016600f0b13156145a9577001000000000000058b90bfbe8e7bdcbe2e0260801c5b60008361040016600f0b13156145d057700100000000000002c5c85fdf473dea871f0260801c5b60008361020016600f0b13156145f75770010000000000000162e42fefa39ef44d910260801c5b60008361010016600f0b131561461e57700100000000000000b17217f7d1cf79e9490260801c5b600083608016600f0b13156146445770010000000000000058b90bfbe8e7bce5440260801c5b600083604016600f0b131561466a577001000000000000002c5c85fdf473de6eca0260801c5b600083602016600f0b131561469057700100000000000000162e42fefa39ef366f0260801c5b600083601016600f0b13156146b6577001000000000000000b17217f7d1cf79afa0260801c5b600083600816600f0b13156146dc57700100000000000000058b90bfbe8e7bcd6d0260801c5b600083600416600f0b13156147025770010000000000000002c5c85fdf473de6b20260801c5b600083600216600f0b1315614728577001000000000000000162e42fefa39ef3580260801c5b600083600116600f0b131561474e5770010000000000000000b17217f7d1cf79ab0260801c5b600f83810b60401d603f03900b1c6f7fffffffffffffffffffffffffffffff81111561030057600080fd5b604051806101400160405280614811604051806101600160405280600073ffffffffffffffffffffffffffffffffffffffff16815260200160008019168152602001600073ffffffffffffffffffffffffffffffffffffffff16815260200160008152602001600081526020016000815260200160008152602001600081526020016000815260200160008152602001600081525090565b815260200161483a60405180606001604052806000815260200160008152602001600081525090565b815260200160008152602001600081526020016000815260200160008152602001600081526020016000815260200160008152602001600081525090565b60006020828403121561488a57600080fd5b81357fffffffff0000000000000000000000000000000000000000000000000000000081168114612be057600080fd5b805173ffffffffffffffffffffffffffffffffffffffff168252602081015160208301526040810151614905604084018273ffffffffffffffffffffffffffffffffffffffff169052565b50606081810151908301526080808201519083015260a0808201519083015260c0808201519083015260e080820151908301526101008082015190830152610120808201519083015261014090810151910152565b610160810161030082846148ba565b7f4e487b7100000000000000000000000000000000000000000000000000000000600052604160045260246000fd5b6040516060810167ffffffffffffffff811182821017156149bb576149bb614969565b60405290565b6040516080810167ffffffffffffffff811182821017156149bb576149bb614969565b604051610160810167ffffffffffffffff811182821017156149bb576149bb614969565b604051601f82017fffffffffffffffffffffffffffffffffffffffffffffffffffffffffffffffe016810167ffffffffffffffff81118282101715614a4f57614a4f614969565b604052919050565b73ffffffffffffffffffffffffffffffffffffffff81168114611abc57600080fd5b600082601f830112614a8a57600080fd5b813567ffffffffffffffff811115614aa457614aa4614969565b614ad560207fffffffffffffffffffffffffffffffffffffffffffffffffffffffffffffffe0601f84011601614a08565b818152846020838601011115614aea57600080fd5b816020850160208301376000918101602001919091529392505050565b600060608284031215614b1957600080fd5b614b21614998565b90508135614b2e81614a57565b8152602082013567ffffffffffffffff811115614b4a57600080fd5b614b5684828501614a79565b6020830152506040820135614b6a81614a57565b604082015292915050565b60008060408385031215614b8857600080fd5b823567ffffffffffffffff80821115614ba057600080fd5b9084019060808287031215614bb457600080fd5b614bbc6149c1565b82358152602083013560208201526040830135614bd881614a57565b6040820152606083013582811115614bef57600080fd5b614bfb88828601614a79565b60608301525093506020850135915080821115614c1757600080fd5b50614c2485828601614b07565b9150509250929050565b600060208284031215614c4057600080fd5b5035919050565b600067ffffffffffffffff821115614c6157614c61614969565b5060051b60200190565b600082601f830112614c7c57600080fd5b81356020614c91614c8c83614c47565b614a08565b82815260059290921b84018101918181019086841115614cb057600080fd5b8286015b84811015614ccb5780358352918301918301614cb4565b509695505050505050565b600080600080600060a08688031215614cee57600080fd5b8535614cf981614a57565b94506020860135614d0981614a57565b9350604086013567ffffffffffffffff80821115614d2657600080fd5b614d3289838a01614c6b565b94506060880135915080821115614d4857600080fd5b614d5489838a01614c6b565b93506080880135915080821115614d6a57600080fd5b50614d7788828901614a79565b9150509295509295909350565b6000808284036080811215614d9857600080fd5b6060811215614da657600080fd5b50614daf614998565b83358152602084013560208201526040840135604082015280925050606083013567ffffffffffffffff811115614de557600080fd5b614c2485828601614b07565b60008060008060808587031215614e0757600080fd5b8435614e1281614a57565b966020860135965060408601359560600135945092505050565b60006102c082019050614e408284516148ba565b6020838101518051610160850152908101516101808401526040908101516101a08401528301516101c083015260608301516101e0830152608083015161020083015260a083015161022083015260c083015161024083015260e0830151610260830152610100830151610280830152610120909201516102a09091015290565b600080600080600060a08688031215614ed957600080fd5b8535614ee481614a57565b94506020860135614ef481614a57565b93506040860135925060608601359150608086013567ffffffffffffffff811115614f1e57600080fd5b614d7788828901614a79565b8051614f3581614a57565b919050565b60006101608284031215614f4d57600080fd5b614f556149e4565b614f5e83614f2a565b815260208301516020820152614f7660408401614f2a565b6040820152606083015160608201526080830151608082015260a083015160a082015260c083015160c082015260e083015160e08201526101008084015181830152506101208084015181830152506101408084015181830152508091505092915050565b600060208284031215614fed57600080fd5b5051919050565b7f4e487b7100000000000000000000000000000000000000000000000000000000600052601160045260246000fd5b8082018082111561030057610300614ff4565b60005b83811015615051578181015183820152602001615039565b50506000910152565b60008151808452615072816020860160208601615036565b601f017fffffffffffffffffffffffffffffffffffffffffffffffffffffffffffffffe0169290920160200192915050565b6040815260006150b7604083018561505a565b90508260208301529392505050565b805161ffff81168114614f3557600080fd5b80518015158114614f3557600080fd5b600080600080600080600060e0888a03121561510357600080fd5b875161510e81614a57565b8097505060208801518060020b811461512657600080fd5b9550615134604089016150c6565b9450615142606089016150c6565b9350615150608089016150c6565b925060a088015160ff8116811461516657600080fd5b915061517460c089016150d8565b905092959891949750929550565b7f4e487b7100000000000000000000000000000000000000000000000000000000600052601260045260246000fd5b6000826151c0576151c0615182565b500490565b8181038181111561030057610300614ff4565b8251815260208301516020820152604083015160408201526060830151606082015260a06080820152600061521060a083018461505a565b949350505050565b60006060828403121561522a57600080fd5b615232614998565b8251815260208301516020820152604083015160408201528091505092915050565b60008251615266818460208701615036565b9190910192915050565b60006020828403121561528257600080fd5b612be0826150d8565b7f4e487b7100000000000000000000000000000000000000000000000000000000600052603260045260246000fd5b6020808252825182820181905260009190848201906040850190845b818110156152f857835163ffffffff16835292840192918401916001016152d6565b50909695505050505050565b600082601f83011261531557600080fd5b81516020615325614c8c83614c47565b82815260059290921b8401810191818101908684111561534457600080fd5b8286015b84811015614ccb57805161535b81614a57565b8352918301918301615348565b6000806040838503121561537b57600080fd5b825167ffffffffffffffff8082111561539357600080fd5b818501915085601f8301126153a757600080fd5b815160206153b7614c8c83614c47565b82815260059290921b840181019181810190898411156153d657600080fd5b948201945b838610156154045785518060060b81146153f55760008081fd5b825294820194908201906153db565b9188015191965090935050508082111561541d57600080fd5b50614c2485828601615304565b600682810b9082900b037fffffffffffffffffffffffffffffffffffffffffffffffffff800000000000008112667fffffffffffff8213171561030057610300614ff4565b73ffffffffffffffffffffffffffffffffffffffff82811682821603908082111561549c5761549c614ff4565b5092915050565b60008160060b8360060b806154ba576154ba615182565b7fffffffffffffffffffffffffffffffffffffffffffffffffffffffffffffffff81147fffffffffffffffffffffffffffffffffffffffffffffffffff800000000000008314161561550e5761550e614ff4565b90059392505050565b60008260060b8061552a5761552a615182565b808360060b0791505092915050565b60008160020b7fffffffffffffffffffffffffffffffffffffffffffffffffffffffffff800000810361556e5761556e614ff4565b7fffffffffffffffffffffffffffffffffffffffffffffffffffffffffffffffff0192915050565b77ffffffffffffffffffffffffffffffffffffffffffffffff8281168282168181028316929181158285048214176155d0576155d0614ff4565b50505092915050565b600077ffffffffffffffffffffffffffffffffffffffffffffffff8084168061560457615604615182565b92169190910492915050565b6000806040838503121561562357600080fd5b505080516020909101519092909150565b63ffffffff82811682821603908082111561549c5761549c614ff4565b600081600f0b7fffffffffffffffffffffffffffffffff80000000000000000000000000000000810361568657615686614ff4565b6000039291505056fea164736f6c6343000814000a",
  "linkReferences": {},
  "deployedLinkReferences": {}
}