{
  "_format": "hh-sol-artifact-1",
  "contractName": "ReserveTokenPrice",
  "sourceName": "contracts/ReserveTokenPrice.sol",
  "abi": [
    {
      "inputs": [
        {
          "internalType": "address",
          "name": "token",
          "type": "address"
        },
        {
          "internalType": "address",
          "name": "factory",
          "type": "address"
        },
        {
          "internalType": "address[]",
          "name": "otherTokens",
          "type": "address[]"
        },
        {
          "internalType": "address",
          "name": "weth",
          "type": "address"
        },
        {
          "internalType": "address",
          "name": "usd",
          "type": "address"
        }
      ],
      "name": "fetchMarket",
      "outputs": [
        {
          "internalType": "uint256",
          "name": "sqrtPriceX96",
          "type": "uint256"
        }
      ],
      "stateMutability": "view",
      "type": "function"
    },
    {
      "inputs": [
        {
          "internalType": "address[]",
          "name": "tokens",
          "type": "address[]"
        },
        {
          "internalType": "address",
          "name": "factory",
          "type": "address"
        },
        {
          "internalType": "address[]",
          "name": "otherTokens",
          "type": "address[]"
        },
        {
          "internalType": "address",
          "name": "weth",
          "type": "address"
        },
        {
          "internalType": "address",
          "name": "usd",
          "type": "address"
        }
      ],
      "name": "fetchMarketBatch",
      "outputs": [
        {
          "internalType": "uint256[]",
          "name": "sqrtPriceX96",
          "type": "uint256[]"
        }
      ],
      "stateMutability": "view",
      "type": "function"
    }
  ],
  "bytecode": "0x608060405234801561001057600080fd5b50610ab1806100206000396000f3fe608060405234801561001057600080fd5b50600436106100365760003560e01c80633a327e961461003b5780634de2614914610061575b600080fd5b61004e610049366004610708565b610081565b6040519081526020015b60405180910390f35b61007461006f366004610796565b610410565b6040516100589190610841565b604080516060810182526101f48152610bb86020820152612710918101919091526000908180805b60038110156102fd5760005b888110156102ea5760008b73ffffffffffffffffffffffffffffffffffffffff16631698ee828e8d8d868181106100ee576100ee610885565b905060200201602081019061010391906108b4565b89876003811061011557610115610885565b60200201516040517fffffffff0000000000000000000000000000000000000000000000000000000060e086901b16815273ffffffffffffffffffffffffffffffffffffffff938416600482015292909116602483015261ffff166044820152606401602060405180830381865afa158015610195573d6000803e3d6000fd5b505050506040513d601f19601f820116820180604052508101906101b991906108d1565b905073ffffffffffffffffffffffffffffffffffffffff8116156102d7576040517f70a0823100000000000000000000000000000000000000000000000000000000815273ffffffffffffffffffffffffffffffffffffffff8281166004830152600091908f16906370a0823190602401602060405180830381865afa158015610247573d6000803e3d6000fd5b505050506040513d601f19601f8201168201806040525081019061026b91906108ee565b9050808610156102d5578095508b8b8481811061028a5761028a610885565b905060200201602081019061029f91906108b4565b94506102d2828f8e8e878181106102b8576102b8610885565b90506020020160208101906102cd91906108b4565b6104d1565b97505b505b50806102e281610907565b9150506100b5565b50806102f581610907565b9150506100a9565b508573ffffffffffffffffffffffffffffffffffffffff168173ffffffffffffffffffffffffffffffffffffffff1603610403576040517f1698ee8200000000000000000000000000000000000000000000000000000000815273ffffffffffffffffffffffffffffffffffffffff878116600483015286811660248301526101f46044830152600091908b1690631698ee8290606401602060405180830381865afa1580156103b1573d6000803e3d6000fd5b505050506040513d601f19601f820116820180604052508101906103d591906108d1565b905060006103e48289896104d1565b90506103fe86826c010000000000000000000000006105c6565b955050505b5050509695505050505050565b60608667ffffffffffffffff81111561042b5761042b610966565b604051908082528060200260200182016040528015610454578160200160208202803683370190505b50905060005b878110156104c55761049689898381811061047757610477610885565b905060200201602081019061048c91906108b4565b8888888888610081565b8282815181106104a8576104a8610885565b6020908102919091010152806104bd81610907565b91505061045a565b50979650505050505050565b6000808473ffffffffffffffffffffffffffffffffffffffff16633850c7bd6040518163ffffffff1660e01b815260040160e060405180830381865afa15801561051f573d6000803e3d6000fd5b505050506040513d601f19601f8201168201806040525081019061054391906109ac565b50505050505090508073ffffffffffffffffffffffffffffffffffffffff1691508273ffffffffffffffffffffffffffffffffffffffff168473ffffffffffffffffffffffffffffffffffffffff1611156105be576105bb827801000000000000000000000000000000000000000000000000610a40565b91505b509392505050565b600080807fffffffffffffffffffffffffffffffffffffffffffffffffffffffffffffffff8587098587029250828110838203039150508060000361061d576000841161061257600080fd5b508290049050610690565b80841161062957600080fd5b6000848688096000868103871696879004966002600389028118808a02820302808a02820302808a02820302808a02820302808a02820302808a02909103029181900381900460010186841190950394909402919094039290920491909117919091029150505b9392505050565b73ffffffffffffffffffffffffffffffffffffffff811681146106b957600080fd5b50565b60008083601f8401126106ce57600080fd5b50813567ffffffffffffffff8111156106e657600080fd5b6020830191508360208260051b850101111561070157600080fd5b9250929050565b60008060008060008060a0878903121561072157600080fd5b863561072c81610697565b9550602087013561073c81610697565b9450604087013567ffffffffffffffff81111561075857600080fd5b61076489828a016106bc565b909550935050606087013561077881610697565b9150608087013561078881610697565b809150509295509295509295565b600080600080600080600060a0888a0312156107b157600080fd5b873567ffffffffffffffff808211156107c957600080fd5b6107d58b838c016106bc565b909950975060208a013591506107ea82610697565b9095506040890135908082111561080057600080fd5b5061080d8a828b016106bc565b909550935050606088013561082181610697565b9150608088013561083181610697565b8091505092959891949750929550565b6020808252825182820181905260009190848201906040850190845b818110156108795783518352928401929184019160010161085d565b50909695505050505050565b7f4e487b7100000000000000000000000000000000000000000000000000000000600052603260045260246000fd5b6000602082840312156108c657600080fd5b813561069081610697565b6000602082840312156108e357600080fd5b815161069081610697565b60006020828403121561090057600080fd5b5051919050565b60007fffffffffffffffffffffffffffffffffffffffffffffffffffffffffffffffff820361095f577f4e487b7100000000000000000000000000000000000000000000000000000000600052601160045260246000fd5b5060010190565b7f4e487b7100000000000000000000000000000000000000000000000000000000600052604160045260246000fd5b805161ffff811681146109a757600080fd5b919050565b600080600080600080600060e0888a0312156109c757600080fd5b87516109d281610697565b8097505060208801518060020b81146109ea57600080fd5b95506109f860408901610995565b9450610a0660608901610995565b9350610a1460808901610995565b925060a088015160ff81168114610a2a57600080fd5b60c0890151909250801515811461083157600080fd5b600082610a76577f4e487b7100000000000000000000000000000000000000000000000000000000600052601260045260246000fd5b50049056fea2646970667358221220365c3f9ce72987b75dc7e036c4476d4519d8a5c2484c2b25357f0e5ae73a550d64736f6c634300080d0033",
  "linkReferences": {},
  "deployedLinkReferences": {}
}