{
  "_format": "hh-sol-artifact-1",
  "contractName": "UniversalTokenRouter",
  "sourceName": "contracts/UniversalTokenRouter.sol",
  "abi": [
    {
      "inputs": [
        {
          "internalType": "bytes",
          "name": "payment",
          "type": "bytes"
        },
        {
          "internalType": "uint256",
          "name": "amount",
          "type": "uint256"
        }
      ],
      "name": "discard",
      "outputs": [],
      "stateMutability": "nonpayable",
      "type": "function"
    },
    {
      "inputs": [
        {
          "components": [
            {
              "internalType": "address",
              "name": "recipient",
              "type": "address"
            },
            {
              "internalType": "uint256",
              "name": "eip",
              "type": "uint256"
            },
            {
              "internalType": "address",
              "name": "token",
              "type": "address"
            },
            {
              "internalType": "uint256",
              "name": "id",
              "type": "uint256"
            },
            {
              "internalType": "uint256",
              "name": "amountOutMin",
              "type": "uint256"
            }
          ],
          "internalType": "struct Output[]",
          "name": "outputs",
          "type": "tuple[]"
        },
        {
          "components": [
            {
              "components": [
                {
                  "internalType": "uint256",
                  "name": "mode",
                  "type": "uint256"
                },
                {
                  "internalType": "address",
                  "name": "recipient",
                  "type": "address"
                },
                {
                  "internalType": "uint256",
                  "name": "eip",
                  "type": "uint256"
                },
                {
                  "internalType": "address",
                  "name": "token",
                  "type": "address"
                },
                {
                  "internalType": "uint256",
                  "name": "id",
                  "type": "uint256"
                },
                {
                  "internalType": "uint256",
                  "name": "amountIn",
                  "type": "uint256"
                }
              ],
              "internalType": "struct Input[]",
              "name": "inputs",
              "type": "tuple[]"
            },
            {
              "internalType": "address",
              "name": "code",
              "type": "address"
            },
            {
              "internalType": "bytes",
              "name": "data",
              "type": "bytes"
            }
          ],
          "internalType": "struct Action[]",
          "name": "actions",
          "type": "tuple[]"
        }
      ],
      "name": "exec",
      "outputs": [
        {
          "internalType": "uint256[]",
          "name": "amountOuts",
          "type": "uint256[]"
        },
        {
          "internalType": "uint256",
          "name": "gasLeft",
          "type": "uint256"
        }
      ],
      "stateMutability": "payable",
      "type": "function"
    },
    {
      "inputs": [
        {
          "internalType": "bytes",
          "name": "payment",
          "type": "bytes"
        },
        {
          "internalType": "uint256",
          "name": "amount",
          "type": "uint256"
        }
      ],
      "name": "pay",
      "outputs": [],
      "stateMutability": "nonpayable",
      "type": "function"
    },
    {
      "inputs": [
        {
          "internalType": "bytes4",
          "name": "interfaceId",
          "type": "bytes4"
        }
      ],
      "name": "supportsInterface",
      "outputs": [
        {
          "internalType": "bool",
          "name": "",
          "type": "bool"
        }
      ],
      "stateMutability": "view",
      "type": "function"
    },
    {
      "stateMutability": "payable",
      "type": "receive"
    }
  ],
  "bytecode": "0x608060405234801561001057600080fd5b506116d0806100206000396000f3fe6080604052600436106100435760003560e01c806301ffc9a71461004f578063715ef7f914610084578063c175dd37146100a6578063f02c9eab146100c657600080fd5b3661004a57005b600080fd5b34801561005b57600080fd5b5061006f61006a366004610ff1565b6100e7565b60405190151581526020015b60405180910390f35b34801561009057600080fd5b506100a461009f3660046111ae565b610180565b005b3480156100b257600080fd5b506100a46100c13660046111ae565b6101c7565b6100d96100d436600461142f565b61028e565b60405161007b92919061153b565b60007fffffffff0000000000000000000000000000000000000000000000000000000082167f4007b46500000000000000000000000000000000000000000000000000000000148061017a57507f01ffc9a7000000000000000000000000000000000000000000000000000000007fffffffff000000000000000000000000000000000000000000000000000000008316145b92915050565b61018a82826101c7565b6000806000806000868060200190518101906101a69190611583565b945094509450945094506101be85858585858b6108d6565b50505050505050565b8151602080840191909120600081815291829052604090912054821115610275576040517f08c379a000000000000000000000000000000000000000000000000000000000815260206004820152602a60248201527f556e6976657273616c546f6b656e526f757465723a20494e535546464943494560448201527f4e545f5041594d454e540000000000000000000000000000000000000000000060648201526084015b60405180910390fd5b6000908152602081905260409020805491909103905550565b6060600080845167ffffffffffffffff8111156102ad576102ad611033565b6040519080825280602002602001820160405280156102d6578160200160208202803683370190505b5090506000855167ffffffffffffffff8111156102f5576102f5611033565b60405190808252806020026020018201604052801561031e578160200160208202803683370190505b50905060005b865181101561041f576000878281518110610341576103416115e4565b60200260200101519050600061035682610a9f565b90508084848151811061036b5761036b6115e4565b6020908102919091010152608082015181018181101561040d576040517f08c379a000000000000000000000000000000000000000000000000000000000815260206004820152602d60248201527f556e6976657273616c546f6b656e526f757465723a204f55545055545f42414c60448201527f414e43455f4f564552464c4f5700000000000000000000000000000000000000606482015260840161026c565b60809092019190915250600101610324565b503360005b86518110156107a4576000878281518110610441576104416115e4565b60200260200101519050600080600090505b82515181101561061457600083600001518281518110610475576104756115e4565b602002602001015190506000816000015190506002810361049c578160a00151935061060a565b8061055357600087836020015184604001518560600151866080015160405160200161050795949392919073ffffffffffffffffffffffffffffffffffffffff9586168152938516602085015260408401929092529092166060820152608081019190915260a00190565b604080517fffffffffffffffffffffffffffffffffffffffffffffffffffffffffffffffe0818403018152918152815160209283012060a086015160009182529281905220555061060a565b600181036105825761057d8783602001518460400151856060015186608001518760a001516108d6565b61060a565b6040517f08c379a000000000000000000000000000000000000000000000000000000000815260206004820152602260248201527f556e6976657273616c546f6b656e526f757465723a20494e56414c49445f4d4f60448201527f4445000000000000000000000000000000000000000000000000000000000000606482015260840161026c565b5050600101610453565b50604082015151156106a857600080836020015173ffffffffffffffffffffffffffffffffffffffff168385604001516040516106519190611613565b60006040518083038185875af1925050503d806000811461068e576040519150601f19603f3d011682016040523d82523d6000602084013e610693565b606091505b5091509150816106a557805160208201fd5b50505b60005b825151811015610796576000836000015182815181106106cd576106cd6115e4565b60200260200101519050600081600001510361078d57600086826020015183604001518460600151856080015160405160200161074995949392919073ffffffffffffffffffffffffffffffffffffffff9586168152938516602085015260408401929092529092166060820152608081019190915260a00190565b604080517fffffffffffffffffffffffffffffffffffffffffffffffffffffffffffffffe08184030181529181528151602092830120600090815291829052812055505b506001016106ab565b505050806001019050610424565b504780156107b6576107b68282610d4b565b60005b88518110156108c55760008982815181106107d6576107d66115e4565b6020026020010151905060006107eb82610a9f565b90508583815181106107ff576107ff6115e4565b6020026020010151810387848151811061081b5761081b6115e4565b60200260200101818152505081608001518110156108bb576040517f08c379a000000000000000000000000000000000000000000000000000000000815260206004820152603060248201527f556e6976657273616c546f6b656e526f757465723a20494e535546464943494560448201527f4e545f4f55545055545f414d4f554e5400000000000000000000000000000000606482015260840161026c565b50506001016107b9565b505a93989397509295505050505050565b836014036108ef576108ea83878784610e5a565b610a97565b83610483036109a3576040517ff242432a00000000000000000000000000000000000000000000000000000000815273ffffffffffffffffffffffffffffffffffffffff87811660048301528681166024830152604482018490526064820183905260a06084830152600060a483015284169063f242432a9060c4015b600060405180830381600087803b15801561098657600080fd5b505af115801561099a573d6000803e3d6000fd5b50505050610a97565b836102d103610a0f576040517f42842e0e00000000000000000000000000000000000000000000000000000000815273ffffffffffffffffffffffffffffffffffffffff87811660048301528681166024830152604482018490528416906342842e0e9060640161096c565b6040517f08c379a000000000000000000000000000000000000000000000000000000000815260206004820152602160248201527f556e6976657273616c546f6b656e526f757465723a20494e56414c49445f454960448201527f5000000000000000000000000000000000000000000000000000000000000000606482015260840161026c565b505050505050565b60208101516000906014819003610b4f57604083810151845191517f70a0823100000000000000000000000000000000000000000000000000000000815273ffffffffffffffffffffffffffffffffffffffff92831660048201529116906370a08231906024015b602060405180830381865afa158015610b24573d6000803e3d6000fd5b505050506040513d601f19601f82011682018060405250810190610b489190611642565b9392505050565b8061048303610bbd576040838101518451606086015192517efdd58e00000000000000000000000000000000000000000000000000000000815273ffffffffffffffffffffffffffffffffffffffff91821660048201526024810193909352169062fdd58e90604401610b07565b806102d103610d295760608301517f0549972b314bb4225e5b334d0650d563c4e907124dcce9f2eae8c8b2d3d9d30d01610c4c57604083810151845191517f70a0823100000000000000000000000000000000000000000000000000000000815273ffffffffffffffffffffffffffffffffffffffff92831660048201529116906370a0823190602401610b07565b826040015173ffffffffffffffffffffffffffffffffffffffff16636352211e84606001516040518263ffffffff1660e01b8152600401610c8f91815260200190565b602060405180830381865afa925050508015610ce6575060408051601f3d9081017fffffffffffffffffffffffffffffffffffffffffffffffffffffffffffffffe0168201909252610ce39181019061165b565b60015b610cf35750600092915050565b835173ffffffffffffffffffffffffffffffffffffffff828116911614610d1b576000610d1e565b60015b60ff16949350505050565b80610a0f5750505173ffffffffffffffffffffffffffffffffffffffff163190565b6040805160008082526020820190925273ffffffffffffffffffffffffffffffffffffffff8416908390604051610d829190611613565b60006040518083038185875af1925050503d8060008114610dbf576040519150601f19603f3d011682016040523d82523d6000602084013e610dc4565b606091505b5050905080610e55576040517f08c379a000000000000000000000000000000000000000000000000000000000815260206004820152603460248201527f5472616e7366657248656c7065723a3a736166655472616e736665724554483a60448201527f20455448207472616e73666572206661696c6564000000000000000000000000606482015260840161026c565b505050565b6040805173ffffffffffffffffffffffffffffffffffffffff85811660248301528481166044830152606480830185905283518084039091018152608490920183526020820180517bffffffffffffffffffffffffffffffffffffffffffffffffffffffff167f23b872dd000000000000000000000000000000000000000000000000000000001790529151600092839290881691610ef99190611613565b6000604051808303816000865af19150503d8060008114610f36576040519150601f19603f3d011682016040523d82523d6000602084013e610f3b565b606091505b5091509150818015610f65575080511580610f65575080806020019051810190610f659190611678565b610a97576040517f08c379a000000000000000000000000000000000000000000000000000000000815260206004820152603160248201527f5472616e7366657248656c7065723a3a7472616e7366657246726f6d3a20747260448201527f616e7366657246726f6d206661696c6564000000000000000000000000000000606482015260840161026c565b60006020828403121561100357600080fd5b81357fffffffff0000000000000000000000000000000000000000000000000000000081168114610b4857600080fd5b7f4e487b7100000000000000000000000000000000000000000000000000000000600052604160045260246000fd5b6040516060810167ffffffffffffffff8111828210171561108557611085611033565b60405290565b60405160c0810167ffffffffffffffff8111828210171561108557611085611033565b60405160a0810167ffffffffffffffff8111828210171561108557611085611033565b604051601f82017fffffffffffffffffffffffffffffffffffffffffffffffffffffffffffffffe016810167ffffffffffffffff8111828210171561111857611118611033565b604052919050565b600082601f83011261113157600080fd5b813567ffffffffffffffff81111561114b5761114b611033565b61117c60207fffffffffffffffffffffffffffffffffffffffffffffffffffffffffffffffe0601f840116016110d1565b81815284602083860101111561119157600080fd5b816020850160208301376000918101602001919091529392505050565b600080604083850312156111c157600080fd5b823567ffffffffffffffff8111156111d857600080fd5b6111e485828601611120565b95602094909401359450505050565b600067ffffffffffffffff82111561120d5761120d611033565b5060051b60200190565b73ffffffffffffffffffffffffffffffffffffffff8116811461123957600080fd5b50565b803561124781611217565b919050565b600082601f83011261125d57600080fd5b61126f61126a83356111f3565b6110d1565b82358082526020808301929160051b8501018581111561128e57600080fd5b602085015b818110156114245767ffffffffffffffff80823511156112b257600080fd5b8135870160607fffffffffffffffffffffffffffffffffffffffffffffffffffffffffffffffe0828b030112156112e857600080fd5b6112f0611062565b826020830135111561130157600080fd5b602082013582018a603f82011261131757600080fd5b602081013561132861126a826111f3565b81815260c090910282016040019060208101908d83111561134857600080fd5b6040840193505b828410156113d45760c0848f03121561136757600080fd5b61136f61108b565b843581526113806020860135611217565b60208501356020820152604085013560408201526113a16060860135611217565b606085013560608201526080850135608082015260a085013560a08201528083525060208201915060c08401935061134f565b8452506113e69150506040830161123c565b602082015282606083013511156113fc57600080fd5b61140f8a60206060850135850101611120565b60408201528652505060209384019301611293565b509095945050505050565b600080604080848603121561144357600080fd5b833567ffffffffffffffff8082111561145b57600080fd5b818601915086601f83011261146f57600080fd5b8135602061147f61126a836111f3565b82815260a0928302850182019282820191908b85111561149e57600080fd5b958301955b8487101561150c5780878d0312156114bb5760008081fd5b6114c36110ae565b87356114ce81611217565b81528785013585820152888801356114e581611217565b818a01526060888101359082015260808089013590820152835295860195918301916114a3565b509750508701359350508083111561152357600080fd5b50506115318582860161124c565b9150509250929050565b604080825283519082018190526000906020906060840190828701845b8281101561157457815184529284019290840190600101611558565b50505092019290925292915050565b600080600080600060a0868803121561159b57600080fd5b85516115a681611217565b60208701519095506115b781611217565b6040870151606088015191955093506115cf81611217565b80925050608086015190509295509295909350565b7f4e487b7100000000000000000000000000000000000000000000000000000000600052603260045260246000fd5b6000825160005b81811015611634576020818601810151858301520161161a565b506000920191825250919050565b60006020828403121561165457600080fd5b5051919050565b60006020828403121561166d57600080fd5b8151610b4881611217565b60006020828403121561168a57600080fd5b81518015158114610b4857600080fdfea2646970667358221220b0424cde7eb4419981c4669d56adc0f5aeaea422925095cdf0213dc55345c69864736f6c63430008140033",
  "linkReferences": {},
  "deployedLinkReferences": {}
}