{
    "_format": "hh-sol-artifact-1",
    "contractName": "TokenInfo",
    "sourceName": "contracts/test/TokenInfo.sol",
    "abi": [
        {
            "inputs": [
                {
                    "internalType": "address[]",
                    "name": "tokens",
                    "type": "address[]"
                }
            ],
            "name": "getTokenInfo",
            "outputs": [
                {
                    "components": [
                        {
                            "internalType": "string",
                            "name": "symbol",
                            "type": "string"
                        },
                        {
                            "internalType": "string",
                            "name": "name",
                            "type": "string"
                        },
                        {
                            "internalType": "uint8",
                            "name": "decimals",
                            "type": "uint8"
                        },
                        {
                            "internalType": "uint256",
                            "name": "totalSupply",
                            "type": "uint256"
                        }
                    ],
                    "internalType": "struct TokenInfo.Info[]",
                    "name": "infos",
                    "type": "tuple[]"
                }
            ],
            "stateMutability": "view",
            "type": "function"
        }
    ],
    "bytecode": "0x608060405234801561001057600080fd5b50610d0c806100206000396000f3fe608060405234801561001057600080fd5b506004361061002b5760003560e01c80634a69ac5014610030575b600080fd5b61004361003e36600461073a565b610059565b6040516100509190610829565b60405180910390f35b60608167ffffffffffffffff811115610074576100746108e5565b6040519080825280602002602001820160405280156100d357816020015b6100c060405180608001604052806060815260200160608152602001600060ff168152602001600081525090565b8152602001906001900390816100925790505b50905060005b8281101561044f5760008484838181106100f5576100f5610914565b905060200201602081019061010a9190610943565b90508073ffffffffffffffffffffffffffffffffffffffff166395d89b416040518163ffffffff1660e01b8152600401600060405180830381865afa92505050801561019657506040513d6000823e601f3d9081017fffffffffffffffffffffffffffffffffffffffffffffffffffffffffffffffe016820160405261019391908101906109c4565b60015b610242576101a2610a7a565b806308c379a0036101d157506101b6610a96565b806101c157506101d3565b6101cb8282610456565b50610263565b505b3d8080156101fd576040519150601f19603f3d011682016040523d82523d6000602084013e610202565b606091505b506101cb826040518060400160405280600b81526020017f286e6f20726561736f6e29000000000000000000000000000000000000000000815250610456565b8084848151811061025557610255610914565b602090810291909101015152505b8073ffffffffffffffffffffffffffffffffffffffff166306fdde036040518163ffffffff1660e01b8152600401600060405180830381865afa1580156102ae573d6000803e3d6000fd5b505050506040513d6000823e601f3d9081017fffffffffffffffffffffffffffffffffffffffffffffffffffffffffffffffe01682016040526102f491908101906109c4565b83838151811061030657610306610914565b6020026020010151602001819052508073ffffffffffffffffffffffffffffffffffffffff1663313ce5676040518163ffffffff1660e01b8152600401602060405180830381865afa158015610360573d6000803e3d6000fd5b505050506040513d601f19601f820116820180604052508101906103849190610b3e565b83838151811061039657610396610914565b60200260200101516040019060ff16908160ff16815250508073ffffffffffffffffffffffffffffffffffffffff166318160ddd6040518163ffffffff1660e01b8152600401602060405180830381865afa1580156103f9573d6000803e3d6000fd5b505050506040513d601f19601f8201168201806040525081019061041d9190610b61565b83838151811061042f5761042f610914565b6020908102919091010151606001525061044881610ba9565b90506100d9565b5092915050565b6104778273ffffffffffffffffffffffffffffffffffffffff1660146104f0565b81604051602001610489929190610be1565b604080517fffffffffffffffffffffffffffffffffffffffffffffffffffffffffffffffe0818403018152908290527f08c379a00000000000000000000000000000000000000000000000000000000082526104e791600401610c39565b60405180910390fd5b606060006104ff836002610c4c565b61050a906002610c89565b67ffffffffffffffff811115610522576105226108e5565b6040519080825280601f01601f19166020018201604052801561054c576020820181803683370190505b5090507f30000000000000000000000000000000000000000000000000000000000000008160008151811061058357610583610914565b60200101907effffffffffffffffffffffffffffffffffffffffffffffffffffffffffffff1916908160001a9053507f7800000000000000000000000000000000000000000000000000000000000000816001815181106105e6576105e6610914565b60200101907effffffffffffffffffffffffffffffffffffffffffffffffffffffffffffff1916908160001a9053506000610622846002610c4c565b61062d906001610c89565b90505b60018111156106ca577f303132333435363738396162636465660000000000000000000000000000000085600f166010811061066e5761066e610914565b1a60f81b82828151811061068457610684610914565b60200101907effffffffffffffffffffffffffffffffffffffffffffffffffffffffffffff1916908160001a90535060049490941c936106c381610ca1565b9050610630565b508315610733576040517f08c379a000000000000000000000000000000000000000000000000000000000815260206004820181905260248201527f537472696e67733a20686578206c656e67746820696e73756666696369656e7460448201526064016104e7565b9392505050565b6000806020838503121561074d57600080fd5b823567ffffffffffffffff8082111561076557600080fd5b818501915085601f83011261077957600080fd5b81358181111561078857600080fd5b8660208260051b850101111561079d57600080fd5b60209290920196919550909350505050565b60005b838110156107ca5781810151838201526020016107b2565b838111156107d9576000848401525b50505050565b600081518084526107f78160208601602086016107af565b601f017fffffffffffffffffffffffffffffffffffffffffffffffffffffffffffffffe0169290920160200192915050565b60006020808301818452808551808352604092508286019150828160051b87010184880160005b838110156108d7577fffffffffffffffffffffffffffffffffffffffffffffffffffffffffffffffc0898403018552815160808151818652610894828701826107df565b915050888201518582038a8701526108ac82826107df565b838a015160ff16878b0152606093840151939096019290925250509386019390860190600101610850565b509098975050505050505050565b7f4e487b7100000000000000000000000000000000000000000000000000000000600052604160045260246000fd5b7f4e487b7100000000000000000000000000000000000000000000000000000000600052603260045260246000fd5b60006020828403121561095557600080fd5b813573ffffffffffffffffffffffffffffffffffffffff8116811461073357600080fd5b7fffffffffffffffffffffffffffffffffffffffffffffffffffffffffffffffe0601f830116810181811067ffffffffffffffff821117156109bd576109bd6108e5565b6040525050565b6000602082840312156109d657600080fd5b815167ffffffffffffffff808211156109ee57600080fd5b818401915084601f830112610a0257600080fd5b815181811115610a1457610a146108e5565b6040519150610a4b60207fffffffffffffffffffffffffffffffffffffffffffffffffffffffffffffffe0601f8401160183610979565b808252856020828501011115610a6057600080fd5b610a718160208401602086016107af565b50949350505050565b600060033d1115610a935760046000803e5060005160e01c5b90565b600060443d1015610aa45790565b6040517ffffffffffffffffffffffffffffffffffffffffffffffffffffffffffffffffc803d016004833e81513d67ffffffffffffffff8160248401118184111715610af257505050505090565b8285019150815181811115610b0a5750505050505090565b843d8701016020828501011115610b245750505050505090565b610b3360208286010187610979565b509095945050505050565b600060208284031215610b5057600080fd5b815160ff8116811461073357600080fd5b600060208284031215610b7357600080fd5b5051919050565b7f4e487b7100000000000000000000000000000000000000000000000000000000600052601160045260246000fd5b60007fffffffffffffffffffffffffffffffffffffffffffffffffffffffffffffffff8203610bda57610bda610b7a565b5060010190565b60008351610bf38184602088016107af565b7f3a200000000000000000000000000000000000000000000000000000000000009083019081528351610c2d8160028401602088016107af565b01600201949350505050565b60208152600061073360208301846107df565b6000817fffffffffffffffffffffffffffffffffffffffffffffffffffffffffffffffff0483118215151615610c8457610c84610b7a565b500290565b60008219821115610c9c57610c9c610b7a565b500190565b600081610cb057610cb0610b7a565b507fffffffffffffffffffffffffffffffffffffffffffffffffffffffffffffffff019056fea264697066735822122014226ae361d8c7f4d54a79278c51d8379c1fd235104424aedd3dedeb9209eaea64736f6c634300080d0033",
    "linkReferences": {},
    "deployedLinkReferences": {}
}