{
    "_format": "hh-sol-artifact-1",
    "contractName": "View",
    "sourceName": "contracts/support/View.sol",
    "abi": [
        {
            "inputs": [
                {
                    "internalType": "address",
                    "name": "token",
                    "type": "address"
                },
                {
                    "internalType": "address",
                    "name": "feeTo",
                    "type": "address"
                },
                {
                    "internalType": "uint256",
                    "name": "feeRate",
                    "type": "uint256"
                }
            ],
            "stateMutability": "nonpayable",
            "type": "constructor"
        },
        {
            "inputs": [],
            "name": "T",
            "type": "error"
        },
        {
            "anonymous": false,
            "inputs": [
                {
                    "indexed": true,
                    "internalType": "address",
                    "name": "payer",
                    "type": "address"
                },
                {
                    "indexed": true,
                    "internalType": "address",
                    "name": "recipient",
                    "type": "address"
                },
                {
                    "indexed": true,
                    "internalType": "uint256",
                    "name": "sideMax",
                    "type": "uint256"
                },
                {
                    "indexed": false,
                    "internalType": "uint256",
                    "name": "sideIn",
                    "type": "uint256"
                },
                {
                    "indexed": false,
                    "internalType": "uint256",
                    "name": "sideOut",
                    "type": "uint256"
                },
                {
                    "indexed": false,
                    "internalType": "uint256",
                    "name": "maturity",
                    "type": "uint256"
                },
                {
                    "indexed": false,
                    "internalType": "uint256",
                    "name": "amountIn",
                    "type": "uint256"
                },
                {
                    "indexed": false,
                    "internalType": "uint256",
                    "name": "amountOut",
                    "type": "uint256"
                },
                {
                    "indexed": false,
                    "internalType": "uint256",
                    "name": "price",
                    "type": "uint256"
                }
            ],
            "name": "Swap",
            "type": "event"
        },
        {
            "inputs": [
                {
                    "internalType": "address",
                    "name": "TOKEN",
                    "type": "address"
                },
                {
                    "internalType": "uint256",
                    "name": "FEE_RATE",
                    "type": "uint256"
                },
                {
                    "internalType": "uint256",
                    "name": "twap",
                    "type": "uint256"
                },
                {
                    "internalType": "uint256",
                    "name": "spot",
                    "type": "uint256"
                }
            ],
            "name": "compute",
            "outputs": [
                {
                    "components": [
                        {
                            "components": [
                                {
                                    "internalType": "address",
                                    "name": "FETCHER",
                                    "type": "address"
                                },
                                {
                                    "internalType": "bytes32",
                                    "name": "ORACLE",
                                    "type": "bytes32"
                                },
                                {
                                    "internalType": "address",
                                    "name": "TOKEN_R",
                                    "type": "address"
                                },
                                {
                                    "internalType": "uint256",
                                    "name": "K",
                                    "type": "uint256"
                                },
                                {
                                    "internalType": "uint256",
                                    "name": "MARK",
                                    "type": "uint256"
                                },
                                {
                                    "internalType": "uint256",
                                    "name": "INTEREST_HL",
                                    "type": "uint256"
                                },
                                {
                                    "internalType": "uint256",
                                    "name": "PREMIUM_HL",
                                    "type": "uint256"
                                },
                                {
                                    "internalType": "uint256",
                                    "name": "MATURITY",
                                    "type": "uint256"
                                },
                                {
                                    "internalType": "uint256",
                                    "name": "MATURITY_VEST",
                                    "type": "uint256"
                                },
                                {
                                    "internalType": "uint256",
                                    "name": "MATURITY_RATE",
                                    "type": "uint256"
                                },
                                {
                                    "internalType": "uint256",
                                    "name": "OPEN_RATE",
                                    "type": "uint256"
                                }
                            ],
                            "internalType": "struct Config",
                            "name": "config",
                            "type": "tuple"
                        },
                        {
                            "components": [
                                {
                                    "internalType": "uint256",
                                    "name": "R",
                                    "type": "uint256"
                                },
                                {
                                    "internalType": "uint256",
                                    "name": "a",
                                    "type": "uint256"
                                },
                                {
                                    "internalType": "uint256",
                                    "name": "b",
                                    "type": "uint256"
                                }
                            ],
                            "internalType": "struct State",
                            "name": "state",
                            "type": "tuple"
                        },
                        {
                            "internalType": "uint256",
                            "name": "sA",
                            "type": "uint256"
                        },
                        {
                            "internalType": "uint256",
                            "name": "sB",
                            "type": "uint256"
                        },
                        {
                            "internalType": "uint256",
                            "name": "sC",
                            "type": "uint256"
                        },
                        {
                            "internalType": "uint256",
                            "name": "rA",
                            "type": "uint256"
                        },
                        {
                            "internalType": "uint256",
                            "name": "rB",
                            "type": "uint256"
                        },
                        {
                            "internalType": "uint256",
                            "name": "rC",
                            "type": "uint256"
                        },
                        {
                            "internalType": "uint256",
                            "name": "twap",
                            "type": "uint256"
                        },
                        {
                            "internalType": "uint256",
                            "name": "spot",
                            "type": "uint256"
                        }
                    ],
                    "internalType": "struct View.StateView",
                    "name": "stateView",
                    "type": "tuple"
                }
            ],
            "stateMutability": "nonpayable",
            "type": "function"
        },
        {
            "inputs": [],
            "name": "ensureStateIntegrity",
            "outputs": [],
            "stateMutability": "view",
            "type": "function"
        },
        {
            "inputs": [
                {
                    "internalType": "uint256",
                    "name": "ORACLE",
                    "type": "uint256"
                }
            ],
            "name": "fetch",
            "outputs": [
                {
                    "internalType": "uint256",
                    "name": "twap",
                    "type": "uint256"
                },
                {
                    "internalType": "uint256",
                    "name": "spot",
                    "type": "uint256"
                }
            ],
            "stateMutability": "view",
            "type": "function"
        },
        {
            "inputs": [],
            "name": "getStates",
            "outputs": [
                {
                    "internalType": "uint256",
                    "name": "R",
                    "type": "uint256"
                },
                {
                    "internalType": "uint256",
                    "name": "a",
                    "type": "uint256"
                },
                {
                    "internalType": "uint256",
                    "name": "b",
                    "type": "uint256"
                },
                {
                    "internalType": "uint32",
                    "name": "i",
                    "type": "uint32"
                },
                {
                    "internalType": "uint32",
                    "name": "f",
                    "type": "uint32"
                }
            ],
            "stateMutability": "view",
            "type": "function"
        },
        {
            "inputs": [
                {
                    "components": [
                        {
                            "internalType": "uint256",
                            "name": "R",
                            "type": "uint256"
                        },
                        {
                            "internalType": "uint256",
                            "name": "a",
                            "type": "uint256"
                        },
                        {
                            "internalType": "uint256",
                            "name": "b",
                            "type": "uint256"
                        }
                    ],
                    "internalType": "struct State",
                    "name": "state",
                    "type": "tuple"
                },
                {
                    "components": [
                        {
                            "internalType": "address",
                            "name": "utr",
                            "type": "address"
                        },
                        {
                            "internalType": "bytes",
                            "name": "payer",
                            "type": "bytes"
                        },
                        {
                            "internalType": "address",
                            "name": "recipient",
                            "type": "address"
                        }
                    ],
                    "internalType": "struct Payment",
                    "name": "payment",
                    "type": "tuple"
                }
            ],
            "name": "init",
            "outputs": [],
            "stateMutability": "nonpayable",
            "type": "function"
        },
        {
            "inputs": [],
            "name": "loadConfig",
            "outputs": [
                {
                    "components": [
                        {
                            "internalType": "address",
                            "name": "FETCHER",
                            "type": "address"
                        },
                        {
                            "internalType": "bytes32",
                            "name": "ORACLE",
                            "type": "bytes32"
                        },
                        {
                            "internalType": "address",
                            "name": "TOKEN_R",
                            "type": "address"
                        },
                        {
                            "internalType": "uint256",
                            "name": "K",
                            "type": "uint256"
                        },
                        {
                            "internalType": "uint256",
                            "name": "MARK",
                            "type": "uint256"
                        },
                        {
                            "internalType": "uint256",
                            "name": "INTEREST_HL",
                            "type": "uint256"
                        },
                        {
                            "internalType": "uint256",
                            "name": "PREMIUM_HL",
                            "type": "uint256"
                        },
                        {
                            "internalType": "uint256",
                            "name": "MATURITY",
                            "type": "uint256"
                        },
                        {
                            "internalType": "uint256",
                            "name": "MATURITY_VEST",
                            "type": "uint256"
                        },
                        {
                            "internalType": "uint256",
                            "name": "MATURITY_RATE",
                            "type": "uint256"
                        },
                        {
                            "internalType": "uint256",
                            "name": "OPEN_RATE",
                            "type": "uint256"
                        }
                    ],
                    "internalType": "struct Config",
                    "name": "config",
                    "type": "tuple"
                }
            ],
            "stateMutability": "pure",
            "type": "function"
        },
        {
            "inputs": [
                {
                    "internalType": "address",
                    "name": "",
                    "type": "address"
                },
                {
                    "internalType": "address",
                    "name": "",
                    "type": "address"
                },
                {
                    "internalType": "uint256[]",
                    "name": "",
                    "type": "uint256[]"
                },
                {
                    "internalType": "uint256[]",
                    "name": "",
                    "type": "uint256[]"
                },
                {
                    "internalType": "bytes",
                    "name": "",
                    "type": "bytes"
                }
            ],
            "name": "onERC1155BatchReceived",
            "outputs": [
                {
                    "internalType": "bytes4",
                    "name": "",
                    "type": "bytes4"
                }
            ],
            "stateMutability": "nonpayable",
            "type": "function"
        },
        {
            "inputs": [
                {
                    "internalType": "address",
                    "name": "",
                    "type": "address"
                },
                {
                    "internalType": "address",
                    "name": "",
                    "type": "address"
                },
                {
                    "internalType": "uint256",
                    "name": "",
                    "type": "uint256"
                },
                {
                    "internalType": "uint256",
                    "name": "",
                    "type": "uint256"
                },
                {
                    "internalType": "bytes",
                    "name": "",
                    "type": "bytes"
                }
            ],
            "name": "onERC1155Received",
            "outputs": [
                {
                    "internalType": "bytes4",
                    "name": "",
                    "type": "bytes4"
                }
            ],
            "stateMutability": "nonpayable",
            "type": "function"
        },
        {
            "inputs": [
                {
                    "internalType": "bytes4",
                    "name": "interfaceId",
                    "type": "bytes4"
                }
            ],
            "name": "supportsInterface",
            "outputs": [
                {
                    "internalType": "bool",
                    "name": "",
                    "type": "bool"
                }
            ],
            "stateMutability": "view",
            "type": "function"
        },
        {
            "inputs": [
                {
                    "components": [
                        {
                            "internalType": "uint256",
                            "name": "sideIn",
                            "type": "uint256"
                        },
                        {
                            "internalType": "uint256",
                            "name": "sideOut",
                            "type": "uint256"
                        },
                        {
                            "internalType": "address",
                            "name": "helper",
                            "type": "address"
                        },
                        {
                            "internalType": "bytes",
                            "name": "payload",
                            "type": "bytes"
                        }
                    ],
                    "internalType": "struct Param",
                    "name": "param",
                    "type": "tuple"
                },
                {
                    "components": [
                        {
                            "internalType": "address",
                            "name": "utr",
                            "type": "address"
                        },
                        {
                            "internalType": "bytes",
                            "name": "payer",
                            "type": "bytes"
                        },
                        {
                            "internalType": "address",
                            "name": "recipient",
                            "type": "address"
                        }
                    ],
                    "internalType": "struct Payment",
                    "name": "payment",
                    "type": "tuple"
                }
            ],
            "name": "swap",
            "outputs": [
                {
                    "internalType": "uint256",
                    "name": "amountIn",
                    "type": "uint256"
                },
                {
                    "internalType": "uint256",
                    "name": "amountOut",
                    "type": "uint256"
                },
                {
                    "internalType": "uint256",
                    "name": "price",
                    "type": "uint256"
                }
            ],
            "stateMutability": "nonpayable",
            "type": "function"
        }
    ],
    "bytecode": "0x60e06040523480156200001157600080fd5b506040516200a1223803806200a1228339818101604052810190620000379190620003b3565b82828282620000576751b254c177f8694160c01b6200030860201b60201c565b6200007367b41fcb16927cca8360c01b6200030860201b60201c565b6200008f675f02b775b7bcaf6660c01b6200030860201b60201c565b620000ab678a20b0e25779e40960c01b6200030860201b60201c565b600073ffffffffffffffffffffffffffffffffffffffff168173ffffffffffffffffffffffffffffffffffffffff16036200011d576040517f08c379a0000000000000000000000000000000000000000000000000000000008152600401620001149062000470565b60405180910390fd5b62000139672fda48b77d25b70760c01b6200030860201b60201c565b6200015567f073fb5b7dd5c8cb60c01b6200030860201b60201c565b8073ffffffffffffffffffffffffffffffffffffffff1660808173ffffffffffffffffffffffffffffffffffffffff168152505050620001a6671982d5ae4bc18bff60c01b6200030b60201b60201c565b620001c267464dff985004aa1060c01b6200030b60201b60201c565b620001de67c0cf48763e8f0ee460c01b6200030b60201b60201c565b620001fa67e37cdd284af98d0060c01b6200030b60201b60201c565b600073ffffffffffffffffffffffffffffffffffffffff168273ffffffffffffffffffffffffffffffffffffffff16036200026c576040517f08c379a00000000000000000000000000000000000000000000000000000000081526004016200026390620004e2565b60405180910390fd5b6200028867d731a7f4acf7f1af60c01b6200030b60201b60201c565b620002a467eb5f9009954eea7760c01b6200030b60201b60201c565b8173ffffffffffffffffffffffffffffffffffffffff1660a08173ffffffffffffffffffffffffffffffffffffffff1681525050620002f4676e30a5516949cc6860c01b6200030b60201b60201c565b8060c0818152505050505050505062000504565b50565b50565b600080fd5b600073ffffffffffffffffffffffffffffffffffffffff82169050919050565b6000620003408262000313565b9050919050565b620003528162000333565b81146200035e57600080fd5b50565b600081519050620003728162000347565b92915050565b6000819050919050565b6200038d8162000378565b81146200039957600080fd5b50565b600081519050620003ad8162000382565b92915050565b600080600060608486031215620003cf57620003ce6200030e565b5b6000620003df8682870162000361565b9350506020620003f28682870162000361565b925050604062000405868287016200039c565b9150509250925092565b600082825260208201905092915050565b7f506f6f6c426173653a205a45524f5f4144445245535300000000000000000000600082015250565b6000620004586016836200040f565b9150620004658262000420565b602082019050919050565b600060208201905081810360008301526200048b8162000449565b9050919050565b7f506f6f6c4c6f6769633a205a45524f5f41444452455353000000000000000000600082015250565b6000620004ca6017836200040f565b9150620004d78262000492565b602082019050919050565b60006020820190508181036000830152620004fd81620004bb565b9050919050565b60805160a05160c051619b936200058f600039600081816136e00152613745015260006137f7015260008181610aa401528181610bae01528181610cdd01528181610e0c01528181610f5001528181611016015281816110d301528181611199015281816113b8015281816122ee015281816123ab0152818161246801526164420152619b936000f3fe608060405234801561001057600080fd5b50600436106100be5760003560e01c8063d8ab827411610076578063eb7e50dd1161005b578063eb7e50dd146101e2578063ed576204146101ec578063f23a6e611461021c576100be565b8063d8ab8274146101a4578063dc1a6f33146101c6576100be565b80632b2f2913116100a75780632b2f2913146101115780637a33e3b014610143578063bc197c8114610174576100be565b806301ffc9a7146100c357806322d65951146100f3575b600080fd5b6100dd60048036038101906100d891906176dd565b61024c565b6040516100ea9190617725565b60405180910390f35b6100fb610302565b6040516101089190617894565b60405180910390f35b61012b60048036038101906101269190617b6c565b6103c4565b60405161013a93929190617bf3565b60405180910390f35b61015d60048036038101906101589190617c2a565b611559565b60405161016b929190617c57565b60405180910390f35b61018e60048036038101906101899190617d48565b61179b565b60405161019b9190617e26565b60405180910390f35b6101ac6117b0565b6040516101bd959493929190617e60565b60405180910390f35b6101e060048036038101906101db9190617f17565b6119ae565b005b6101ea612517565b005b61020660048036038101906102019190617f73565b612615565b60405161021391906181d0565b60405180910390f35b610236600480360381019061023191906181ec565b61287f565b6040516102439190617e26565b60405180910390f35b600061026267d4c12ed2c7d1838d60c01b612894565b61027667c3cac2963e8f097260c01b612894565b61028a67d10670f201e4c27c60c01b612894565b636120612060e01b827bffffffffffffffffffffffffffffffffffffffffffffffffffffffff19161480156102cf57506102ce67888e29eb3297e56960c01b612897565b5b806102fb57506102de826128a2565b80156102fa57506102f96735bb443ef8117b3060c01b612897565b5b5b9050919050565b61030a617547565b61031e679274ff20d827742560c01b612894565b61033267f5d6f6755780f1d960c01b612894565b61034667dfad3d683fea144c60c01b612894565b606061035c672e57c0541c042b8160c01b612894565b602036038035808203604051935060208201840160405281845260208401828282375050505061039667b4353f1dd05226fe60c01b612894565b6103aa6770c6ea470692a72d60c01b612894565b808060200190518101906103be91906183e5565b91505090565b60008060006103dd67bfb497ad32fd147c60c01b612894565b6103f167f302717aed24ee0460c01b612894565b61040567bb350eff2a0b26d160c01b612894565b610419672239720c29c033d460c01b612894565b610421612517565b61043567d756910bead9ac4260c01b612894565b60018060008282829054906101000a900463ffffffff161792506101000a81548163ffffffff021916908363ffffffff16021790555061047f67516abefdd1c3f0be60c01b612894565b61049367dba9668644d9efa760c01b612894565b6104a767b9f29d111e5b581860c01b612894565b6104bb67f771e26c708e97a760c01b612894565b6104cf67af8c6e918370612360c01b612894565b60006104d9610302565b90506104ef672bef11b2364f559660c01b612894565b61050367323164ec67a1331d60c01b612894565b600061050f828861291c565b9050610525676347d4e44b62c3c560c01b612894565b80600001518160200151826040015180955081965082975050505061055467a7cd7ad929852ed260c01b612894565b61056867081418a1f0deaf4860c01b612894565b600061057e672d16d383274ae8d860c01b612894565b61059267a058eb5e9113684260c01b612894565b60008860000151036109b6576105b2677b483d31ae579eef60c01b612894565b6105c66728045c8e55eb6f0a60c01b612894565b6105da674eb38bb6d854eb5a60c01b612894565b6000876020015151111561094d576105fc67100e3b974db2676160c01b612894565b610610671038c2c44cfa2f4760c01b612894565b61062467e58ff8beebc38a1760c01b612894565b6014876020015151036106b957610645673ca25b5d934e322960c01b612894565b6106596708ec42efbbb6372f60c01b612894565b61066887602001516000614718565b905061067e67730dffb05432191f60c01b612894565b803060148560400151600060405160200161069d9594939291906184af565b60405160208183030381529060405287602001819052506106e5565b6106cd676df353601a5f151660c01b612894565b6106e167326ab4828610504860c01b612894565b3290505b6106f967cb28c220e843596560c01b612894565b61070d672a2469eb2517dcca60c01b612894565b6000836040015173ffffffffffffffffffffffffffffffffffffffff166370a08231306040518263ffffffff1660e01b815260040161074c9190618502565b602060405180830381865afa158015610769573d6000803e3d6000fd5b505050506040513d601f19601f8201168201806040525081019061078d919061851d565b876107989190618579565b90506107ae67c89620eaa9bbe3da60c01b612894565b6107c2676a7d78a4857c35b060c01b612894565b876000015173ffffffffffffffffffffffffffffffffffffffff1663715ef7f98960200151896040518363ffffffff1660e01b815260040161080592919061862c565b600060405180830381600087803b15801561081f57600080fd5b505af1158015610833573d6000803e3d6000fd5b5050505061084b6718f88ef7cc3e7cdc60c01b612894565b61085f6729a09506593e667660c01b612894565b610873677d32d0c94cd32e6f60c01b612894565b836040015173ffffffffffffffffffffffffffffffffffffffff166370a08231306040518263ffffffff1660e01b81526004016108b09190618502565b602060405180830381865afa1580156108cd573d6000803e3d6000fd5b505050506040513d601f19601f820116820180604052508101906108f1919061851d565b811115610933576040517f08c379a000000000000000000000000000000000000000000000000000000000815260040161092a906186b9565b60405180910390fd5b610947676b09b5376e0e8fc960c01b612894565b506109b1565b6109616742b7f1aa69b9981060c01b612894565b6109756769c9b31db561c89c60c01b612894565b610989674562824f785d87d860c01b612894565b610999836040015133308961478e565b6109ad67760812ba6152f3e860c01b612894565b3390505b611262565b6109ca67257b5687f278aa0b60c01b612894565b6109de6782ad3c3af9af115f60c01b612894565b6109f26779c9224e3c04591d60c01b612894565b6000610a02308a600001516148c7565b9050610a1867701498cd200c0ee660c01b612894565b610a2c673c5297faa73488c460c01b612894565b6000610a42679f4bc8f15a9dfc1860c01b612894565b610a566798cb68711fa5ce7460c01b612894565b600089602001515111156110a957610a7867561cef933ca6077160c01b612894565b610a8c67f1d6d6315bb45fbc60c01b612894565b610aa0673192a6176b1ee3b360c01b612894565b60007f000000000000000000000000000000000000000000000000000000000000000073ffffffffffffffffffffffffffffffffffffffff1662fdd58e30856040518363ffffffff1660e01b8152600401610afc9291906186d9565b602060405180830381865afa158015610b19573d6000803e3d6000fd5b505050506040513d601f19601f82011682018060405250810190610b3d919061851d565b9050610b5367a914df9199548dfb60c01b612894565b610b6767fb7d6d1ed309067d60c01b612894565b6000811115610c4057610b846734a93648dba8e03660c01b612894565b610b98679a37aea2d7ad9e4660c01b612894565b610bac67568bae3641c3871960c01b612894565b7f000000000000000000000000000000000000000000000000000000000000000073ffffffffffffffffffffffffffffffffffffffff1663f5298aca3085846040518463ffffffff1660e01b8152600401610c0993929190618702565b600060405180830381600087803b158015610c2357600080fd5b505af1158015610c37573d6000803e3d6000fd5b50505050610c55565b610c5467585909486d05d59660c01b612894565b5b610c6967f52297c3fc081f1a60c01b612894565b610c7d673a63c444759b38ce60c01b612894565b60148a602001515103610d2d57610c9e67b528c641196b857b60c01b612894565b610cb166de181f54d4f1f960c01b612894565b610cc08a602001516000614718565b9350610cd667f5e4c2159f6a572e60c01b612894565b83306104837f000000000000000000000000000000000000000000000000000000000000000086604051602001610d11959493929190618782565b6040516020818303038152906040528a60200181905250610d59565b610d41674d14474736564c8160c01b612894565b610d5567b0a9b8da31508d6e60c01b612894565b3293505b610d6d6740df1007ab529e9360c01b612894565b610d81670f1739f2c5e448d260c01b612894565b896000015173ffffffffffffffffffffffffffffffffffffffff1663715ef7f98b602001518b6040518363ffffffff1660e01b8152600401610dc492919061862c565b600060405180830381600087803b158015610dde57600080fd5b505af1158015610df2573d6000803e3d6000fd5b50505050610e0a67e3c19dc4c3406f4260c01b612894565b7f000000000000000000000000000000000000000000000000000000000000000073ffffffffffffffffffffffffffffffffffffffff1662fdd58e30856040518363ffffffff1660e01b8152600401610e649291906186d9565b602060405180830381865afa158015610e81573d6000803e3d6000fd5b505050506040513d601f19601f82011682018060405250810190610ea5919061851d565b9050610ebb676567c3abeb5c201d60c01b612894565b610ecf67e43b22c281d4653c60c01b612894565b610ee367812f574d9fbc832260c01b612894565b80891115610f26576040517f08c379a0000000000000000000000000000000000000000000000000000000008152600401610f1d906186b9565b60405180910390fd5b610f3a67c827f8874dd0ea7060c01b612894565b610f4e6795276e2cb940c93960c01b612894565b7f000000000000000000000000000000000000000000000000000000000000000073ffffffffffffffffffffffffffffffffffffffff1663cb263dc630856040518363ffffffff1660e01b8152600401610fa99291906186d9565b602060405180830381865afa158015610fc6573d6000803e3d6000fd5b505050506040513d601f19601f82011682018060405250810190610fea919061851d565b915061100067d22ae0a434be40bd60c01b612894565b611014678449450ad624a92060c01b612894565b7f000000000000000000000000000000000000000000000000000000000000000073ffffffffffffffffffffffffffffffffffffffff1663f5298aca3085846040518463ffffffff1660e01b815260040161107193929190618702565b600060405180830381600087803b15801561108b57600080fd5b505af115801561109f573d6000803e3d6000fd5b505050505061123e565b6110bd67fb5ddbdebc0162f260c01b612894565b6110d167e6df5bcaf321a21460c01b612894565b7f000000000000000000000000000000000000000000000000000000000000000073ffffffffffffffffffffffffffffffffffffffff1663cb263dc633846040518363ffffffff1660e01b815260040161112c9291906186d9565b602060405180830381865afa158015611149573d6000803e3d6000fd5b505050506040513d601f19601f8201168201806040525081019061116d919061851d565b905061118367a3416d97c66a634b60c01b612894565b611197676d82bbdd945f8e6d60c01b612894565b7f000000000000000000000000000000000000000000000000000000000000000073ffffffffffffffffffffffffffffffffffffffff1663f5298aca33848b6040518463ffffffff1660e01b81526004016111f493929190618702565b600060405180830381600087803b15801561120e57600080fd5b505af1158015611222573d6000803e3d6000fd5b5050505061123a67e70432ef845465ab60c01b612894565b3392505b611252677ce6f6851a33b9d160c01b612894565b61125d858289614916565b965050505b6112766726b88ddc234c4efe60c01b612894565b61128a67a9dff7806269bc2a60c01b612894565b60006112a0672b96ba165df34a5460c01b612894565b6112b467ed7eebed07e4d2a460c01b612894565b6000896020015103611314576112d46711a307be133578da60c01b612894565b6112e86708cb10733797d0bd60c01b612894565b6112fc67d02e862b54f6f37c60c01b612894565b61130f8460400151896040015188614b9c565b61144d565b61132867b80a636c86e386a760c01b612894565b61133c67b716388a5a37453960c01b612894565b6113506705b82c6f9af28fc060c01b612894565b6000611360308b602001516148c7565b9050611376671040f5a68c00df1b60c01b612894565b8460e001514263ffffffff1661138c9190618579565b91506113a2673745d6d971d1c21660c01b612894565b6113b6676d22298f5ff31f1060c01b612894565b7f000000000000000000000000000000000000000000000000000000000000000073ffffffffffffffffffffffffffffffffffffffff16633c8cb4ef8a60400151838a866040518563ffffffff1660e01b815260040161141994939291906187fb565b600060405180830381600087803b15801561143357600080fd5b505af1158015611447573d6000803e3d6000fd5b50505050505b611461675dd7f41c81f6704560c01b612894565b61147567f5489ebdd4cc138d60c01b612894565b61148789600001518a60200151614cd2565b886040015173ffffffffffffffffffffffffffffffffffffffff168373ffffffffffffffffffffffffffffffffffffffff167f2ad8739d64c070ab4ae9d9c0743d56550b22c3c8c96e7a6045fac37b5b8e89e38c600001518d60200151868d8d8d6040516114fa96959493929190618853565b60405180910390a45050505061151a67edbe8b85d3d5816d60c01b612894565b600119600160008282829054906101000a900463ffffffff161692506101000a81548163ffffffff021916908363ffffffff1602179055509250925092565b6000806115706705cfdc6c3ab36c4b60c01b614ceb565b61158467fb7ee2cea556c0c360c01b614ceb565b61159867934aa367f280ab9560c01b614ceb565b60008390506115b167ef33137e4e68ea8e60c01b614ceb565b6115c56722bd1277db3354d060c01b614ceb565b60006115d082614cee565b90506115e66782b9fb618d16aba660c01b614ceb565b6115fa6766f9241dc7005fa060c01b614ceb565b600061160a8360c088901c614e63565b50905061162167779b02b63df9b4f260c01b614ceb565b61163567d0a5cc4f19c0424460c01b614ceb565b600061164082615139565b73ffffffffffffffffffffffffffffffffffffffff16905061166c6791137ea81b50789260c01b614ceb565b602083901b945061168767e5d3506a23279df260c01b614ceb565b602081901b95506116a2676387e24c45cc30ca60c01b614ceb565b6116b6672aedfd9d3a9a1beb60c01b614ceb565b60007f800000000000000000000000000000000000000000000000000000000000000088160361177d576116f467e8cc980a16fee9dc60c01b614ceb565b611708672cc21bb73169432c60c01b614ceb565b847fffffffffffffffffffffffffffffffffffffffffffffffffffffffffffffffff61173491906188e3565b945061174a67a699e8173ab6f9a160c01b614ceb565b857fffffffffffffffffffffffffffffffffffffffffffffffffffffffffffffffff61177691906188e3565b9550611792565b6117916794cc4fdbf453236560c01b614ceb565b5b50505050915091565b600063bc197c8160e01b905095945050505050565b60008060008060006117cc675e8e828673a615ad60c01b612894565b6117e067f52f152d21e9d98360c01b612894565b6117f467b42646b4672c036860c01b612894565b60006117fe610302565b90506118146708513d11d69c404a60c01b612894565b806040015173ffffffffffffffffffffffffffffffffffffffff166370a08231306040518263ffffffff1660e01b81526004016118519190618502565b602060405180830381865afa15801561186e573d6000803e3d6000fd5b505050506040513d601f19601f82011682018060405250810190611892919061851d565b95506118a867dc79dca4b161f53d60c01b612894565b60008054906101000a900463ffffffff1692506118cf67436035688f212ed660c01b612894565b600060049054906101000a90047bffffffffffffffffffffffffffffffffffffffffffffffffffffffff167bffffffffffffffffffffffffffffffffffffffffffffffffffffffff16945061192e67da6d42595ffb383160c01b612894565b600119600160009054906101000a900463ffffffff1616915061195b67235d06d328f720f760c01b612894565b600160049054906101000a90047bffffffffffffffffffffffffffffffffffffffffffffffffffffffff167bffffffffffffffffffffffffffffffffffffffffffffffffffffffff169350509091929394565b6119c267f403b7abd216ea8560c01b612894565b6119d667c5323e6f7e23092f60c01b612894565b6119ea67844010eaace7fae760c01b612894565b6119fe67ce464eff3fc0c87d60c01b612894565b60008060009054906101000a900463ffffffff1663ffffffff1614611a58576040517f08c379a0000000000000000000000000000000000000000000000000000000008152600401611a4f90618960565b60405180910390fd5b611a6c677aeae808d2141ee060c01b612894565b611a80674894cff85729761d60c01b612894565b611a9467adeb02361b53afad60c01b612894565b600082600001519050611ab1671f8711535d97aad660c01b612894565b611ac5673d7e17538801183f60c01b612894565b600083602001519050611ae267c6d1738657029cd260c01b612894565b611af6672ad030cb1a7ae4fd60c01b612894565b600084604001519050611b1367bcd26fd6aa68015360c01b612894565b611b27672d3b3ddbcfefa84d60c01b612894565b611b3b67b600da23ead0d47c60c01b612894565b600083118015611b4b5750600082115b8015611b575750600081115b611b96576040517f08c379a0000000000000000000000000000000000000000000000000000000008152600401611b8d906189cc565b60405180910390fd5b611baa67bc019e14768b6d4260c01b612894565b611bbe67f44be74a06ded10c60c01b612894565b611bd2671f527a3134e6ff0960c01b612894565b611be667e4532f91d69abb5160c01b612894565b600183901c8211158015611bfe5750600183901c8111155b611c3d576040517f08c379a0000000000000000000000000000000000000000000000000000000008152600401611c3490618a38565b60405180910390fd5b611c516762a9289091d5beac60c01b612894565b611c6567884faacccfdf18ae60c01b612894565b426000806101000a81548163ffffffff021916908363ffffffff160217905550611c99670a49e9adb49c097b60c01b612894565b81600060046101000a8154817bffffffffffffffffffffffffffffffffffffffffffffffffffffffff02191690837bffffffffffffffffffffffffffffffffffffffffffffffffffffffff160217905550611cfe6750e869387e51386360c01b612894565b60011963ffffffff164216600160006101000a81548163ffffffff021916908363ffffffff160217905550611d3d67f318bc401842373c60c01b612894565b80600160046101000a8154817bffffffffffffffffffffffffffffffffffffffffffffffffffffffff02191690837bffffffffffffffffffffffffffffffffffffffffffffffffffffffff160217905550611da267ee5364bc5dc64b9360c01b612894565b611db6674c498c12c0e6193560c01b612894565b6000611dc0610302565b9050611dd66737909a5b5c650b2b60c01b612894565b611dea678d910c617eca336160c01b612894565b6000856020015151111561215d57611e0c67f8c58cd15b13b2e360c01b612894565b611e2067e26f6660c989d1b360c01b612894565b611e34672fc556b368bf8ed360c01b612894565b6000816040015173ffffffffffffffffffffffffffffffffffffffff166370a08231306040518263ffffffff1660e01b8152600401611e739190618502565b602060405180830381865afa158015611e90573d6000803e3d6000fd5b505050506040513d601f19601f82011682018060405250810190611eb4919061851d565b85611ebf9190618579565b9050611ed5672656fd7be45cfb7e60c01b612894565b611ee967d1ff3b6494949ab760c01b612894565b601486602001515103611f9557611f0a67f95ea8d08afd5fee60c01b612894565b611f1e67979339606bbf6a4b60c01b612894565b611f3267d2bb3eab1cfce8e460c01b612894565b6000611f4387602001516000614718565b9050611f596703a74e5a3f553fed60c01b612894565b8030601485604001516000604051602001611f789594939291906184af565b604051602081830303815290604052876020018190525050611faa565b611fa96743d3a7e311b3c6b060c01b612894565b5b611fbe67cb6b68a9a727414b60c01b612894565b611fd2677059ab632527d84260c01b612894565b856000015173ffffffffffffffffffffffffffffffffffffffff1663715ef7f98760200151876040518363ffffffff1660e01b815260040161201592919061862c565b600060405180830381600087803b15801561202f57600080fd5b505af1158015612043573d6000803e3d6000fd5b5050505061205b6792f68c62cc919e9d60c01b612894565b61206f67a0e92efade4137b060c01b612894565b612083674c6396c8bcc8b5d160c01b612894565b816040015173ffffffffffffffffffffffffffffffffffffffff166370a08231306040518263ffffffff1660e01b81526004016120c09190618502565b602060405180830381865afa1580156120dd573d6000803e3d6000fd5b505050506040513d601f19601f82011682018060405250810190612101919061851d565b811115612143576040517f08c379a000000000000000000000000000000000000000000000000000000000815260040161213a906186b9565b60405180910390fd5b61215767ec4b9c891ede33f160c01b612894565b506121aa565b612171672b6ff2d497ad3ff860c01b612894565b61218567be6b5cfa8531756960c01b612894565b612199676f396cca6b22960960c01b612894565b6121a9816040015133308761478e565b5b6121be678da24f3b4af4c0b560c01b612894565b6121d267b9963146c4343cbe60c01b612894565b60006121df3060106148c7565b90506121f567c9710425e557279360c01b612894565b6122096740052bd7c84e382d60c01b612894565b60006122163060206148c7565b905061222c6705cc982b4851f66b60c01b612894565b6122406768b644a1fbb8b87e60c01b612894565b600061224d3060306148c7565b90506122636784bb7f08747d1b5860c01b612894565b612277676ccdc6d27caf488d60c01b612894565b600060038861228691906188e3565b905061229c673dae720a4e722b6960c01b612894565b6122b0677e652ebe2128724d60c01b612894565b60008560e00151426122c29190618579565b90506122d867e878ea4e89d7f72e60c01b612894565b6122ec67a474888724e801b960c01b612894565b7f000000000000000000000000000000000000000000000000000000000000000073ffffffffffffffffffffffffffffffffffffffff16633c8cb4ef8b604001518785856040518563ffffffff1660e01b815260040161234f94939291906187fb565b600060405180830381600087803b15801561236957600080fd5b505af115801561237d573d6000803e3d6000fd5b50505050612395672558ffb450f954cf60c01b612894565b6123a96732cc3b1f1760719360c01b612894565b7f000000000000000000000000000000000000000000000000000000000000000073ffffffffffffffffffffffffffffffffffffffff16633c8cb4ef8b604001518685856040518563ffffffff1660e01b815260040161240c94939291906187fb565b600060405180830381600087803b15801561242657600080fd5b505af115801561243a573d6000803e3d6000fd5b5050505061245267344f204ba9f8c9c160c01b612894565b61246667acc176b9ddb0313260c01b612894565b7f000000000000000000000000000000000000000000000000000000000000000073ffffffffffffffffffffffffffffffffffffffff16633c8cb4ef8b6040015185600186901b8d6124b89190618a58565b856040518563ffffffff1660e01b81526004016124d894939291906187fb565b600060405180830381600087803b1580156124f257600080fd5b505af1158015612506573d6000803e3d6000fd5b505050505050505050505050505050565b61252b67d51574213c9e770660c01b612894565b61253f67a9ebf7788d485a7660c01b612894565b61255367a7062509c1d4f31d60c01b612894565b6000600160009054906101000a900463ffffffff1663ffffffff169050612584674df70ad7611c763d60c01b612894565b61259867d3a90d2a890cd26d60c01b612894565b6125ac676ccaedea2087d85e60c01b612894565b6000600182161480156125bf5750600081115b6125fe576040517f08c379a00000000000000000000000000000000000000000000000000000000081526004016125f590618ad8565b60405180910390fd5b61261267182429149310caaf60c01b612894565b50565b61261d6175d0565b6000612627610302565b9050600060405180606001604052806126438460400151615545565b8152602001600060049054906101000a90047bffffffffffffffffffffffffffffffffffffffffffffffffffffffff167bffffffffffffffffffffffffffffffffffffffffffffffffffffffff168152602001600160049054906101000a90047bffffffffffffffffffffffffffffffffffffffffffffffffffffffff167bffffffffffffffffffffffffffffffffffffffffffffffffffffffff1681525090506000851480156126f45750600084145b156127175761270e8260000151836020015160001c615604565b80955081965050505b60008061272d6127278589615788565b846159e0565b91509150600080612747612741878a615788565b866159e0565b91509150600061275e8b8888600001518888615a7b565b80965081975082935050505061277b8b8888600001518686615a7b565b88600001819550829650838152505050506127968584615d66565b8860a00181815250506127a98483615d66565b8860c00181815250506127ec8486836127c29190618a58565b6127cc9190618a58565b838589600001516127dd9190618a58565b6127e79190618a58565b615d66565b8860e0018181525050856000015181101561280c57808660000181815250505b6128178c6010615d7f565b88604001818152505061282b8c6020615d7f565b88606001818152505061283f8c6030615d7f565b8860800181815250508988610100018181525050888861012001818152505086886000018190525085886020018190525050505050505050949350505050565b600063f23a6e6160e01b905095945050505050565b50565b600060019050919050565b60007f4e2312e0000000000000000000000000000000000000000000000000000000007bffffffffffffffffffffffffffffffffffffffffffffffffffffffff1916827bffffffffffffffffffffffffffffffffffffffffffffffffffffffff19161480612915575061291482615e0c565b5b9050919050565b61292461762f565b6129386728a7cd264e85e93f60c01b615e76565b61294c67b2d7c168ec48a0d760c01b615e76565b612960677641276c586bac1960c01b615e76565b60008260000151905061297d676af9661e5cdf5a1260c01b615e76565b612991676d83d7ed465d1ee260c01b615e76565b6000836020015190506129ae67831dba6fd1c65b4e60c01b615e76565b6129c2675f378578fcc79d3860c01b615e76565b6129d667c58893141157aed260c01b615e76565b808203612a18576040517f08c379a0000000000000000000000000000000000000000000000000000000008152600401612a0f90618b44565b60405180910390fd5b612a2c67983c515be366090960c01b615e76565b612a40670de4caa5b4c3b31660c01b615e76565b612a5467ab8c110f440265db60c01b615e76565b612a68676b155d1cd13c6cb060c01b615e76565b600082148015612a885750612a876756d0caf21368cb5d60c01b615e79565b5b80612acb5750601082148015612aae5750612aad672a1709141d7644fe60c01b615e79565b5b8015612aca5750612ac96773c59ed646ef5c2e60c01b615e79565b5b5b80612b0e5750602082148015612af15750612af0677de64217b1880ff460c01b615e79565b5b8015612b0d5750612b0c675425ad6c2d2bf0cc60c01b615e79565b5b5b80612b355750603082148015612b345750612b33677bfb5d17b87267ee60c01b615e79565b5b5b612b74576040517f08c379a0000000000000000000000000000000000000000000000000000000008152600401612b6b90618bb0565b60405180910390fd5b612b88674f4d165fc3b4bdca60c01b615e76565b612b9c67b50836d9ae292a3960c01b615e76565b612bb067ce93feb965e27e4c60c01b615e76565b612bc467bfe864376cd08ad060c01b615e76565b600081148015612be45750612be367fcfe0e9d96a9923160c01b615e79565b5b80612c275750601081148015612c0a5750612c09672028f5cd1756d04660c01b615e79565b5b8015612c265750612c2567eb3387533f95ab2a60c01b615e79565b5b5b80612c6a5750602081148015612c4d5750612c4c6792bb7f4cfd331e4d60c01b615e79565b5b8015612c695750612c6867dfd7d522d149d51d60c01b615e79565b5b5b80612c915750603081148015612c905750612c8f67f0ead1434a3e525060c01b615e79565b5b5b612cd0576040517f08c379a0000000000000000000000000000000000000000000000000000000008152600401612cc790618c1c565b60405180910390fd5b612ce4676e598f1cef5049c760c01b615e76565b612cf8679b8d1acef892f08160c01b615e76565b612d0c671cdd8b9bae5d54b560c01b615e76565b60006040518060600160405280612d268860400151615545565b8152602001600060049054906101000a90047bffffffffffffffffffffffffffffffffffffffffffffffffffffffff167bffffffffffffffffffffffffffffffffffffffffffffffffffffffff168152602001600160049054906101000a90047bffffffffffffffffffffffffffffffffffffffffffffffffffffffff167bffffffffffffffffffffffffffffffffffffffffffffffffffffffff168152509050612ddb67502439aec5fc528160c01b615e76565b6000612df167f6cd2c5a7828535460c01b615e76565b6000612e0767855ef8d605d6269560c01b615e76565b6000612e1d670fc32a26ae4f50cb60c01b615e76565b612e2989858888615e84565b8a6040018181525081945082955083965050505050612e52677477c49aa976870560c01b615e76565b612e6667d4fe8adb940bf87f60c01b615e76565b612e7a676202874d0b4b811060c01b615e76565b60008183866000015103039050612e9b67efe64eafabd0f53660c01b615e76565b612eaf67f48685d45bd9f15860c01b615e76565b60008a60a00151111561314e57612ed067c518924ef3e2584260c01b615e76565b612ee467eee22b542e715b5a60c01b615e76565b612ef867086d3a62c2c7c2b660c01b615e76565b60008060009054906101000a900463ffffffff16420363ffffffff169050612f2a67c7e1c78122bc6bce60c01b615e76565b612f3e67c0bbd5b706cce60d60c01b615e76565b600081111561313357612f5b674235f13c35d1249f60c01b615e76565b612f6f675f328e03e254206060c01b615e76565b612f8367b3a2fbac08116e3260c01b615e76565b6000612f93828d60a00151616225565b9050612fa9674090a6fdcfa936fb60c01b615e76565b612fbd67a4e1b7193873242360c01b615e76565b6000612fd38683680100000000000000006162bd565b9050612fe967b0290475728b6ccf60c01b615e76565b612ffd670ec621756b0b6e0860c01b615e76565b60006130138684680100000000000000006162bd565b90506130296702fdce04df62328160c01b615e76565b61303d673619ecd7f374007460c01b615e76565b868210801561305c575061305b676c7fe154c310255b60c01b615e79565b5b8061308257508581108015613081575061308067b14ca11c8f048e2a60c01b615e79565b5b5b156131165761309b67f8524f9ade23ef6d60c01b615e76565b6130af67efe70e4c5908a38760c01b615e76565b6130ba826001614cd2565b96506130d067ca36f97e5b5a4eca60c01b615e76565b6130db816001614cd2565b95506130f1675b9081bb808a728760c01b615e76565b426000806101000a81548163ffffffff021916908363ffffffff16021790555061312b565b61312a67706feb26d7f0db5260c01b615e76565b5b505050613148565b613147678be2741390b1beee60c01b615e76565b5b50613163565b61316267cf0e22198711c1a260c01b615e76565b5b61317767e88d4453ee82798260c01b615e76565b61318b67df158d95e5128b6560c01b615e76565b60008a60c00151111561369f576131ac671d6c2b1fcca79fc360c01b615e76565b6131c067701f1ee8825709ce60c01b615e76565b6131d467df3f36b1c7ed8af560c01b615e76565b600082841180156131f557506131f4679d3c43db5dac4ae260c01b615e79565b5b80613210575061320f67e52a4d2f75c19d8c60c01b616322565b5b61321c57838303613220565b8284035b905061323667f3b6df05a381ce5160c01b615e76565b61324a67b5311fb983e1ff6c60c01b615e76565b600181111561368457613267679722d058437eb56d60c01b615e76565b61327b677c86f3a1758582cf60c01b615e76565b80600190039050613296676b357945f7465d6960c01b615e76565b6132aa67f37395c3fe6f393560c01b615e76565b6000866000015190506132c7670cebff501e84e5a660c01b615e76565b6132db67b6111c4dc41dcfc360c01b615e76565b6000600119600160009054906101000a900463ffffffff161660011963ffffffff1642160363ffffffff16905061331c67e536b91591f5eff160c01b615e76565b61333067874ae7bd916432f360c01b615e76565b60008111156136685761334d67b861011c3b9fd1e760c01b615e76565b613361679e0b2e301d8516af60c01b615e76565b613375674068f37fbb63da1460c01b615e76565b600061338b6746405c0de0b173bd60c01b615e76565b61339f675f523453a1deb5f260c01b615e76565b858711156133e5576133bb672bf11e5ff352a61960c01b615e76565b6133cf67e7c8d031c5a60bf660c01b615e76565b6133dc8387868603616329565b8703905061341f565b6133f9671e699f556498717e60c01b615e76565b61340d676b0d866c2a1bff3a60c01b615e76565b61341a8388868603616329565b860390505b61343367b8cc41c3e5f0dddd60c01b615e76565b61344767a46e6d8b7227854460c01b615e76565b60006134588f60c0015183876162bd565b905061346e671dda368d127527d560c01b615e76565b613479600182614cd2565b905061348f6758043d5dfa1c1b8460c01b615e76565b6134a367ec3d2780f841357460c01b615e76565b60006134af8483616225565b90506134c5679b7b10f63758f36160c01b615e76565b6134d98382680100000000000000006162bd565b830392506134f16715d3b7838b31ef7b60c01b615e76565b6135056794d0553e1fa431a860c01b615e76565b600083111561364b5761352267ed4fc2946f5fcc0360c01b615e76565b613536675dbd9b0c1458aeb460c01b615e76565b61354a67799fddefe417a0e260c01b615e76565b878911156135a957613566672fa58cb19adfb6e260c01b615e76565b61357a673528ec196cdb735160c01b615e76565b61358783898b8803616329565b8801975061359f6785c8d49e890f406760c01b615e76565b82890398506135fc565b6135bd672f31465b218f401060c01b615e76565b6135d167190ac728d522a55960c01b615e76565b6135de838a8a8803616329565b890198506135f667e579941a837eadfd60c01b615e76565b82880397505b61361067a516f45ecc9d638a60c01b615e76565b83600160008282829054906101000a900463ffffffff160192506101000a81548163ffffffff021916908363ffffffff160217905550613660565b61365f679b7d098ab382f7f260c01b615e76565b5b50505061367d565b61367c673d8708e6c2f776cf60c01b615e76565b5b5050613699565b6136986748333f18919d99e060c01b615e76565b5b506136b4565b6136b367492ee0460a86aa0960c01b615e76565b5b6136c867673fc5f1bd64729d60c01b615e76565b6136dc6715c6bd6cad7c4ffc60c01b615e76565b60007f0000000000000000000000000000000000000000000000000000000000000000111561386057613719670f96afdf2544d05f60c01b615e76565b61372d671e4225337cd5637160c01b615e76565b61374167a20cd3ca066ad89a60c01b615e76565b60007f000000000000000000000000000000000000000000000000000000000000000082848689600001510303038161377d5761377c6188b4565b5b049050613794675f14586a13348fbd60c01b615e76565b6137a8674754bde74638d29e60c01b615e76565b6000811115613845576137c567064d72069609ccc960c01b615e76565b6137d967f30a71c270144d5060c01b615e76565b6137ed676846c67fc6bad35560c01b615e76565b61381c8b604001517f000000000000000000000000000000000000000000000000000000000000000083614b9c565b613830679a1f834d2204047d60c01b615e76565b8086600001818151039150818152505061385a565b6138596780077dfc2bdffcfd60c01b615e76565b5b50613875565b61387467095f3afeb12a73b660c01b615e76565b5b5061388a67253b0e940e1b96fb60c01b615e76565b61389e67b56d95f56f778f5860c01b615e76565b6000886040015173ffffffffffffffffffffffffffffffffffffffff1663dc0192e8604051806080016040528087815260200188600001518152602001868152602001858152508b606001516040518363ffffffff1660e01b8152600401613907929190618c91565b606060405180830381865afa158015613924573d6000803e3d6000fd5b505050506040513d601f19601f820116820180604052508101906139489190618d25565b905061395e6726b035bb5e643eab60c01b615e76565b61397267114e9577ddbec3a560c01b615e76565b613986674736bbb6f51e455460c01b615e76565b7bffffffffffffffffffffffffffffffffffffffffffffffffffffffff8016816020015111156139eb576040517f08c379a00000000000000000000000000000000000000000000000000000000081526004016139e290618d9e565b60405180910390fd5b6139ff679674b2ab0e0031e160c01b615e76565b613a136737525f1bb8eaf19760c01b615e76565b613a27672fb995c37dfb76e460c01b615e76565b613a3b6729e588c77781b5b660c01b615e76565b7bffffffffffffffffffffffffffffffffffffffffffffffffffffffff801681604001511115613aa0576040517f08c379a0000000000000000000000000000000000000000000000000000000008152600401613a9790618e0a565b60405180910390fd5b613ab467cf95580a2907c6fb60c01b615e76565b613ac867bd6667a26f5dcc2660c01b615e76565b613adc674c45c75bbd4bca4160c01b615e76565b600080613ae986846159e0565b91509150613b01673a2d3eca82c2058d60c01b615e76565b613b156720f6787a5f2e63a360c01b615e76565b60008903613c0457613b306663e007defa937a60c01b615e76565b613b4366168bd07c5b26d560c01b615e76565b613b5767484b964a518bd05960c01b615e76565b613b6b67d7a2dfa274750cdf60c01b615e76565b848210158015613b7b5750838110155b613bba576040517f08c379a0000000000000000000000000000000000000000000000000000000008152600401613bb190618e76565b60405180910390fd5b613bce671ecaa66884665c1a60c01b615e76565b613be2679108cdc04f3fe39160c01b615e76565b86600001518360000151613bf69190618a58565b8a6000018181525050614137565b613c18671525816335430fc860c01b615e76565b613c2c677730bb34995b3a4260c01b615e76565b613c406771bd8be02b6f7eb360c01b615e76565b613c5467f679b1842ae76f7060c01b615e76565b826000015187600001511015613c9f576040517f08c379a0000000000000000000000000000000000000000000000000000000008152600401613c9690618ee2565b60405180910390fd5b613cb367ee77b86fbf14273760c01b615e76565b613cc767272a7e307ece041860c01b615e76565b613cdb67bda25dd2f9ab3fd160c01b615e76565b6000613ce68a616402565b9050613cfc67123a7b5717a0959860c01b615e76565b613d10672ea334f18dcdea0f60c01b615e76565b60108a03613df757613d2c679807a0d88c66415a60c01b615e76565b613d406721f2dad3c12871e960c01b615e76565b613d546757292ca14887e52e60c01b615e76565b613d6867ebb398e61f1f2c5960c01b615e76565b84821015613dab576040517f08c379a0000000000000000000000000000000000000000000000000000000008152600401613da290618f4e565b60405180910390fd5b613dbf67a169a755d418cb3a60c01b615e76565b613dd367c045dd11587b782560c01b615e76565b613de9818488613de39190618a58565b886162bd565b8b6000018181525050614086565b613e0b677b4b9a10f3536ca960c01b615e76565b613e1f670fde41bc538da70060c01b615e76565b613e3367a4536eead5ce11d160c01b615e76565b613e476729a0d83746b3222360c01b615e76565b85831015613e8a576040517f08c379a0000000000000000000000000000000000000000000000000000000008152600401613e8190618fba565b60405180910390fd5b613e9e67504929a9cf48c67660c01b615e76565b613eb2673e46f5b84fd4175060c01b615e76565b613ec66781afbe1cb7b1840660c01b615e76565b60208a03613f1a57613ee267870054f0c084de7d60c01b615e76565b613ef667b586574f2d60bdab60c01b615e76565b613f0c818387613f069190618a58565b876162bd565b8b6000018181525050614085565b613f2e67deb69cd8388038fa60c01b615e76565b613f426783f541e093592d8160c01b615e76565b613f5667582c3c124338774260c01b615e76565b613f6a67a4445ac5be2abdaa60c01b615e76565b84821015613fad576040517f08c379a0000000000000000000000000000000000000000000000000000000008152600401613fa490619026565b60405180910390fd5b613fc1679e6382b7b241bd6e60c01b615e76565b613fd56706e6e7c2a375421660c01b615e76565b613fe967440f9b30b332391060c01b615e76565b600085878a60000151613ffc9190618a58565b6140069190618a58565b905061401c67828021bb518363ed60c01b615e76565b61403067b68f88209f939e6360c01b615e76565b6000838587600001516140439190618a58565b61404d9190618a58565b9050614063676b9fe21ac3b29abf60c01b615e76565b6140798382846140739190618a58565b846162bd565b8d600001818152505050505b5b61409a676f48c455e362f74960c01b615e76565b6140ae6756ff4b13ed7cf03960c01b615e76565b6140c267399568e750a9814160c01b615e76565b6140d667f525c7e0c29b5f3460c01b615e76565b8a6000015181036103e81115614121576040517f08c379a000000000000000000000000000000000000000000000000000000000815260040161411890619092565b60405180910390fd5b614135672ea28deb99b87b2460c01b615e76565b505b61414b675fd6da09e94860e060c01b615e76565b61415f67220eb8502a731b5460c01b615e76565b600088036141b15761417b671c9a89b6e35de7fd60c01b615e76565b61418f673229e9907171456160c01b615e76565b826000015187600001516141a39190618a58565b8a6020018181525050614637565b6141c567626de9db8994cbd860c01b615e76565b6141d967316c5da927eba99560c01b615e76565b6141ed674952707e4a6b7a7660c01b615e76565b6030880361436e5761420967465a7f149b214f7460c01b615e76565b61421d674062c428651a279860c01b615e76565b61423167899544d86749e75b60c01b615e76565b6000848689600001516142449190618a58565b61424e9190618a58565b9050614264670367ea3d4c89f9a060c01b615e76565b614278676a8b7438bb0c768860c01b615e76565b60008284866000015161428b9190618a58565b6142959190618a58565b90506142ab67d4d22212461d695360c01b615e76565b6142bf6793b8466544bc8a5760c01b615e76565b6142d3672eaef6104125a26260c01b615e76565b6103e8811015614318576040517f08c379a000000000000000000000000000000000000000000000000000000000815260040161430f906190fe565b60405180910390fd5b61432c67f56314d03ceb270a60c01b615e76565b61434067d1d1dd4054cd3ff660c01b615e76565b61435e61434c8b616402565b83836143589190618a58565b84616329565b8c60200181815250505050614636565b614382675bf0ff278db15dea60c01b615e76565b614396678ef7867bfd58ca8f60c01b615e76565b6143aa672b18dbcccd4107d760c01b615e76565b6010880361449b576143c667b22759923e621c9860c01b615e76565b6143da67d26fd544e559437060c01b615e76565b6143ee67d41248dd58a2039a60c01b615e76565b6144026705eb3859a58bbca760c01b615e76565b6103e8821015614447576040517f08c379a000000000000000000000000000000000000000000000000000000000815260040161443e9061916a565b60405180910390fd5b61445b67d2c74e3293c2f89360c01b615e76565b61446f67cc2f47907993e8cd60c01b615e76565b61448d61447b89616402565b86846144879190618a58565b87616329565b8a6020018181525050614580565b6144af67ca3e6cc4a78e9a8360c01b615e76565b6144c3670bd91ff19acf86a960c01b615e76565b6144d767cacb8dd934c513ea60c01b615e76565b6144eb67bdeb51ed3d2591d360c01b615e76565b6103e8811015614530576040517f08c379a0000000000000000000000000000000000000000000000000000000008152600401614527906191d6565b60405180910390fd5b6145446743db10a55a96a12260c01b615e76565b6145586767f24ad1a7e8374d60c01b615e76565b61457661456489616402565b85836145709190618a58565b86616329565b8a60200181815250505b6145946703393a94e8ad575960c01b615e76565b6145a8676058be21d120beab60c01b615e76565b7001000000000000000000000000000000008c610140015114614620576145d967fdac53e0a9d7959160c01b615e76565b6145ed67cd2312efdb13d8e860c01b615e76565b6146128a600001517001000000000000000000000000000000008e6101400151616329565b8a6000018181525050614635565b61463467ab7b090989c90bd460c01b615e76565b5b5b5b61464b6758a7fc6ee5db504560c01b615e76565b8260200151600060046101000a8154817bffffffffffffffffffffffffffffffffffffffffffffffffffffffff02191690837bffffffffffffffffffffffffffffffffffffffffffffffffffffffff1602179055506146b467a259b031a24dbea760c01b615e76565b8260400151600160046101000a8154817bffffffffffffffffffffffffffffffffffffffffffffffffffffffff02191690837bffffffffffffffffffffffffffffffffffffffffffffffffffffffff16021790555050505050505050505092915050565b60006014826147279190618579565b8351101561476a576040517f08c379a000000000000000000000000000000000000000000000000000000000815260040161476190619242565b60405180910390fd5b60006c01000000000000000000000000836020860101510490508091505092915050565b6000808573ffffffffffffffffffffffffffffffffffffffff166323b872dd8686866040516024016147c293929190619262565b6040516020818303038152906040529060e01b6020820180517bffffffffffffffffffffffffffffffffffffffffffffffffffffffff838183161783525050505060405161481091906192d5565b6000604051808303816000865af19150503d806000811461484d576040519150601f19603f3d011682016040523d82523d6000602084013e614852565b606091505b5091509150818015614880575060008151148061487f57508080602001905181019061487e9190619318565b5b5b6148bf576040517f08c379a00000000000000000000000000000000000000000000000000000000081526004016148b6906193b7565b60405180910390fd5b505050505050565b60006148dd6719f34e0fa5bada6e60c01b612894565b6148f167ef5a2c8697f54ec460c01b612894565b8273ffffffffffffffffffffffffffffffffffffffff1660a083901b17905092915050565b600061492c6702fdf359bc03eacb60c01b615e76565b614940676b1a3d24eb02052060c01b615e76565b61495467b49b1e20d1709a4460c01b615e76565b61496867eb4fb2e7edc2bd8c60c01b615e76565b4283116149b357614983676e24b2b3abbde85c60c01b615e76565b61499767db81bc5dfa898feb60c01b615e76565b6149ab6797cc39b3972d32e460c01b615e76565b819050614b95565b6149c7676a8a13822266f3b260c01b615e76565b6149db6762b151209252369860c01b615e76565b6149ef676c04ac0447c1f60560c01b615e76565b60004284039050614a0a678787c1667efbc91f60c01b615e76565b614a1e67eedf8174d7f2c73660c01b615e76565b808560e0015111614a6f57614a3d67c3f34b28b15ac94c60c01b615e76565b614a51675d87c59f812103ac60c01b615e76565b614a6567208674ed4892a65c60c01b615e76565b6000915050614b95565b614a836716b45f789576720260c01b615e76565b614a976710a60e40053fe2a960c01b615e76565b614aab675ed03b07eade0a8660c01b615e76565b6000818660e00151039050614aca67f66afd8be714864060c01b615e76565b614ade67aa2221196069dcd460c01b615e76565b856101000151811015614b3257614aff67f4d981614bdaa1ff60c01b615e76565b614b1367a1faf6bcf9aa9bdb60c01b615e76565b85610100015181850281614b2a57614b296188b4565b5b049350614b47565b614b4667649f2abacd09541860c01b615e76565b5b614b5b677dda8cbde0ec2af160c01b615e76565b614b6f67ab2539ddd7916fec60c01b615e76565b614b9084876101200151700100000000000000000000000000000000616329565b925050505b9392505050565b6000808473ffffffffffffffffffffffffffffffffffffffff1663a9059cbb8585604051602401614bce9291906186d9565b6040516020818303038152906040529060e01b6020820180517bffffffffffffffffffffffffffffffffffffffffffffffffffffffff8381831617835250505050604051614c1c91906192d5565b6000604051808303816000865af19150503d8060008114614c59576040519150601f19603f3d011682016040523d82523d6000602084013e614c5e565b606091505b5091509150818015614c8c5750600081511480614c8b575080806020019051810190614c8a9190619318565b5b5b614ccb576040517f08c379a0000000000000000000000000000000000000000000000000000000008152600401614cc290619449565b60405180910390fd5b5050505050565b6000818311614ce15781614ce3565b825b905092915050565b50565b6000614d0467eb168ff137fa174860c01b614ceb565b614d18675f57c20d379a088f60c01b614ceb565b614d2c67e024739315e94dfe60c01b614ceb565b6000633850c7bd60e01b604051602401604051602081830303815290604052907bffffffffffffffffffffffffffffffffffffffffffffffffffffffff19166020820180517bffffffffffffffffffffffffffffffffffffffffffffffffffffffff83818316178352505050509050614daf677ce8ac337181428f60c01b614ceb565b614dc3672ea9e6c715d5875060c01b614ceb565b6000808473ffffffffffffffffffffffffffffffffffffffff1683604051614deb91906192d5565b600060405180830381855afa9150503d8060008114614e26576040519150601f19603f3d011682016040523d82523d6000602084013e614e2b565b606091505b5091509150614e44674543425c3eb7b7a360c01b614ceb565b60008203614e5457805160208201fd5b60208101519350505050919050565b60008060008363ffffffff1603614eaf576040517f08c379a0000000000000000000000000000000000000000000000000000000008152600401614ea6906194b5565b60405180910390fd5b6000600267ffffffffffffffff811115614ecc57614ecb6178c6565b5b604051908082528060200260200182016040528015614efa5781602001602082028036833780820191505090505b5090508381600081518110614f1257614f116194d5565b5b602002602001019063ffffffff16908163ffffffff1681525050600081600181518110614f4257614f416194d5565b5b602002602001019063ffffffff16908163ffffffff16815250506000808673ffffffffffffffffffffffffffffffffffffffff1663883bdbfd846040518263ffffffff1660e01b8152600401614f9891906195c2565b600060405180830381865afa158015614fb5573d6000803e3d6000fd5b505050506040513d6000823e3d601f19601f82011682018060405250810190614fde91906197cf565b91509150600082600081518110614ff857614ff76194d5565b5b602002602001015183600181518110615014576150136194d5565b5b60200260200101516150269190619847565b905060008260008151811061503e5761503d6194d5565b5b60200260200101518360018151811061505a576150596194d5565b5b602002602001015161506c91906198a6565b90508763ffffffff168261508091906198ee565b965060008260060b1280156150aa575060008863ffffffff16836150a49190619958565b60060b14155b156150be5786806150ba90619996565b9750505b600073ffffffffffffffffffffffffffffffffffffffff80168963ffffffff166150e89190619a02565b905060208273ffffffffffffffffffffffffffffffffffffffff1677ffffffffffffffffffffffffffffffffffffffffffffffff16901b8161512a9190619a44565b96505050505050509250929050565b60008060008360020b12615150578260020b615158565b8260020b6000035b90507ffffffffffffffffffffffffffffffffffffffffffffffffffffffffffff2761860000360020b8111156151ba576040517f2bc80f3a00000000000000000000000000000000000000000000000000000000815260040160405180910390fd5b60008060018316036151dd577001000000000000000000000000000000006151ef565b6ffffcb933bd6fad37aa2d162d1a5940015b70ffffffffffffffffffffffffffffffffff169050600060028316146152295760806ffff97272373d413259a46990580e213a8202901c90505b6000600483161461524e5760806ffff2e50f5f656932ef12357cf3c7fdcc8202901c90505b600060088316146152735760806fffe5caca7e10e4e61c3624eaa0941cd08202901c90505b600060108316146152985760806fffcb9843d60f6159c9db58835c9266448202901c90505b600060208316146152bd5760806fff973b41fa98c081472e6896dfb254c08202901c90505b600060408316146152e25760806fff2ea16466c96a3843ec78b326b528618202901c90505b600060808316146153075760806ffe5dee046a99a2a811c461f1969c30538202901c90505b600061010083161461532d5760806ffcbe86c7900a88aedcffc83b479aa3a48202901c90505b60006102008316146153535760806ff987a7253ac413176f2b074cf7815e548202901c90505b60006104008316146153795760806ff3392b0822b70005940c7a398e4b70f38202901c90505b600061080083161461539f5760806fe7159475a2c29b7443b29c7fa6e889d98202901c90505b60006110008316146153c55760806fd097f3bdfd2022b8845ad8f792aa58258202901c90505b60006120008316146153eb5760806fa9f746462d870fdf8a65dc1f90e061e58202901c90505b60006140008316146154115760806f70d869a156d2a1b890bb3df62baf32f78202901c90505b60006180008316146154375760806f31be135f97d08fd981231505542fcfa68202901c90505b60006201000083161461545e5760806f09aa508b5b7a84e1c677de54f3e99bc98202901c90505b6000620200008316146154845760806e5d6af8dedb81196699c329225ee6048202901c90505b6000620400008316146154a95760806d2216e584f5fa1ea926041bedfe988202901c90505b6000620800008316146154cc5760806b048a170391f7dc42444e8fa28202901c90505b60008460020b131561550c57807fffffffffffffffffffffffffffffffffffffffffffffffffffffffffffffffff81615508576155076188b4565b5b0490505b60006401000000008281615523576155226188b4565b5b0614615530576001615533565b60005b60ff16602082901c0192505050919050565b600061555b671e3c6f3abd7fe31e60c01b615e76565b61556f67699da3b5ee47f3a260c01b615e76565b615583671b8639cf35f6cf1160c01b615e76565b8173ffffffffffffffffffffffffffffffffffffffff166370a08231306040518263ffffffff1660e01b81526004016155bc9190618502565b602060405180830381865afa1580156155d9573d6000803e3d6000fd5b505050506040513d601f19601f820116820180604052508101906155fd919061851d565b9050919050565b60008061561b679e5873311fa11f1760c01b615e76565b61562f671a162ff0b699dec060c01b615e76565b61564367d60bcd7b4a026d0d60c01b615e76565b600073ffffffffffffffffffffffffffffffffffffffff168473ffffffffffffffffffffffffffffffffffffffff16036156c55761568b67cafea97f5aef197860c01b615e76565b61569f671ac0af7757ebf5e260c01b615e76565b6156b3676488c4abfa035b4660c01b615e76565b6156bc83611559565b91509150615781565b6156d9672c193a986a7ab83d60c01b615e76565b6156ed670d5ca34913ea1cb160c01b615e76565b61570167205a5804f45c054360c01b615e76565b8373ffffffffffffffffffffffffffffffffffffffff16637a33e3b0846040518263ffffffff1660e01b815260040161573a9190619a75565b60408051808303816000875af1158015615758573d6000803e3d6000fd5b505050506040513d601f19601f8201168201806040525081019061577c9190619a90565b915091505b9250929050565b600061579e67c0c38de66eacb98260c01b615e76565b6157b267050b82777bad540c60c01b615e76565b6157c6678aced147caf1af1560c01b615e76565b6000836080015190506157e36747e20e8cd1b1b0ef60c01b615e76565b6157f76782e0c9e61c4173dd60c01b615e76565b600083821090506158126719d34ebe7476203260c01b615e76565b615826670cf36632cf79476b60c01b615e76565b801561586357615840673c86d851ed0b060060c01b615e76565b61585467fa0347338c4e095d60c01b615e76565b83828095508193505050615878565b615877674779e2ff447fcc4460c01b615e76565b5b61588c67605c49e6515e626f60c01b615e76565b6158b56158ab7001000000000000000000000000000000008685616329565b86606001516164ea565b92506158cb672cb56cca88b1cadb60c01b615e76565b6158df678ac2672672b45e0760c01b615e76565b60008303615925576158fb678da551e3078fba8460c01b615e76565b61590f67fd0656df28c7e00560c01b615e76565b61591e84838760600151616682565b925061593a565b61593967e6553928a74e443d60c01b615e76565b5b61594e67e12446c07d932e0060c01b615e76565b615962679ecbf694784395bd60c01b615e76565b80156159c35761597c67553402b5bfdb4f3760c01b615e76565b6159906716d591cea9de464d60c01b615e76565b827fffffffffffffffffffffffffffffffffffffffffffffffffffffffffffffffff6159bc91906188e3565b92506159d8565b6159d767a6128a42c8220ca360c01b615e76565b5b505092915050565b6000806159f767d853a87eb7200bce60c01b615e76565b615a0b6791d5388fadd7686660c01b615e76565b615a1e84846020015185600001516167f4565b9150615a346720fe1c430b125f4860c01b615e76565b615a72847fffffffffffffffffffffffffffffffffffffffffffffffffffffffffffffffff615a6391906188e3565b846040015185600001516167f4565b90509250929050565b600080600080848688615a8e9190618a58565b615a989190618a58565b905060008860a001511115615b4c5760008060009054906101000a900463ffffffff1642615ac69190619ad0565b63ffffffff1690506000811115615b4a576000615ae7828b60a00151616225565b90506000615aff8983680100000000000000006162bd565b90506000615b178984680100000000000000006162bd565b905089821080615b2657508881105b15615b4657615b36826001614cd2565b9950615b43816001614cd2565b98505b5050505b505b60008860c001511115615cfd576000858711615b73578686615b6e9190618a58565b615b80565b8587615b7f9190618a58565b5b90506001811115615cfb5780615b9590619b08565b90506000600119600160009054906101000a900463ffffffff161660011963ffffffff164216615bc59190619ad0565b63ffffffff1690506000811115615cf957600087891115615c0857615bf68a89858d615bf19190618a58565b616329565b89615c019190618a58565b9050615c2c565b615c1e8a8a858d615c199190618a58565b616329565b88615c299190618a58565b90505b6000615c3d8c60c0015183866162bd565b9050615c4a600182614cd2565b90506000615c588483616225565b9050615c6e8382680100000000000000006162bd565b83615c799190618a58565b92506000831115615cf557898b1115615cc257615ca2838b8d8f615c9d9190618a58565b616329565b8a615cad9190618579565b9950828b615cbb9190618a58565b9a50615cf4565b615cd8838c8c8f615cd39190618a58565b616329565b8b615ce39190618579565b9a50828a615cf19190618a58565b99505b5b5050505b505b505b6000891115615d51576000898287898b615d179190618a58565b615d219190618a58565b615d2b9190618a58565b615d3591906188e3565b90506000811115615d4f578088615d4c9190618a58565b97505b505b86868693509350935050955095509592505050565b6000818310615d755781615d77565b825b905092915050565b60008273ffffffffffffffffffffffffffffffffffffffff1663bd85b039615da730856148c7565b6040518263ffffffff1660e01b8152600401615dc39190619a75565b602060405180830381865afa158015615de0573d6000803e3d6000fd5b505050506040513d601f19601f82011682018060405250810190615e04919061851d565b905092915050565b60007f01ffc9a7000000000000000000000000000000000000000000000000000000007bffffffffffffffffffffffffffffffffffffffffffffffffffffffff1916827bffffffffffffffffffffffffffffffffffffffffffffffffffffffff1916149050919050565b50565b600060019050919050565b600080600080615e9e6759f39131b199a23b60c01b615e76565b615eb2673804449e7ce40ad960c01b615e76565b615ec667b227f0680365062860c01b615e76565b600080615ede8a600001518b6020015160001c615604565b91509150615ef6671629f6856dc89c1660c01b615e76565b615f0a673c2143977b14eda960c01b615e76565b80821115615f4957615f2667f80931c30c72f60760c01b615e76565b615f3a67715cc78cc64249fb60c01b615e76565b80828092508193505050615f5e565b615f5d6790d40590dec71df760c01b615e76565b5b615f7267eb39de2ca55ea3ce60c01b615e76565b615f866744c1d7a4cdb6674860c01b615e76565b601087148015615fa65750615fa56718a5c12a55e7ee4260c01b615e79565b5b80615fcd5750602088148015615fcc5750615fcb67082ac564d82041cb60c01b615e79565b5b5b1561603457615fe667dd994ec1b396416160c01b615e76565b615ffa6768fe7dfe74f3f53060c01b615e76565b6160078a82945084615788565b955061601d677ab41a4a24be704460c01b615e76565b616027868a6159e0565b8095508196505050616218565b61604867b38651746ebfb8c460c01b615e76565b61605c677f9bbef6de61f1af60c01b615e76565b60208714801561607c575061607b677c952063ce6fc0bd60c01b615e79565b5b806160a357506010881480156160a257506160a167eedb887c9990733c60c01b615e79565b5b5b1561610a576160bc676cb12a3a5019fc1960c01b615e76565b6160d067eba2c901998374b260c01b615e76565b6160dd8a83945084615788565b95506160f367dbb0be8842e9f83260c01b615e76565b6160fd868a6159e0565b8095508196505050616217565b61611e67648687820f56fcfa60c01b615e76565b616132673ff9f0e11904ad4b60c01b615e76565b61613f8a83945084615788565b95506161556752bc9f7f3055ef5760c01b615e76565b61615f868a6159e0565b809550819650505061617b67ae29f549f103697360c01b615e76565b61618f6707e43a5777053b7d60c01b615e76565b848411151560008914151503616201576161b367e20f54bdec829bce60c01b615e76565b6161c767848c16e7259be21560c01b615e76565b6161d48a82945084615788565b95506161ea6746aa9910efb9590c60c01b615e76565b6161f4868a6159e0565b8095508196505050616216565b616215679c674ee56d9ff43260c01b615e76565b5b5b5b5050945094509450949050565b600061623b677112f63b2f2005a260c01b615e76565b61624f67a7cbdf754a27b8e360c01b615e76565b616263674e9b273a4e68247360c01b615e76565b600061628683604086901b61627891906188e3565b61628190619b3e565b616947565b905061629c67ac9118eba98903b660c01b615e76565b6162b067b4fc3aef4fecefb060c01b615e76565b80600f0b91505092915050565b60006162ca848484616329565b9050600082806162dd576162dc6188b4565b5b848609111561631b577fffffffffffffffffffffffffffffffffffffffffffffffffffffffffffffffff811061631257600080fd5b80806001019150505b9392505050565b6000919050565b6000806000801985870985870292508281108382030391505060008103616363576000841161635757600080fd5b838204925050506163fb565b80841161636f57600080fd5b600084868809905082811182039150808303925060008586600003169050808604955080840493506001818260000304019050808302841793506000600287600302189050808702600203810290508087026002038102905080870260020381029050808702600203810290508087026002038102905080870260020381029050808502955050505050505b9392505050565b600061641867858065604880be4060c01b615e76565b61642c670488588c645a12ca60c01b615e76565b61644067407604669f9bc95260c01b615e76565b7f000000000000000000000000000000000000000000000000000000000000000073ffffffffffffffffffffffffffffffffffffffff1663bd85b03961648630856148c7565b6040518263ffffffff1660e01b81526004016164a29190619a75565b602060405180830381865afa1580156164bf573d6000803e3d6000fd5b505050506040513d601f19601f820116820180604052508101906164e3919061851d565b9050919050565b6000616500675d99e5cdf4a8a90c60c01b615e76565b61651467da8a954701e975dd60c01b615e76565b600060018316118015616537575061653667762f6ee1d941a90160c01b615e79565b5b806165525750616551672c5de0d5a54bea3160c01b616322565b5b61656d5770010000000000000000000000000000000061656f565b825b9050616585670822e6b539ff2dca60c01b615e76565b61659967c1ddff10bf4ee65e60c01b615e76565b600182901c91505b600082111561667c576165be67d1b1dc4b9817f10f60c01b615e76565b6165da8384700100000000000000000000000000000000616329565b92506165f06774743c33c2f1407760c01b615e76565b616604673d09362f3409cf0760c01b615e76565b600060018316111561665b57616624670c4234e91bc5d75760c01b615e76565b616638678820e8e0cf97b22a60c01b615e76565b6166548184700100000000000000000000000000000000616329565b9050616670565b61666f6753d386ceea9a644f60c01b615e76565b5b600182901c91506165a1565b92915050565b6000616698670a5095c63642934a60c01b615e76565b6166ac67e9e25247f85d6c7b60c01b615e76565b70010000000000000000000000000000000090506166d4679d05d41a9570df8c60c01b615e76565b6166e8678da0ae8f0ac6f22b60c01b615e76565b5b60008211156167ec57616706673099ca43ee9e530f60c01b615e76565b61671a678ad3c7301d0f9bf560c01b615e76565b6000616727828686616329565b905061673d679670508149b99a1e60c01b615e76565b61675167731b862a3e47f56660c01b615e76565b6000810361679b5761676d6752a767b90fdf727760c01b615e76565b61678167b2fb139a580cf38a60c01b615e76565b6167956798f8851ff8d9dcb760c01b615e76565b506167ed565b6167af677770191135edbdd660c01b615e76565b6167c36734909bb0ad26a25060c01b615e76565b8091506167da677f1222a38e9cc24d60c01b615e76565b826167e490619b08565b9250506166e9565b5b9392505050565b600061680a671ade64d597467e7f60c01b615e76565b61681e6744b0a3ebf1dbc53660c01b615e76565b61683a8385700100000000000000000000000000000000616329565b90506168506799c13d289b28e70660c01b615e76565b61686467d80846056885baf260c01b615e76565b600182901c81111561692b57616884675fde4a88f33ea1a560c01b615e76565b61689867cb0b292d3fa6922760c01b615e76565b6168ac67b905c041d067cdfc60c01b615e76565b60006168c984866f40000000000000000000000000000000616329565b90506168df67449f9badd2dd192a60c01b615e76565b6168f367de9bcaa5c74f0d6360c01b615e76565b60006169008485846162bd565b9050616916673e64700885975c0160c01b615e76565b80846169229190618a58565b92505050616940565b61693f678ec6573c2447e3c060c01b615e76565b5b9392505050565b60006840000000000000000082600f0b1261696157600080fd5b7fffffffffffffffffffffffffffffffffffffffffffffffc0000000000000000082600f0b12156169955760009050617542565b60006f80000000000000000000000000000000905060006780000000000000008416600f0b13156169db57608070016a09e667f3bcc908b2fb1366ea957d3e8202901c90505b60006740000000000000008416600f0b1315616a0c5760807001306fe0a31b7152de8d5a46305c85edec8202901c90505b60006720000000000000008416600f0b1315616a3d5760807001172b83c7d517adcdf7c8c50eb14a791f8202901c90505b60006710000000000000008416600f0b1315616a6e57608070010b5586cf9890f6298b92b71842a983638202901c90505b60006708000000000000008416600f0b1315616a9f5760807001059b0d31585743ae7c548eb68ca417fd8202901c90505b60006704000000000000008416600f0b1315616ad0576080700102c9a3e778060ee6f7caca4f7a29bde88202901c90505b60006702000000000000008416600f0b1315616b0157608070010163da9fb33356d84a66ae336dcdfa3f8202901c90505b60006701000000000000008416600f0b1315616b32576080700100b1afa5abcbed6129ab13ec11dc95438202901c90505b600066800000000000008416600f0b1315616b6257608070010058c86da1c09ea1ff19d294cf2f679b8202901c90505b600066400000000000008416600f0b1315616b925760807001002c605e2e8cec506d21bfc89a23a00f8202901c90505b600066200000000000008416600f0b1315616bc2576080700100162f3904051fa128bca9c55c31e5df8202901c90505b600066100000000000008416600f0b1315616bf25760807001000b175effdc76ba38e31671ca9397258202901c90505b600066080000000000008416600f0b1315616c22576080700100058ba01fb9f96d6cacd4b180917c3d8202901c90505b600066040000000000008416600f0b1315616c5257608070010002c5cc37da9491d0985c348c68e7b38202901c90505b600066020000000000008416600f0b1315616c825760807001000162e525ee054754457d59952920268202901c90505b600066010000000000008416600f0b1315616cb257608070010000b17255775c040618bf4a4ade83fc8202901c90505b6000658000000000008416600f0b1315616ce15760807001000058b91b5bc9ae2eed81e9b7d4cfab8202901c90505b6000654000000000008416600f0b1315616d10576080700100002c5c89d5ec6ca4d7c8acc017b7c98202901c90505b6000652000000000008416600f0b1315616d3f57608070010000162e43f4f831060e02d839a9d16d8202901c90505b6000651000000000008416600f0b1315616d6e576080700100000b1721bcfc99d9f890ea069117638202901c90505b6000650800000000008416600f0b1315616d9d57608070010000058b90cf1e6d97f9ca14dbcc16288202901c90505b6000650400000000008416600f0b1315616dcc5760807001000002c5c863b73f016468f6bac5ca2b8202901c90505b6000650200000000008416600f0b1315616dfb576080700100000162e430e5a18f6119e3c02282a58202901c90505b6000650100000000008416600f0b1315616e2a5760807001000000b1721835514b86e6d96efd1bfe8202901c90505b60006480000000008416600f0b1315616e58576080700100000058b90c0b48c6be5df846c5b2ef8202901c90505b60006440000000008416600f0b1315616e8657608070010000002c5c8601cc6b9e94213c72737a8202901c90505b60006420000000008416600f0b1315616eb45760807001000000162e42fff037df38aa2b219f068202901c90505b60006410000000008416600f0b1315616ee257608070010000000b17217fba9c739aa5819f44f98202901c90505b60006408000000008416600f0b1315616f105760807001000000058b90bfcdee5acd3c1cedc8238202901c90505b60006404000000008416600f0b1315616f3e576080700100000002c5c85fe31f35a6a30da1be508202901c90505b60006402000000008416600f0b1315616f6c57608070010000000162e42ff0999ce3541b9fffcf8202901c90505b60006401000000008416600f0b1315616f9a576080700100000000b17217f80f4ef5aadda455548202901c90505b600063800000008416600f0b1315616fc757608070010000000058b90bfbf8479bd5a81b51ad8202901c90505b600063400000008416600f0b1315616ff45760807001000000002c5c85fdf84bd62ae30a74cc8202901c90505b600063200000008416600f0b1315617021576080700100000000162e42fefb2fed257559bdaa8202901c90505b600063100000008416600f0b131561704e5760807001000000000b17217f7d5a7716bba4a9ae8202901c90505b600063080000008416600f0b131561707b576080700100000000058b90bfbe9ddbac5e109cce8202901c90505b600063040000008416600f0b13156170a857608070010000000002c5c85fdf4b15de6f17eb0d8202901c90505b600063020000008416600f0b13156170d55760807001000000000162e42fefa494f1478fde058202901c90505b600063010000008416600f0b131561710257608070010000000000b17217f7d20cf927c8e94c8202901c90505b6000628000008416600f0b131561712e5760807001000000000058b90bfbe8f71cb4e4b33d8202901c90505b6000624000008416600f0b131561715a576080700100000000002c5c85fdf477b662b269458202901c90505b6000622000008416600f0b131561718657608070010000000000162e42fefa3ae53369388c8202901c90505b6000621000008416600f0b13156171b2576080700100000000000b17217f7d1d351a389d408202901c90505b6000620800008416600f0b13156171de57608070010000000000058b90bfbe8e8b2d3d4ede8202901c90505b6000620400008416600f0b131561720a5760807001000000000002c5c85fdf4741bea6e77e8202901c90505b6000620200008416600f0b1315617236576080700100000000000162e42fefa39fe95583c28202901c90505b6000620100008416600f0b13156172625760807001000000000000b17217f7d1cfb72b45e18202901c90505b60006180008416600f0b131561728d576080700100000000000058b90bfbe8e7cc35c3f08202901c90505b60006140008416600f0b13156172b857608070010000000000002c5c85fdf473e242ea388202901c90505b60006120008416600f0b13156172e35760807001000000000000162e42fefa39f02b772c8202901c90505b60006110008416600f0b131561730e57608070010000000000000b17217f7d1cf7d83c1a8202901c90505b60006108008416600f0b13156173395760807001000000000000058b90bfbe8e7bdcbe2e8202901c90505b60006104008416600f0b1315617364576080700100000000000002c5c85fdf473dea871f8202901c90505b60006102008416600f0b131561738f57608070010000000000000162e42fefa39ef44d918202901c90505b60006101008416600f0b13156173ba576080700100000000000000b17217f7d1cf79e9498202901c90505b600060808416600f0b13156173e457608070010000000000000058b90bfbe8e7bce5448202901c90505b600060408416600f0b131561740e5760807001000000000000002c5c85fdf473de6eca8202901c90505b600060208416600f0b1315617438576080700100000000000000162e42fefa39ef366f8202901c90505b600060108416600f0b13156174625760807001000000000000000b17217f7d1cf79afa8202901c90505b600060088416600f0b131561748c576080700100000000000000058b90bfbe8e7bcd6d8202901c90505b600060048416600f0b13156174b657608070010000000000000002c5c85fdf473de6b28202901c90505b600060028416600f0b13156174e05760807001000000000000000162e42fefa39ef3588202901c90505b600060018416600f0b131561750a57608070010000000000000000b17217f7d1cf79ab8202901c90505b604083600f0b901d603f03600f0b81901c90506f7fffffffffffffffffffffffffffffff600f0b81111561753d57600080fd5b809150505b919050565b604051806101600160405280600073ffffffffffffffffffffffffffffffffffffffff16815260200160008019168152602001600073ffffffffffffffffffffffffffffffffffffffff16815260200160008152602001600081526020016000815260200160008152602001600081526020016000815260200160008152602001600081525090565b6040518061014001604052806175e4617547565b81526020016175f1617650565b815260200160008152602001600081526020016000815260200160008152602001600081526020016000815260200160008152602001600081525090565b60405180606001604052806000815260200160008152602001600081525090565b60405180606001604052806000815260200160008152602001600081525090565b6000604051905090565b600080fd5b600080fd5b60007fffffffff0000000000000000000000000000000000000000000000000000000082169050919050565b6176ba81617685565b81146176c557600080fd5b50565b6000813590506176d7816176b1565b92915050565b6000602082840312156176f3576176f261767b565b5b6000617701848285016176c8565b91505092915050565b60008115159050919050565b61771f8161770a565b82525050565b600060208201905061773a6000830184617716565b92915050565b600073ffffffffffffffffffffffffffffffffffffffff82169050919050565b600061776b82617740565b9050919050565b61777b81617760565b82525050565b6000819050919050565b61779481617781565b82525050565b6000819050919050565b6177ad8161779a565b82525050565b610160820160008201516177ca6000850182617772565b5060208201516177dd602085018261778b565b5060408201516177f06040850182617772565b50606082015161780360608501826177a4565b50608082015161781660808501826177a4565b5060a082015161782960a08501826177a4565b5060c082015161783c60c08501826177a4565b5060e082015161784f60e08501826177a4565b506101008201516178646101008501826177a4565b506101208201516178796101208501826177a4565b5061014082015161788e6101408501826177a4565b50505050565b6000610160820190506178aa60008301846177b3565b92915050565b600080fd5b6000601f19601f8301169050919050565b7f4e487b7100000000000000000000000000000000000000000000000000000000600052604160045260246000fd5b6178fe826178b5565b810181811067ffffffffffffffff8211171561791d5761791c6178c6565b5b80604052505050565b6000617930617671565b905061793c82826178f5565b919050565b600080fd5b61794f8161779a565b811461795a57600080fd5b50565b60008135905061796c81617946565b92915050565b61797b81617760565b811461798657600080fd5b50565b60008135905061799881617972565b92915050565b600080fd5b600080fd5b600067ffffffffffffffff8211156179c3576179c26178c6565b5b6179cc826178b5565b9050602081019050919050565b82818337600083830152505050565b60006179fb6179f6846179a8565b617926565b905082815260208101848484011115617a1757617a166179a3565b5b617a228482856179d9565b509392505050565b600082601f830112617a3f57617a3e61799e565b5b8135617a4f8482602086016179e8565b91505092915050565b600060808284031215617a6e57617a6d6178b0565b5b617a786080617926565b90506000617a888482850161795d565b6000830152506020617a9c8482850161795d565b6020830152506040617ab084828501617989565b604083015250606082013567ffffffffffffffff811115617ad457617ad3617941565b5b617ae084828501617a2a565b60608301525092915050565b600060608284031215617b0257617b016178b0565b5b617b0c6060617926565b90506000617b1c84828501617989565b600083015250602082013567ffffffffffffffff811115617b4057617b3f617941565b5b617b4c84828501617a2a565b6020830152506040617b6084828501617989565b60408301525092915050565b60008060408385031215617b8357617b8261767b565b5b600083013567ffffffffffffffff811115617ba157617ba0617680565b5b617bad85828601617a58565b925050602083013567ffffffffffffffff811115617bce57617bcd617680565b5b617bda85828601617aec565b9150509250929050565b617bed8161779a565b82525050565b6000606082019050617c086000830186617be4565b617c156020830185617be4565b617c226040830184617be4565b949350505050565b600060208284031215617c4057617c3f61767b565b5b6000617c4e8482850161795d565b91505092915050565b6000604082019050617c6c6000830185617be4565b617c796020830184617be4565b9392505050565b600067ffffffffffffffff821115617c9b57617c9a6178c6565b5b602082029050602081019050919050565b600080fd5b6000617cc4617cbf84617c80565b617926565b90508083825260208201905060208402830185811115617ce757617ce6617cac565b5b835b81811015617d105780617cfc888261795d565b845260208401935050602081019050617ce9565b5050509392505050565b600082601f830112617d2f57617d2e61799e565b5b8135617d3f848260208601617cb1565b91505092915050565b600080600080600060a08688031215617d6457617d6361767b565b5b6000617d7288828901617989565b9550506020617d8388828901617989565b945050604086013567ffffffffffffffff811115617da457617da3617680565b5b617db088828901617d1a565b935050606086013567ffffffffffffffff811115617dd157617dd0617680565b5b617ddd88828901617d1a565b925050608086013567ffffffffffffffff811115617dfe57617dfd617680565b5b617e0a88828901617a2a565b9150509295509295909350565b617e2081617685565b82525050565b6000602082019050617e3b6000830184617e17565b92915050565b600063ffffffff82169050919050565b617e5a81617e41565b82525050565b600060a082019050617e756000830188617be4565b617e826020830187617be4565b617e8f6040830186617be4565b617e9c6060830185617e51565b617ea96080830184617e51565b9695505050505050565b600060608284031215617ec957617ec86178b0565b5b617ed36060617926565b90506000617ee38482850161795d565b6000830152506020617ef78482850161795d565b6020830152506040617f0b8482850161795d565b60408301525092915050565b60008060808385031215617f2e57617f2d61767b565b5b6000617f3c85828601617eb3565b925050606083013567ffffffffffffffff811115617f5d57617f5c617680565b5b617f6985828601617aec565b9150509250929050565b60008060008060808587031215617f8d57617f8c61767b565b5b6000617f9b87828801617989565b9450506020617fac8782880161795d565b9350506040617fbd8782880161795d565b9250506060617fce8782880161795d565b91505092959194509250565b61016082016000820151617ff16000850182617772565b506020820151618004602085018261778b565b5060408201516180176040850182617772565b50606082015161802a60608501826177a4565b50608082015161803d60808501826177a4565b5060a082015161805060a08501826177a4565b5060c082015161806360c08501826177a4565b5060e082015161807660e08501826177a4565b5061010082015161808b6101008501826177a4565b506101208201516180a06101208501826177a4565b506101408201516180b56101408501826177a4565b50505050565b6060820160008201516180d160008501826177a4565b5060208201516180e460208501826177a4565b5060408201516180f760408501826177a4565b50505050565b6102c0820160008201516181146000850182617fda565b5060208201516181286101608501826180bb565b50604082015161813c6101c08501826177a4565b5060608201516181506101e08501826177a4565b5060808201516181646102008501826177a4565b5060a08201516181786102208501826177a4565b5060c082015161818c6102408501826177a4565b5060e08201516181a06102608501826177a4565b506101008201516181b56102808501826177a4565b506101208201516181ca6102a08501826177a4565b50505050565b60006102c0820190506181e660008301846180fd565b92915050565b600080600080600060a086880312156182085761820761767b565b5b600061821688828901617989565b955050602061822788828901617989565b94505060406182388882890161795d565b93505060606182498882890161795d565b925050608086013567ffffffffffffffff81111561826a57618269617680565b5b61827688828901617a2a565b9150509295509295909350565b60008151905061829281617972565b92915050565b6182a181617781565b81146182ac57600080fd5b50565b6000815190506182be81618298565b92915050565b6000815190506182d381617946565b92915050565b600061016082840312156182f0576182ef6178b0565b5b6182fb610160617926565b9050600061830b84828501618283565b600083015250602061831f848285016182af565b602083015250604061833384828501618283565b6040830152506060618347848285016182c4565b606083015250608061835b848285016182c4565b60808301525060a061836f848285016182c4565b60a08301525060c0618383848285016182c4565b60c08301525060e0618397848285016182c4565b60e0830152506101006183ac848285016182c4565b610100830152506101206183c2848285016182c4565b610120830152506101406183d8848285016182c4565b6101408301525092915050565b600061016082840312156183fc576183fb61767b565b5b600061840a848285016182d9565b91505092915050565b61841c81617760565b82525050565b6000819050919050565b600060ff82169050919050565b6000819050919050565b600061845e61845961845484618422565b618439565b61842c565b9050919050565b61846e81618443565b82525050565b6000819050919050565b600061849961849461848f84618474565b618439565b61842c565b9050919050565b6184a98161847e565b82525050565b600060a0820190506184c46000830188618413565b6184d16020830187618413565b6184de6040830186618465565b6184eb6060830185618413565b6184f860808301846184a0565b9695505050505050565b60006020820190506185176000830184618413565b92915050565b6000602082840312156185335761853261767b565b5b6000618541848285016182c4565b91505092915050565b7f4e487b7100000000000000000000000000000000000000000000000000000000600052601160045260246000fd5b60006185848261779a565b915061858f8361779a565b92508282019050808211156185a7576185a661854a565b5b92915050565b600081519050919050565b600082825260208201905092915050565b60005b838110156185e75780820151818401526020810190506185cc565b60008484015250505050565b60006185fe826185ad565b61860881856185b8565b93506186188185602086016185c9565b618621816178b5565b840191505092915050565b6000604082019050818103600083015261864681856185f3565b90506186556020830184617be4565b9392505050565b600082825260208201905092915050565b7f506f6f6c426173653a20494e53554646494349454e545f5041594d454e540000600082015250565b60006186a3601e8361865c565b91506186ae8261866d565b602082019050919050565b600060208201905081810360008301526186d281618696565b9050919050565b60006040820190506186ee6000830185618413565b6186fb6020830184617be4565b9392505050565b60006060820190506187176000830186618413565b6187246020830185617be4565b6187316040830184617be4565b949350505050565b6000819050919050565b600061ffff82169050919050565b600061876c61876761876284618739565b618439565b618743565b9050919050565b61877c81618751565b82525050565b600060a0820190506187976000830188618413565b6187a46020830187618413565b6187b16040830186618773565b6187be6060830185618413565b6187cb6080830184617be4565b9695505050505050565b50565b60006187e56000836185b8565b91506187f0826187d5565b600082019050919050565b600060a0820190506188106000830187618413565b61881d6020830186617be4565b61882a6040830185617be4565b6188376060830184617e51565b8181036080830152618848816187d8565b905095945050505050565b600060c0820190506188686000830189617be4565b6188756020830188617be4565b6188826040830187617be4565b61888f6060830186617be4565b61889c6080830185617be4565b6188a960a0830184617be4565b979650505050505050565b7f4e487b7100000000000000000000000000000000000000000000000000000000600052601260045260246000fd5b60006188ee8261779a565b91506188f98361779a565b925082618909576189086188b4565b5b828204905092915050565b7f506f6f6c426173653a20414c52454144595f494e495449414c495a4544000000600082015250565b600061894a601d8361865c565b915061895582618914565b602082019050919050565b600060208201905081810360008301526189798161893d565b9050919050565b7f506f6f6c426173653a205a45524f5f504152414d000000000000000000000000600082015250565b60006189b660148361865c565b91506189c182618980565b602082019050919050565b600060208201905081810360008301526189e5816189a9565b9050919050565b7f506f6f6c426173653a20494e56414c49445f504152414d000000000000000000600082015250565b6000618a2260178361865c565b9150618a2d826189ec565b602082019050919050565b60006020820190508181036000830152618a5181618a15565b9050919050565b6000618a638261779a565b9150618a6e8361779a565b9250828203905081811115618a8657618a8561854a565b5b92915050565b7f506f6f6c426173653a2053544154455f494e5445475249545900000000000000600082015250565b6000618ac260198361865c565b9150618acd82618a8c565b602082019050919050565b60006020820190508181036000830152618af181618ab5565b9050919050565b7f506f6f6c4c6f6769633a2053414d455f53494445000000000000000000000000600082015250565b6000618b2e60148361865c565b9150618b3982618af8565b602082019050919050565b60006020820190508181036000830152618b5d81618b21565b9050919050565b7f506f6f6c4c6f6769633a20494e56414c49445f534944455f494e000000000000600082015250565b6000618b9a601a8361865c565b9150618ba582618b64565b602082019050919050565b60006020820190508181036000830152618bc981618b8d565b9050919050565b7f506f6f6c4c6f6769633a20494e56414c49445f534944455f4f55540000000000600082015250565b6000618c06601b8361865c565b9150618c1182618bd0565b602082019050919050565b60006020820190508181036000830152618c3581618bf9565b9050919050565b608082016000820151618c5260008501826177a4565b506020820151618c6560208501826177a4565b506040820151618c7860408501826177a4565b506060820151618c8b60608501826177a4565b50505050565b600060a082019050618ca66000830185618c3c565b8181036080830152618cb881846185f3565b90509392505050565b600060608284031215618cd757618cd66178b0565b5b618ce16060617926565b90506000618cf1848285016182c4565b6000830152506020618d05848285016182c4565b6020830152506040618d19848285016182c4565b60408301525092915050565b600060608284031215618d3b57618d3a61767b565b5b6000618d4984828501618cc1565b91505092915050565b7f506f6f6c4c6f6769633a205354415445315f4f564552464c4f575f4100000000600082015250565b6000618d88601c8361865c565b9150618d9382618d52565b602082019050919050565b60006020820190508181036000830152618db781618d7b565b9050919050565b7f506f6f6c4c6f6769633a205354415445315f4f564552464c4f575f4200000000600082015250565b6000618df4601c8361865c565b9150618dff82618dbe565b602082019050919050565b60006020820190508181036000830152618e2381618de7565b9050919050565b7f506f6f6c4c6f6769633a20494e56414c49445f5354415445315f520000000000600082015250565b6000618e60601b8361865c565b9150618e6b82618e2a565b602082019050919050565b60006020820190508181036000830152618e8f81618e53565b9050919050565b7f506f6f6c4c6f6769633a20494e56414c49445f5354415445315f4e5200000000600082015250565b6000618ecc601c8361865c565b9150618ed782618e96565b602082019050919050565b60006020820190508181036000830152618efb81618ebf565b9050919050565b7f506f6f6c4c6f6769633a20494e56414c49445f5354415445315f410000000000600082015250565b6000618f38601b8361865c565b9150618f4382618f02565b602082019050919050565b60006020820190508181036000830152618f6781618f2b565b9050919050565b7f506f6f6c4c6f6769633a20494e56414c49445f5354415445315f4e4100000000600082015250565b6000618fa4601c8361865c565b9150618faf82618f6e565b602082019050919050565b60006020820190508181036000830152618fd381618f97565b9050919050565b7f506f6f6c4c6f6769633a20494e56414c49445f5354415445315f4e4200000000600082015250565b6000619010601c8361865c565b915061901b82618fda565b602082019050919050565b6000602082019050818103600083015261903f81619003565b9050919050565b7f506f6f6c4c6f6769633a204d494e494d554d5f535550504c5900000000000000600082015250565b600061907c60198361865c565b915061908782619046565b602082019050919050565b600060208201905081810360008301526190ab8161906f565b9050919050565b7f506f6f6c4c6f6769633a204d494e494d554d5f524553455256455f4300000000600082015250565b60006190e8601c8361865c565b91506190f3826190b2565b602082019050919050565b60006020820190508181036000830152619117816190db565b9050919050565b7f506f6f6c4c6f6769633a204d494e494d554d5f524553455256455f4100000000600082015250565b6000619154601c8361865c565b915061915f8261911e565b602082019050919050565b6000602082019050818103600083015261918381619147565b9050919050565b7f506f6f6c4c6f6769633a204d494e494d554d5f524553455256455f4200000000600082015250565b60006191c0601c8361865c565b91506191cb8261918a565b602082019050919050565b600060208201905081810360008301526191ef816191b3565b9050919050565b7f746f416464726573735f6f75744f66426f756e64730000000000000000000000600082015250565b600061922c60158361865c565b9150619237826191f6565b602082019050919050565b6000602082019050818103600083015261925b8161921f565b9050919050565b60006060820190506192776000830186618413565b6192846020830185618413565b6192916040830184617be4565b949350505050565b600081905092915050565b60006192af826185ad565b6192b98185619299565b93506192c98185602086016185c9565b80840191505092915050565b60006192e182846192a4565b915081905092915050565b6192f58161770a565b811461930057600080fd5b50565b600081519050619312816192ec565b92915050565b60006020828403121561932e5761932d61767b565b5b600061933c84828501619303565b91505092915050565b7f5472616e7366657248656c7065723a3a7472616e7366657246726f6d3a20747260008201527f616e7366657246726f6d206661696c6564000000000000000000000000000000602082015250565b60006193a160318361865c565b91506193ac82619345565b604082019050919050565b600060208201905081810360008301526193d081619394565b9050919050565b7f5472616e7366657248656c7065723a3a736166655472616e736665723a20747260008201527f616e73666572206661696c656400000000000000000000000000000000000000602082015250565b6000619433602d8361865c565b915061943e826193d7565b604082019050919050565b6000602082019050818103600083015261946281619426565b9050919050565b7f4250000000000000000000000000000000000000000000000000000000000000600082015250565b600061949f60028361865c565b91506194aa82619469565b602082019050919050565b600060208201905081810360008301526194ce81619492565b9050919050565b7f4e487b7100000000000000000000000000000000000000000000000000000000600052603260045260246000fd5b600081519050919050565b600082825260208201905092915050565b6000819050602082019050919050565b61953981617e41565b82525050565b600061954b8383619530565b60208301905092915050565b6000602082019050919050565b600061956f82619504565b619579818561950f565b935061958483619520565b8060005b838110156195b557815161959c888261953f565b97506195a783619557565b925050600181019050619588565b5085935050505092915050565b600060208201905081810360008301526195dc8184619564565b905092915050565b600067ffffffffffffffff8211156195ff576195fe6178c6565b5b602082029050602081019050919050565b60008160060b9050919050565b61962681619610565b811461963157600080fd5b50565b6000815190506196438161961d565b92915050565b600061965c619657846195e4565b617926565b9050808382526020820190506020840283018581111561967f5761967e617cac565b5b835b818110156196a857806196948882619634565b845260208401935050602081019050619681565b5050509392505050565b600082601f8301126196c7576196c661799e565b5b81516196d7848260208601619649565b91505092915050565b600067ffffffffffffffff8211156196fb576196fa6178c6565b5b602082029050602081019050919050565b61971581617740565b811461972057600080fd5b50565b6000815190506197328161970c565b92915050565b600061974b619746846196e0565b617926565b9050808382526020820190506020840283018581111561976e5761976d617cac565b5b835b8181101561979757806197838882619723565b845260208401935050602081019050619770565b5050509392505050565b600082601f8301126197b6576197b561799e565b5b81516197c6848260208601619738565b91505092915050565b600080604083850312156197e6576197e561767b565b5b600083015167ffffffffffffffff81111561980457619803617680565b5b619810858286016196b2565b925050602083015167ffffffffffffffff81111561983157619830617680565b5b61983d858286016197a1565b9150509250929050565b600061985282619610565b915061985d83619610565b92508282039050667fffffffffffff81137fffffffffffffffffffffffffffffffffffffffffffffffffff80000000000000821217156198a05761989f61854a565b5b92915050565b60006198b182617740565b91506198bc83617740565b9250828203905073ffffffffffffffffffffffffffffffffffffffff8111156198e8576198e761854a565b5b92915050565b60006198f982619610565b915061990483619610565b925082619914576199136188b4565b5b600160000383147fffffffffffffffffffffffffffffffffffffffffffffffffff800000000000008314161561994d5761994c61854a565b5b828205905092915050565b600061996382619610565b915061996e83619610565b92508261997e5761997d6188b4565b5b828207905092915050565b60008160020b9050919050565b60006199a182619989565b91507fffffffffffffffffffffffffffffffffffffffffffffffffffffffffff80000082036199d3576199d261854a565b5b600182039050919050565b600077ffffffffffffffffffffffffffffffffffffffffffffffff82169050919050565b6000619a0d826199de565b9150619a18836199de565b9250828202619a26816199de565b91508282048414831517619a3d57619a3c61854a565b5b5092915050565b6000619a4f826199de565b9150619a5a836199de565b925082619a6a57619a696188b4565b5b828204905092915050565b6000602082019050619a8a6000830184617be4565b92915050565b60008060408385031215619aa757619aa661767b565b5b6000619ab5858286016182c4565b9250506020619ac6858286016182c4565b9150509250929050565b6000619adb82617e41565b9150619ae683617e41565b9250828203905063ffffffff811115619b0257619b0161854a565b5b92915050565b6000619b138261779a565b915060008203619b2657619b2561854a565b5b600182039050919050565b600081600f0b9050919050565b6000619b4982619b31565b91507fffffffffffffffffffffffffffffffff800000000000000000000000000000008203619b7b57619b7a61854a565b5b81600003905091905056fea164736f6c6343000814000a",
    "linkReferences": {},
    "deployedLinkReferences": {}
}